:020000040800F2
:1000000090770020410100086B010008AB6B0008ED
:1000100000000000000000000000000000000000E0
:10002000000000000000000000000000F9B500081A
:100030000000000000000000FF00000821C90008C7
:1000400075010008750100087501000875010008B8
:1000500075010008750100087501000875010008A8
:1000600075010008ED2B0008F92B00083D2C000855
:100070007501000875010008750100087501000888
:100080007501000875010008750100087501000878
:10009000750100082DCA00087501000875010008E7
:1000A0007501000875010008750100084DD10008B0
:1000B0005DD100086DD10008750100080348854630
:1000C00000F078FD00480047A90C01089077002057
:1000D000064B19680868203080F30988022080F3F5
:1000E00014883FBCAE4662B600BD0000B0030020DD
:1000F000EFF3108072B6704780F310887047EFF30B
:1001000009800E4B1A6820381060F0C044464D46F6
:1001100056465F46F0C008B572B613F0FBFB62B6F8
:100120000CBC116808681030F0C8A046A946B24659
:10013000BB4680F309882038F0C81847B003002078
:100140000E480F49026800608A4203D00D4880477C
:100150000D4800470D480E4901600E480C490160EA
:100160000D4801688D4640680047FEE7FEE7FEE760
:10017000FEE7FEE709480047FEE70000F07F0020A9
:10018000EFBEADDED1C90008BD0000081810024066
:10019000010000000000014000D8FF1F75010008A9
:1001A00030B50B46014600202022012409E00D460F
:1001B000D5409D4205D31D469540491B2546954097
:1001C00040191546521E002DF1DC30BD10B5202A15
:1001D00004DB0846203AD040002110BD0B46D34036
:1001E000D0402024A21A91400843194610BD0000B7
:1001F00000487047044E010810B50446FFF7F8FFA9
:100200000068005DC007C00F10BD014641391929C3
:1002100000D82030704700000549064A086850435E
:10022000054A801808604008704701490860704717
:100230003C0400206D4EC6413930000003460B439C
:100240009B0703D009E008C9121F08C0042AFAD28C
:1002500003E00B780370401C491C521EF9D2704712
:10026000D2B201E00270401C491EFBD2704700224E
:10027000F6E710B513460A4604461946FFF7F0FFA5
:10028000204610BD421E5378521C002BFBD10B7828
:100290001370491C521C002BF9D1704710B504464D
:1002A00005E00B780370401C002B00D0491C521E47
:1002B000F7D2204610BDCAB2401E4178401C8A4287
:1002C00002D00029F9D100207047421C0178401C5F
:1002D0000029FBD1801A704710B5002200E0521CA3
:1002E000835C8C5CA34201D1002BF8D1D8B2E1B27F
:1002F000401A10BD30B504460020034600E05B1CE8
:10030000934203D2E05CCD5C401BF8D030BD10B509
:10031000044600E0401C0378002BFBD100E0401CA9
:10032000521E04D30B78491C0370002BF7D1002117
:100330000170204610BD03460A780270401C491C1B
:10034000002AF9D11846704730B50546002003460B
:1003500000E05B1C934205D2EC5CC85C201A01D122
:10036000002CF6D130BD000070B5104D002800D132
:100370002868002414E00A4602E09E4203D0521C82
:100380001378002BF9D1DAB2224307D0002B06D024
:10039000002C04D000210170401C04E00446401CE5
:1003A0000678002EE7D12860204670BD400400206A
:1003B000F7B582B00F460026029C0CF0CBFF0090F0
:1003C000006801902578641C002D05D0FFF710FF10
:1003D0000068405DC007F5D12B2D02D02D2D1CD01B
:1003E000641E00980021016039462046049A00F0FE
:1003F000FBF80146002F04D03868A04201D10298D2
:1004000038600098006802280BD00098019A0260BA
:10041000700506D5484205B0F0BD012080020643B4
:10042000DFE70846F7E770B506460CF093FF04686F
:1004300005460A220021304600F07CF92C6070BD90
:1004400070B506460CF086FF046805460A220021B6
:10045000304600F06FF92C6070BD70B502464A401E
:10046000D50F40004A00ED0740085208002814D07C
:10047000002A12D0C40DD30D41020120C005520242
:10048000490A520AE41A091812187D34914201D31C
:10049000641C00E04900002C01DA002070BD00233C
:1004A000914201D3891A0343400849000028F7D13B
:1004B00000290AD0914202D10121C90705E09142E9
:1004C00001D2012101E00121C943E005C018401912
:1004D00000F068F970BD410040020122400AD205D7
:1004E000090E80187F2901DA00207047962903DC65
:1004F0009622511AC8407047963988407047C20FFB
:10050000D207400040080BD0C10D0723DB01C918FA
:1005100040020905400A1143C208400711437047D1
:10052000002001467047CB0FDB07490010B5490892
:1005300002460A4307D00A0D07240903E401090B08
:10054000121B002A01DC002010BDC900440F0C431F
:10055000C100E018D205801800F024F910BD000099
:100560000122D207002800DB101A002900DB511AF3
:10057000814270470122D207002800DB101A0029AF
:1005800000DB511A88427047F0B51FB406460020C0
:1005900082B005464024019100901BE0019922465B
:1005A0000F463046FFF712FE049A059B801A9941C8
:1005B00010D310461946224600F00EFB361A8F4122
:1005C0000197224601200021009F00F005FB38180A
:1005D0004D4100902046641E0028DFDC019B0098FE
:1005E0002946324607B0F0BDF7B582B0029C00271D
:1005F0002078641C15460197302802D0002D15D0B4
:1006000015E020780127641C782804D0582802D0EF
:10061000002D09D00BE0002D01D0102D07D10027AF
:1006200010252078641C02E0082500E00A25002639
:10063000009610E00099012769430818020C29462A
:1006400080B2714300908E183804864201D3012095
:1006500001902078641C294600F0E1FA0028E9DACC
:100660000398002805D0002F01D0641E00E0029CF2
:1006700004600198002806D00CF06CFE0221016095
:10068000C81E05B0F0BD009930040843F9E700002A
:100690000FB400B589B00CA900910B990023CB6071
:1006A000204B214A06930792042201921F4A02928C
:1006B0001F4A089202466B46002000F04EFB09B02C
:1006C00008BC04B0184770B586B006460020C04389
:1006D0000190002015460C4600910291049032468C
:1006E000694604A8FFF7D4FF024604982118002D9C
:1006F00005D0002801D0084600E020462860049874
:1007000000280DD0002A02DD0098884208D0081B7E
:100710000190009432466946029404A8FFF7B8FF9E
:1007200006B070BDB10F0008D10F0008FFFFFF7FBA
:10073000F9010008F7B5009C0F4600262578641CD7
:10074000002D05D0FFF754FD0068405DC007F5D1CE
:100750002B2D02D02D2D18D0641E39462046029A2A
:10076000FFF742FF002F04D03968A14201D1009960
:1007700039607105022400290BDA4042002803DDAC
:100780000CF0E8FD0460A007FEBD012080020643D6
:10079000E3E70028F8DA0CF0DDFD04600048FEBD58
:1007A000FFFFFF7F002904DA401C490001D1400807
:1007B0004000704770B40024050C05D110240004DB
:1007C00002D1002921D01124050E01D100020834E4
:1007D000050F01D10001241D850F01D18000A41C4B
:1007E000002801DB4000641C002908D020252E1BB6
:1007F0000D46F540A14000D00121294308430106E0
:100800001B1B000ADB1D02D5002070BC7047DB05F6
:10081000181880180029F8DA401C4900F5D170BC7E
:100820004008400070470000F0B5074608465840B1
:1008300087B0C00F049048000E4659004008490890
:10084000BC1A884105D2384631461E4617460B462B
:1008500002465800400810434CD0300D039040052C
:100860005900400D490D0590401A0290402872DA57
:1008700018030121000B0905084301900498009218
:10088000002805D001995242002088410092019031
:10089000029840210A1A0199009800F09DF9054636
:1008A0000C466B4607CB00F0A7F9C0197141039ABB
:1008B0000E0D0023D71756401A467A40164344D0EF
:1008C000049A002A2DD0029A012A039A15DC1205F7
:1008D000C01A914101263605001C7141D20F059EB8
:1008E000D2070093019202962A46234600F08FFB1E
:1008F00007B0F0BD38463146FAE71605224A0F46E2
:10090000B218C01AB74101210905001C4F41001857
:100910007F41114618187941E20F10436D19644167
:1009200013E0E2076D0815436408C2071443039AF5
:1009300001261205C01A91413605001C7141CE07EF
:10094000400830434908C01851412A46234600F068
:1009500051FBCDE7FFE7049801224000C117121AAE
:1009600000238B4104983146C417381AA141EEE7A1
:1009700030B40124E407634030BC55E730B40124AF
:10098000E407614030BC4FE70000E0FFF0B51FB462
:1009900088B00B990998002448400999C00F490074
:1009A00049080991C0070B990090490049080B912B
:1009B00009990898A64608431CD00B990A98084341
:1009C00018D0099801244000420D4800410D0998B3
:1009D00024050003000B204309900B980003000B33
:1009E00020430B9050181C494018002201901446D7
:1009F000104605E0002001460DB0F0BD032801DAE5
:100A0000034600E003239C46C11A0AAE0AE05F00D9
:100A100008ADED5B4F00F75B7D430027AA187C41D2
:100A2000491C5B1E6145F2DD410004AB5A522104B2
:100A3000120C0A43240C401C0828DFDB01980290AA
:100A40000099704601910090059B049A07990698B9
:100A500000F0DDFAD0E700000DFCFFFFF0B50C461A
:100A60005C4085B0E40FE40703944C000026640862
:100A700059009446490802460296224321D0624614
:100A80000A431ED06200570D4A000E032303550D82
:100A9000012402462C492405781B1B0B360B4018F9
:100AA00023432643614600901C46501AB44103D3A9
:100AB0000098401C009002E0921800985B410028CA
:100AC00003DA0020014605B0F0BD00200121090530
:100AD0000746864611E064461D46141BB54106D301
:100AE0006546521BB341744607430C43A646CD07E7
:100AF00040084908284392185B4105460D43EAD156
:100B00001046184313D060461946504071400843C0
:100B100006D06046101AB34106D20122002306E037
:100B200000220123DB0702E00122D2435310009888
:100B300074460105381C6141029C039D00196941FE
:100B400000F058FABFE70000FD0300004A00090367
:100B50000123090B1B0519430A4B10B5520D9A428C
:100B600002DA0020014610BD064B34339A4203DC02
:100B70009A1AFFF72BFB10BD034BD21800F02CF88C
:100B800010BD0000FF030000CDFBFFFF10B50029E2
:100B900004DB0124E40740428C412146002B04DBA6
:100BA0001C460123DB075242A341994200D19042E7
:100BB00010BD0000064C0125064E05E0E36807CC99
:100BC0002B430C3C98471034B442F7D3FFF77AFA22
:100BD000747401089474010810B5202A04DB0146DE
:100BE000203A9140002010BD914020239C1A0346DA
:100BF000E3401943904010BD10B5202A06DBCB1707
:100C00000846203A1041C1170B4306E00B4613413A
:100C1000D0402024A21A91400843194610BD3A281A
:100C200000D23038202302469A43412A01D310468D
:100C30003738884201D30020C0437047FFB5087899
:100C400089B01546FF2805D0491C2D2804D0002264
:100C5000002407E000240BE00122F9E70A235C43AB
:100C60000419491C0878FF28F8D1002A00D06442F2
:100C7000002004902A7801462D2A01D02B2A0FD17A
:100C80006D1C2D2A02D00022049209E00122FBE70C
:100C900000260A2233466D1C00F00BFA3818714109
:100CA0002F78FF2FF4D10C9AA218069202460A431D
:100CB00004D0FF23069A9133DA4205DA002109981D
:100CC0000A4606C00DB0F0BD0024B74AB54D264611
:100CD000079200F02BFA029006980391002801DA9F
:100CE000474200E0074639050020AF4A001C514149
:100CF0000191009012E0F80707D022462B463046BB
:100D00000799FFF743FE0646079122462B461046F9
:100D10001946FFF73BFE04460D467F10002FEAD12F
:100D20000698019B0028009A0399029806DAFFF7BB
:100D300095FE3246079BFFF791FE05E0FFF726FE82
:100D40003246079BFFF722FE049A002A02D00122B6
:100D5000D2075140099A03C2B4E7FFB591B0002011
:100D600009900025ED432E209E685C681F46019087
:100D7000B9696D1C129888470090396A8847002825
:100D8000F6D10098401C0AD00D20C0018443002EEB
:100D900012DD00982B2809D02D280DD103E000206A
:100DA000C04315B0F0BD012080020443B9696D1C39
:100DB00012988847761E009003A9600501D52D2062
:100DC00000E02B206A461073491C0CA80F9102907A
:100DD0000AE0B9696D1C1298884700900120400212
:100DE00004431398761E0560002E02DD009830281B
:100DF000EFD001990098884246D18020044308E052
:100E00000998401E09900120400204431399681C70
:100E10000860B9696D1C761E1298884700903028CA
:100E2000EED031E00199884205D1200603D480201C
:100E30000443761E1EE000980CF0BCFB002826D070
:100E400001204002044307A90F980331761E88420F
:100E50000BD200980F99303808700F98401C0F90F3
:100E6000200607D50998401E03E0200602D4099801
:100E7000401C0990A00502D51399681C0860B96947
:100E80006D1C129888470090002ECBDC59E0002E94
:100E900057DD0098652801D0452852D1A00550D5CE
:100EA000032000028443B9696D1C761E129888479E
:100EB0000090002E0CDD2B2804D02D2808D1FF2017
:100EC00001300443B9696D1C12988847761E009062
:100ED000E00501D52D2100E02B2102980170029838
:100EE000401C0290019025E00120400204430EA91D
:100EF00002980131761E88420ED20098029930384D
:100F00000006000E087003D10299019881420AD9A7
:100F10000298401C029006E0E00501D5234801E05C
:100F2000224840420990B9696D1C12988847009088
:100F300013980560002E04DD00980CF03BFB0028A0
:100F4000D2D1F969129888470F99FF200870029949
:100F500003AA087000200A900B900CA90AA8099B0C
:100F6000FFF76CFEA00502D40120C04319E724203E
:100F7000044209D0E00713D138680B9A0A99031D7F
:100F80003B60006806C00BE00B990A98FFF7CBFAAC
:100F90000146E00704D13868021D3A60006801602C
:100FA0002846FEE6000014400000F03FF1D8FFFFA5
:100FB0004268002A08D001680B78491C002B03D036
:100FC000521E06C0184670470121C160881E704736
:100FD0004268002A0BD0C3680168002B07D18368E0
:100FE0008B4204D0491E521C06C0002070470020CE
:100FF000C043704710B5002B08DA0024401C614143
:1010000092185B411A4301D14008400010BDF0B571
:101010001FB482B005460C0003D008460CF076F9E8
:1010200002E00CF073F92030024600902146284679
:10103000FFF7D2FD049B059A04460F46184311435F
:10104000084314D0184610431BD0009840210A1AB8
:1010500018460599FFF7BAF805460E46009A059915
:101060000498FFF7B9FD084305D0012004E02046AD
:10107000394607B0F0BD0020C11705430E432C438D
:10108000374300990E986305401A7905E40A002257
:101090000C43FD0A0A3002D500200146E9E70105AC
:1010A000101969410C9C0D9D00196941FFF7A2FFC1
:1010B000DFE7F0B51FB486B00020009001900290E9
:1010C0000698069980B204900798090C020400144F
:1010D000114307900027089D099806913E463C461B
:1010E00003900398A9B20204000C039004982D0CFD
:1010F0001543484300212246FFF76EFDC719714191
:1011000010340E46402CECDB3846029AFFF764FDA3
:10111000009A019B8018009059410298019110306B
:1011200002904028CCDB00980BB0F0BD0EB5054A0C
:1011300002920022009213460192FFF768FF03B06B
:1011400000BD00003304000070B58C180578401C09
:101150006B075B0F01D10378401C2A1106D102787E
:10116000401C03E006780E70401C491C5B1EF9D140
:101170002B0705D40023521E0DD40B70491CFAE72F
:101180000378401CCB1A921C03E01D780D70491C9B
:101190005B1C521EF9D5A142D8D3002070BD0000BF
:1011A000F3B581B0002100910024334E401E45006C
:1011B0000A20604381190298FFF78EF8002811D0A9
:1011C000641C0A2CF4DB00242C4FA000C1190298E7
:1011D000FFF782F800280DD0641C042CF5DB0124F5
:1011E000274F13E0274A0120515BA0400143515390
:1011F0000098FEBD0620FEBD0A2023496043411829
:101200000298FFF769F8002806D0641C78788442B9
:10121000F2DB1E48B86310E00720FEBD00680468DA
:101220002046FFF752F8024621460298FFF78CF855
:10123000002817D0B86B4068B863B86B0028EDD1B0
:10124000002420460A214843305C00280CD0641C4E
:101250000A2CF6DB0B4A0120515BA040014351539D
:101260000098FEBD0820FEBD0A2060438019029947
:10127000FFF761F8EEE70000CA040020024601080B
:1012800018000020D6080020D1070020A803002065
:10129000F3B58DB00C4600200B90414EB07A00287B
:1012A00008D04048A50040590FF0BCFD3E484059C9
:1012B0000FF0B8FD3D4904200855B07A002804D04D
:1012C000204603F0AFF805F0D2F802A8009004AB76
:1012D00003AA05A9204603F00BF86846808906900A
:1012E0000120079000250895099506A9059803F0A7
:1012F00057FE68460089069007950220089006A9C7
:10130000049803F04DFEE100294A611889180D98F0
:101310004870601E85002E46EC36B0B201A902F07E
:101320009BFB0D9A210312021143B21C771CEF356F
:1013300089B20C92002813D00191B0B202F000FCE7
:10134000B8B2002102F0FCFB0C98002180B202F040
:10135000F7FBA8B2002102F0F3FB0B980FB0F0BD31
:1013600068468088000A0209A24206D102070D9849
:10137000120F824201D10020F0E70191B0B202F0D9
:10138000DFFBB8B2002102F0DBFB0C98002180B239
:1013900002F0D6FBA8B2002102F0D2FBDDE700008C
:1013A000180000200411002020110020DD01002081
:1013B000990B0020F8B50F4601280FD02C4E2D4D6B
:1013C00031781422491E5143491902280AD00328B2
:1013D00046D1012008740AF0CBF941E0384606F006
:1013E000CDFEF8BDC868002823D0FEF76EFF044686
:1013F0003846FEF76AFF011930781422401E504328
:101400004019891CC06810F0B7FC31781422491EBD
:1014100051434919C860611C40183946FEF78BFFDB
:1014200030781422401E132150434019C0680155E2
:101430000EE03846FEF749FF401C0BF0C1FF317843
:101440001422491E51434919C8603946FEF773FFFB
:1014500030781421401E48434019C168002901D04A
:101460000020F8BD1421FEF702FF0E20F8BD000099
:1014700080020020EC0E0020F0B587B00E9E0F9D7C
:101480000D9C7D273F01D21B6F46FA767876B976A0
:101490003B76002206A91D4804F0B4FB002802D0C8
:1014A000FF2007B0F0BD69460E714C710C98887131
:1014B000002005901822164C0C2E00D962730C21C6
:1014C000012D0BD0022D0DD06273002201A90F480F
:1014D00004F008FC00280AD0FF20E2E76A461073F7
:1014E0006173F2E740206A4610736173EDE7607B39
:1014F000010220790143FF201B3002F021FB054A45
:101500000121024804F0D9FA0020CAE7C00D0020EA
:10151000B40C0020F2320000F8B508F019FB02F01C
:1015200035FF02F081F802F017FE01F0E5FB0BF049
:10153000F9FA00F055FE0BF0C7FA05F04BFB002856
:1015400003D002F061F806F0FBFC05F0B5FB0127C3
:10155000344D002813D02F7332200AF0FDFE06F020
:1015600057FCE120304E4002B06001242046B168B3
:101570000BF082FE641CE4B2052CF7D904E03220A3
:101580000AF0EAFE06F044FC05F02AFE0BF07EFEAF
:101590000AF0B6FDA8780126B603244C002831D005
:1015A00001223146204603F0B2FDFF20F5300AF05B
:1015B000D3FE00223146204603F0A9FD64200AF044
:1015C000CBFE01223146204603F0A1FD64200AF043
:1015D000C3FE00223146204603F099FD64200AF044
:1015E000BBFE01223146204603F091FD64200AF043
:1015F000B3FE00223146204603F089FD09F062FA6D
:10160000AF72F8BD01223146204603F080FDFF2075
:10161000F5300AF0A1FE00223146204603F077FDA6
:10162000ECE7000018000020B40C00200004004883
:1016300070B50446204609F00FFB054620461830D9
:1016400009F094FA284302460F480088012811D077
:1016500020898004010D491C207B4007400F801C1D
:101660008140607903090120984060634143216310
:10167000104670BD012040026063A0680001800A2E
:10168000401C40022063F3E79003002000B585B0C2
:1016900002200090FF2300220D2101A809F086FD01
:1016A0000299019804910390012009F00DFDFF209B
:1016B00009F062FD6846007B002803D16846407B44
:1016C000002802D0012005B000BD0020FBE700008B
:1016D00070B50126B603FF250D4CF5350FE001224C
:1016E0003146204603F013FD28460FF075FB00221B
:1016F0003146204603F00BFD284603F097FB00F02F
:1017000009F80028EBD009F0F1FC09F003FC70BDEA
:101710000004004808B5012000900121044803F0AE
:10172000EBFC002801D0002000906846007808BD3E
:1017300000040048FFB587B016461D46002401206E
:101740000690002700200090FF233246102102A8B7
:1017500009F02CFD0399029805910490012009F0ED
:10176000B3FCFF2009F008FD6846007C002842D148
:1017700030460BF025FE074638003CD0FF223146AC
:10178000FEF76EFD33E023480088012815D00121C3
:1017900008980019FEF704FD024600200090FF2380
:1017A000112102A809F002FD039902980591049005
:1017B0006846007C00281ED101E03146E8E7FE20A3
:1017C00009F062FD002816D1079832460119384603
:1017D00009F0DCFCA419FF2009F0CEFCFF2009F081
:1017E000CBFC012009F070FCFF2009F0C5FC6D1E48
:1017F000681CC8D10690012009F066FCFF2009F0A2
:10180000BBFC002F02D038460BF0A8FD06980BB0A9
:10181000F0BD000090030020FFB587B016461D46BE
:10182000002401200690002700200090FF2332466C
:10183000102102A809F0BAFC0399029805910490BE
:10184000012009F041FCFF2009F096FC6846007C6D
:10185000002846D130460BF0B3FD0746380040D093
:101860003BE027480088012815D00121089800197D
:10187000FEF796FC024600200090FF23182102A8E4
:1018800009F094FC03990298059104906846007C45
:10189000002826D101E03146E8E7FF2009F06CFC82
:1018A000FF2009F069FCFE2009F066FC079832462B
:1018B0000019394609F06AFCA419FF2009F05CFC04
:1018C000FF2009F059FC09F001FB052809D101208E
:1018D00009F0FAFBFF2009F04FFC6D1E681CC0D117
:1018E0000690002F02D038460BF038FD012009F099
:1018F000EBFBFF2009F040FC06980BB0F0BD0000A8
:10190000900300208CB00025002000900124B948ED
:10191000005D012801D000287ED1B7480019203889
:101920000B90C67F40E03F2E0ADA601E8101B3486B
:101930000818815D482903D1801940785A2802D0BF
:101940003F2E02D00CE0354630E0601EAB498001EE
:1019500042182032D27F482A02D1085C5A2802D08D
:101960003F2E02D01FE03F2520E0A548C07E002882
:1019700017D10B98C07FA14B611E8A01D1180EE0D0
:101980000F5C0D2F0AD13F2803DA0F187F78002F44
:1019900012D03F2802D19F5C002F0DD0401C402860
:1019A000EEDB01200090761C402EBCDB0098002866
:1019B00016D00020009015E100220A540B99401C1B
:1019C000C87790498B480B78C254032202550C709B
:1019D0008D48002302221946806912F0CBFBE0E714
:1019E0003D2D23D03E2D2AD03F2D2FD0601E8101CA
:1019F0008248081840198678E81C0190AF19FF1C2E
:101A00003F2F00DD403FBD427CD0012003F00EFAA5
:101A1000BD4223DA601E00E0CDE081017748F21C70
:101A2000081841197948FEF709FC2CE0601E810175
:101A3000724808182030C67F00200190DEE7601E43
:101A400081016E48465C01200190D7E7601E81014C
:101A50006A480818467802200190CFE74020421BD0
:101A6000601E810165480A92091809914919674861
:101A7000FEF7E4FB0A9A6548B31ADB1C10181A46F5
:101A80000999FEF7DBFBF01CC117890F08188210BB
:101A900008905E495E4802F050FD5B490870F01CFA
:101AA00080070AD00898012281085848890009183F
:101AB000574802F015FD5449087038215348FEF785
:101AC000D6FB601E4D49820151180791CA5D4E49EF
:101AD00009788A424CD1474901220A554D490919D2
:101AE0002039CE7701993F22511AB1420BDB019A7E
:101AF0000799891838225043474A80183246FEF722
:101B00009DFB15E034E0019A40218A1A0692019B60
:101B10000799C918382358433F4BC0180590FEF762
:101B20008DFB069A059807998018B21AFEF786FB76
:101B3000BD4205DA0798311D4019FEF798FB0CE00D
:101B40004020411B079804914019FEF790FB04992F
:101B50000798711A091DFEF78AFB0B987F1CC7773F
:101B600029488188491C8180204606F053FA39E0D3
:101B7000BD4208DA601E8101204808184019311D55
:101B8000FEF775FB10E04020411B601E82011B48E0
:101B90000391101802904019FEF769FB039902980F
:101BA000711A091DFEF763FB0B987F1CC777164956
:101BB0004888401C4880194800192038C17F0129F5
:101BC00010D10021C1770B48025D052A00D10155D3
:101BD000204602F027FC611E8A0108495118402264
:101BE00004F016FE641CE4B2052C00D88FE611F058
:101BF000EBFB8BE6DD01002098020020500F002057
:101C0000B40C002021000020A4020020901000202D
:101C1000F81F0020D8010020080900209D020020A4
:101C20001FB50A460123991E01910291022404491D
:101C3000009403938B7819460AF0A0FB04B010BD02
:101C40001800002038B51C460D4B0125DD701971B8
:101C5000FF290CD013460146FE220020009409F013
:101C6000A7FE21460748FEF702FB002038BD1346B9
:101C70000146FF220020009409F09AFEF1E70000DF
:101C800018000020580A002038B500240A4A002312
:101C9000D3701071FF2807D00091FE221946184614
:101CA00009F086FE204638BD00230091FF22194628
:101CB000184609F07DFEF5E718000020FFB585B055
:101CC0000020029003900490D14F07980AF0A6FDDF
:101CD000D04C6078002806D10322CFA10798FEF7E8
:101CE00033FB002837D06078002806D00622CBA12D
:101CF0000798FEF729FB002842D0C6484078022802
:101D00004AD02E210798FEF7D6FA044620007DD04F
:101D10000322C4A1E01EFEF717FB0028F7D0FEF750
:101D200067FA00686178405C2028F0D00798221A92
:101D3000014602A8FEF7B2FA02A802F059FA0546D7
:101D40003878854238D199229200601C089902F0B7
:101D500087F9064626E107990120C91CFFF72AFBEF
:101D6000002806D0B04908980BF0BCFA002060703B
:101D700004E00220607008980D210170002611E136
:101D800000206070A9A10320FFF714FBA849089860
:101D90000BF0A8FA002605E102200799FFF70AFBDD
:101DA000002804D0A04908980BF09CFA02E008999A
:101DB0000D2008700026F5E0642D4ED0662D52D01F
:101DC000FF2D56D0E8B2FE287AD0062299A1601CD9
:101DD000FEF7BAFA002874D00798FEF776FA06469E
:101DE00002A8FEF772FA321A521E611C9348FEF7DF
:101DF00055FA0798FEF769FA044602A8FEF765FA55
:101E0000201A401E82B2E8B2172100E0C3E009F0B8
:101E10004FFF2A468AA108980BF064FA0898FEF74B
:101E200054FA00280DD0069800280AD00898FEF72A
:101E30004CFA82B20120009032230899059811F0E3
:101E400029FE0898FEF741FA01460898FEF70FFAB6
:101E500084488079602875D09BE083A108980BF0B6
:101E600041FA00269EE08AA108980BF03BFA002672
:101E700098E019219048FEF7FAF90798FEF725FA3D
:101E8000054602A8FEF721FA2A1A521E611C6B4869
:101E9000FEF704FA0798FEF718FA054602A8FEF7BF
:101EA00014FA281A83B21722FF213878FFF7CAFEE6
:101EB00099229200601C089902F0D2F8064601E0CF
:101EC00005E040E07DA10898FEF7DCF96AE05149A1
:101ED0002812887019217848FEF7C9F90798FEF78B
:101EE000F4F9054602A8FEF7F0F92A1A521E611C01
:101EF0005248FEF7D3F90798FEF7E7F9054602A81E
:101F0000FEF7E3F9281A83B242481722817838781D
:101F1000FFF798FE3878401E41007048405A3D490E
:101F20008978C840C00706D099229200601C0899A1
:101F300002F096F80646089A02AB69A110460BF02B
:101F4000D1F92FE012E0474900208871E8B2002261
:101F5000192109F0ADFE64200EF03EFF6B48E9B296
:101F60000278002338780FF041FF71E77D21C90026
:101F7000012011F07DF866480078002809D06549F5
:101F80000888401C0880089A2B4663A110460BF075
:101F9000A9F9002606E0992292000899079802F014
:101FA0005FF806460898FEF790F900280ED00698CC
:101FB00000280BD00898FEF788F982B20020C043B1
:101FC000009032230899059811F064FD0898FEF7F7
:101FD0007CF901460898FEF74AF9002E00D074E615
:101FE00000200290039004900A4C607800280DD1E4
:101FF000069800280AD0E068FEF767F982B2701EE2
:1020000000903223E168059811F044FD09B0F0BD5D
:102010001A0000208002002069662000656E64209E
:1020200069660000626F7300006A0108000000002A
:10203000546A01087570646174650000580A0020D4
:10204000436F6D6D616E6420666F72776172646557
:102050006420746F204D6F64756C652025640A0DD3
:1020600000000000B40C002057726F6E67206D6F87
:1020700064756C65206E616D652120506C656173BF
:10208000652074727920616761696E2E0A0D000007
:1020900057726F6E67206D6F64756C6520494421BF
:1020A00020506C6561736520747279206167616985
:1020B0006E2E0A0D00000000E00D0020436F6D6DD4
:1020C000616E642062726F61646361737465642021
:1020D000746F20616C6C0A0D00000000D6080020AF
:1020E00025734D756C74696361737420436F6D6DF6
:1020F000616E6420666F7277617264656420746FCC
:102100002067726F75702025730A0D002100002072
:102110001F000020D402002025734D6F64756C658C
:10212000202564206973206E6F7420726561636876
:1021300061626C652E0A0D0070B5002355080AE037
:102140009C000C5B5E002404761C76008E5B34439E
:10215000066834605B1C9D42F2D8D20703D09A0017
:10216000895A026811800068006870BDF0B50023CC
:1021700097080EE09D006C184D5DE6782D062E4305
:102180006578A4782D042402254304682E43266034
:102190005B1C9F42EED894071FD09407A40F012C1C
:1021A00003D19D0006684D5D3570022C07D19C005F
:1021B0000D5D2D0264186478254304682580D243A0
:1021C00092070AD19A008B5C1B0251184A7813437C
:1021D0000268138002688978117000680068F0BD99
:1021E00010B50848064901601021C1600021417105
:1021F0000171416181610321016202F0CFF910BDDB
:1022000000300240F81F0020F0B587B00020019098
:1022100000250124E0002018DF4F0690C6197078D1
:10222000002876D0DD48407B002802D106980021A6
:10223000395402A8009004AB03AA05A9204602F075
:1022400057F8684681890022059802F060FF0A204D
:102250000AF070F868460189049802F04DFF0028E2
:102260000ED1684681890122059802F050FF0A20AC
:102270000AF060F868460189049802F03DFF019079
:10228000684681890022059802F041FF7078012894
:1022900006D002280FD0032818D004282BD120E024
:1022A0000198012803D00198002802D023E00425DA
:1022B00021E003251FE00198012803D001980028A0
:1022C00002D018E0042516E0032514E00198012847
:1022D00003D00198002802D00DE002250BE0012573
:1022E00009E00198012803D00198002802D002E0FB
:1022F000012500E00225042D01D0022D0CD1A64AB3
:10230000A00037321158A64B994203D2491C1150F4
:1023100002E0C7E000211150032D01D0012D21D191
:102320009D4AA0004F3211589D4B994202D2491C40
:10233000115001E000211150984B987D022808D1DE
:102340009849994A085D5279904202D8401C085534
:1023500008E0944994480A5D4079824202D90020FD
:10236000987508558C489049A70037300988C0599E
:102370008C46884242D3604507D1874A0699072395
:10238000535411463731401CC8518348864B4F3057
:10239000C259624501D90021C1517F48598837305F
:1023A000C0591A4688421BD9FF21F531884217D2FD
:1023B0007A49887D002802D0022803D01EE001203F
:1023C00088751BE0774B1179185D884216D95179D1
:1023D000884213D2714803218175002018550DE001
:1023E000FF387249F538884208D26C48817D00294F
:1023F00001D000218175204600F0DAF866486A496C
:102400004F300A88C0599446904238D3604507D16E
:10241000614A06990823535411464F31401CC85154
:102420005D4A61493732D059604501D90020D05109
:10243000594849884F30C059884218D9FF21F53191
:10244000884214D25549887D012802D0032807D03C
:1024500015E0514A069805231354022088750EE0B2
:102460004D4A0698062313540020887507E0FF386C
:102470004E49F538884202D2204600F0BDF8464F5A
:102480000698385C401F03000AF057FF0A14210623
:102490000D2E3B495764727F20460BF007FF0699CB
:1024A0000020785471E020460BF002FF06990020CE
:1024B00078546AE03948417B002966D1317AC907EE
:1024C00063D00121417320460BF0EEFE5DE03348FE
:1024D000417B002959D1317A890756D501214173B1
:1024E00020460BF0E2FE50E02C48417B00294CD105
:1024F000317A490749D50121417320460BF0D7FEB7
:1025000043E02648417B00293FD1317A09073CD579
:1025100001214173022120460BF0C9FE35E01F481E
:10252000417B002931D1317AC9062ED50121417371
:10253000032120460BF0BBFE27E01848417B002911
:1025400023D1317A890620D50121417320460BF031
:10255000B0FE1AE01148417B002916D1317A4906B4
:1025600013D501214173022120460BF0A2FE0CE09D
:102570000A48417B002908D1317A090605D5012195
:102580004173032120460BF094FE641CE4B2052C39
:1025900000D83FE607B0F0BD990B002018000020DE
:1025A000FFFF0000E3010020B40C00200BFE000040
:1025B000F0B50026C1000F4B4118CA189478D578A1
:1025C00012797D27FF007C437D437A4387001846BC
:1025D0003730C059A04202D10920585407E00A24DC
:1025E000A84201D15C5402E0904200D15C543046D4
:1025F000F0BD0000990B0020F0B50026C1000F4B84
:102600004118CA1854799579D2797D27FF007C4307
:102610007D437A43870018464F30C059A04202D10B
:102620000C20585407E00D24A84201D15C5402E06C
:10263000904200D15C543046F0BD0000990B002060
:1026400010B50C214143304A800089184C78FF3284
:10265000E13223000AF071FE0B565656071B242F59
:1026600039444D4456008868294AC100411827481A
:10267000405C5178884204D0002802D0507001207C
:1026800010BD88423ED000283CD1507010BD8968F2
:102690000B78145CA34235D009781154012010BD89
:1026A00089680023CB56145C64B2A3422AD009780F
:1026B0001154012010BD89680B88145AA4B2A3429A
:1026C00020D009881152012010BD89680023CB5EFB
:1026D000145A24B2A34215D009881152012010BD0A
:1026E00089680B681458A3420CD009681150012066
:1026F00010BD89680B681458A34203D009681150B3
:10270000012010BD002010BD7C120020990B00207C
:10271000E402002038B51421484330490A5C4118CE
:10272000012A04D0022A56D0032A54D10BE088781B
:10273000C978C20080182A4A105C814201D1012068
:1027400038BD002038BDC8780C22401E5043254AB1
:1027500010580468C8886A461080088950804878F4
:1027600003000AF0EAFD0738050C131D242E38007B
:1027700020460099FDF7F4FE2DD1012038BD2046FA
:102780000099FDF7F7FE26D2012038BD20460099BA
:10279000FDF7E6FE1FD26000000E1CD0012038BD00
:1027A00020460099FDF7E6FE15D8012038BD2046E9
:1027B0000099FDF7D5FE0ED86000000E0BD0012069
:1027C00038BD20460099FDF7CBFE04D06000000E16
:1027D00001D0012038BD002038BD0000EC0E0020E3
:1027E000990B0020D8020020F8B5002532210D48B1
:1027F000FDF73DFD01240B4E0B4F0DE0601E400028
:10280000315A002902D0601C01F09AF9A01C1C2842
:1028100000D30A25641CE4B278788442EED92846B5
:10282000F8BD0000540700201800002010B506492C
:102830000648FDF71CFD064801214170002181700A
:1028400008F096FF10BD0000260200002E050020B3
:1028500018000020FFB583B002E00A2009F06AFDED
:10286000D14880790028F8D00025002400270026D0
:10287000CE49680141184B79002B0AD0CA498978A2
:10288000002906D0C9490A58C9A1CB480AF02AFD37
:1028900005E0C6490A58C9A1C7480AF023FDC64841
:1028A0000399FDF719FD00280AD06D1CEDB20A2D21
:1028B000DED30498012806D00498022819D102E03A
:1028C000022007B0F0BD0698012805D0069802281E
:1028D00002D0069803280CD10C98002805D00C983B
:1028E000012802D00C98022803D1B54905988842E6
:1028F00001DD0320E5E70025AC48690140580028C8
:1029000005D06D1CEDB20A2DF6D30520D9E7A648F7
:10291000807800283AD05F210398FDF7CCFC07E0CF
:102920000399411A491CCEB25F21401CFDF7C3FC3C
:102930000028F5D1002E19D0039887193846FDF7E5
:10294000C4FCC0B29F4A0BE0303909290CD81318D7
:10295000203BDB7F59430919CCB27F1C401EC0B21B
:1029600039780029F0D107E0002405E000248F48E1
:1029700000216A0110184171002C05D001278B48F5
:1029800069010818447101E0002600278EA390A178
:102990008948039A0AF0A6FC072287498E480CF062
:1029A000C9FD814A9178002901D1082805D0002865
:1029B00005D0082803D0042083E7022081E70029FE
:1029C00042D0082840D1002419217B48FDF74FFC54
:1029D000002F18D0721E78480399FDF75FFC002C79
:1029E0001CD079A0744A009023467CA110460AF0BE
:1029F00079FC641CE4B207226F4977480CF09AFD19
:102A0000082811D012E0641CE4B26FA000902346A5
:102A100072A16948039A0AF065FCECE704226AA1F6
:102A20006548FDF774FCE4E7FF2CCDD3FF2C01D102
:102A3000082803D0002803D0042042E7022040E702
:102A4000002F01D0641EE4B257488078002811D0CE
:102A5000002E0FD030460AF0B3FC54496F01C85124
:102A60003146FDF704FC5148721EC0595249FDF72A
:102A700015FC12E00398FDF728FCC6B2701C0AF0A2
:102A80009FFC4A496F01C851711CFDF7F0FB474894
:102A90003246C0590399FDF701FC44486901081802
:102AA00004710499817105998160069901730C99EB
:102AB00041730D99016164200AF082FC044664218F
:102AC0002046FDF7D4FB47480621008800224843F2
:102AD0004549401802210B4600913A4901900A31BC
:102AE00020460AF0FFFB2046FDF7EFFB2E4B024687
:102AF0009433214638480CF0ABFF2B48C0780028AF
:102B000017D001F043FC01F075FC054601F050FBC5
:102B10002C4902462B46C91C20460AF0E3FB2046FE
:102B2000FDF7D3FB204B0246943321462A480CF094
:102B30008FFF0498012803D00498022815D020E0C4
:102B40000598FDF7DCFC0B461E4902463231204653
:102B50000AF0C8FB2046FDF7B8FB134B024694333E
:102B600021461D480CF074FF0BE016484D30FDF770
:102B7000ACFB0D4B1349024694334D3116480CF013
:102B800067FF0D98FDF7A1FB074B024694331248EF
:102B90000D990CF05DFF10480CF04AFB20460AF03E
:102BA000DDFB00208DE60000E40200203C11002047
:102BB00025735F2564000000E413002025730000E6
:102BC00000007A44284801082E54585400000000A0
:102BD00025732573000000004017002025735F2532
:102BE00064257300320000208445010810B50120DF
:102BF00000F056F810BD000010B50D480068C04345
:102C0000C00603D4052000F04BF810BD0948016848
:102C1000C943C90503D4022000F042F810BD006882
:102C2000C043C006FAD4044801F020FD10BD0000E6
:102C30000004024000000240001E002010B51548AC
:102C40000168C943C90303D4032000F029F810BD6B
:102C50000168C943C90203D4042000F021F810BD63
:102C60000D490968C943C90503D4062000F018F8C6
:102C700010BD0168C943C90403D4084801F0F6FC3B
:102C800010BD0068C043C001FAD40448383001F0D8
:102C9000EDFC10BD0000024000040240381E002080
:102CA00070B504461048611E005D0D463822514340
:102CB000022804D00D48081801F0D8FC70BD0C485B
:102CC000081801F0D3FC0B48A9000A4A4058143AEE
:102CD000002802D053585B1C535051588142EDD309
:102CE000204609F06BFC70BDDD010020B01C002007
:102CF000A81E0020F010002008B51E4841690122DE
:102D000011434161416911400091426902210A4326
:102D100042614069084000901749184800F034F8B3
:102D2000154916482831383000F02EF8124913485A
:102D30005031703000F028F80F4910486431A83045
:102D400000F022F80D480E49E03000F01DF80A4965
:102D50000C48143100F042F807490A483C31383039
:102D600000F03CF8044907487831703000F036F83C
:102D700008BD00000010024008000240B01C002006
:102D80001C040240001E002010B5016000214160BB
:102D900081608022C260016141612021816109025C
:102DA000C16101F0F1FF10BD70B504460D46294622
:102DB000204606F06BFF0021284609F09BF82046CC
:102DC00001F070FA401E044980014118402220465B
:102DD00003F01EFD70BD0000500F002010B5016013
:102DE00010214160002181608022C2600161416147
:102DF00081619101C16101F0C7FF10BD10B50246AC
:102E00000E48416A002908D0C06D002807D00B4841
:102E100080304069002805D006E0084C04E0074CEB
:102E2000383401E0054C70342146104607F086FA2C
:102E30000021204609F05EF810BD0000001E0020B1
:102E400010B50446206E0AF0A3F9216E00204862F6
:102E5000206610BD10B50160002141608160C16035
:102E60000161416120218161C901C16101F08CFFD3
:102E700010BD0000F8B504460D461646204601F088
:102E800011FA401E3821484309494718394620465F
:102E900006F0FCFE0121384609F02CF801216920DA
:102EA0000155296832462831204603F0B1FCF8BDAF
:102EB000A81E002010B5046863604368102B04D07E
:102EC000036899600068C26010BD03689A6000687A
:102ED000C16010BD00207047F1B582B001F08CF8E0
:102EE0000190019800210170714C72A1A27878487C
:102EF0000AF0F8F976490198FDF7C4F9627A75A1EC
:102F000073480AF0EFF972490198FDF7BBF9022006
:102F100003460090002276A16D480AF0E3F96C495F
:102F20000198FDF7AFF97AA27CA169480AF0DAF9B5
:102F300067490198FDF7A6F97EA281A164480AF0CD
:102F4000D1F963490198FDF79DF984A160480AF021
:102F5000C9F95F490198FDF795F90124844D22468E
:102F600084A15B480AF0BEF959490198FDF78AF936
:102F7000285D03000AF0E1F90504090E13181C008E
:102F80007EA153480AF0AEF912E07EA150480AF043
:102F9000A9F90DE081A14E480AF0A4F908E082A148
:102FA0004B480AF09FF903E086A149480AF09AF9D4
:102FB00047490198FDF766F9641CE4B2052CCED9A7
:102FC00088A143480AF08EF941490198FDF75AF962
:102FD00001248A4E601E014638225043054630586F
:102FE00000285BD088008649085801F05BF9074645
:102FF000A819406A01F056F90346224681A13448D7
:1030000000970AF06FF932490198FDF73BF9641C0B
:10301000E4B2062CDED955A10198FDF733F985A15C
:103020000198FDF72FF90198FDF74FF985B20124BA
:103030001F4EE703B0783A46401E41008548405A8B
:10304000611ECA40104208D0224683A120480AF0DF
:1030500049F91F490198FDF715F9641CE4B2052CE4
:10306000E8D90198FDF731F9A84203D17CA1019874
:10307000FDF708F93DA10198FDF704F90298002831
:103080000BD00198FDF721F982B20020C0430090D7
:1030900032230199029810F0FDFCFEBD224672A178
:1030A0000B480AF01FF90A490198FDF7EBF8AEE763
:1030B000180000200A0D2A2A2A204D6F64756C65BD
:1030C00020256420537461747573202A2A2A0A000B
:1030D000640C00200A0D436F6E6E65637465642096
:1030E00076696120706F72743A205025640A0D0071
:1030F0000A0D4669726D7761726520766572736933
:103100006F6E3A2025642E25642E25640000000091
:103110005365702020352032303230000A0D466968
:10312000726D7761726520646174653A2020202099
:103130002573000031353A32343A31320000000054
:103140000A0D4669726D776172652074696D653A22
:103150002020202025730A0D000000000A0D506F6A
:10316000727473205374617475733A0A0A0D000007
:10317000DD0100205025643A20000000467265659C
:103180000A0D0000526563656976696E67206D659A
:103190007373616765730A0D0000000053747265F4
:1031A000616D696E670A0D00526563656976696EC7
:1031B00067207573657220636F6D6D616E64730A4D
:1031C0000D000000436F6E6E656374656420746F5C
:1031D000206120627574746F6E2F737769746368F1
:1031E0000A0D00000A0D444D412053747265616D53
:1031F00073205374617475733A0A0D00A81E002081
:10320000C81000200A0D53747265616D696E6720E5
:10321000444D412025642069732073747265616D8B
:10322000696E672066726F6D2050256420746F2070
:10323000502564000A0D546865736520706F7274C0
:1032400073206172652072657665727365643A20D9
:1032500000000000540700205025642000000000FA
:103260004E6F6E65000000000A0D53747265616D4B
:10327000696E6720444D4120256420697320667281
:1032800065650000F1B582B022A129480AF02AF84C
:103290002748FDF71AF8002782B2FF43322324495A
:1032A0000097029810F0F6FB012520E00124681E2B
:1032B00046002048621E815B0120C003D0400142CD
:1032C0000FD023462A461CA119480AF00BF81848CB
:1032D000FCF7FBFF82B2322315490097029810F0E9
:1032E000D9FB641CE4B20A2CE3D96D1CEDB217487B
:1032F00040788542DAD916A10D4809F0F3FF0C4851
:10330000FCF7E3FF82B2322309490097029810F0DC
:10331000C1FBFEBD0A0D546865736520706F727441
:1033200073206172652072657665727365643A0018
:10333000640C0020540700200A0D4D6F64756C6505
:10334000202564203A205025640000001800002049
:103350000A0A0D416C6C206F7468657220706F7280
:10336000747320617265206E6F726D616C0A0D005E
:10337000F1B582B049A14E4809F0B4FF4C48FCF7C2
:10338000A4FF002682B2F6433223494900960298F0
:1033900010F080FB0124224646A1454809F0A2FF17
:1033A0004348FCF792FF82B23223414900960298CB
:1033B00010F070FB641CE4B2052CECD9322303221C
:1033C0003EA10096029810F065FB002551E06A1CB2
:1033D0003BA1374809F086FF3548FCF776FF00240B
:1033E00082B2E443322332490094029810F052FB37
:1033F00016202F46354E4743F05B0621484334499B
:10340000052241182A48FCF749FF322305222849A2
:103410000094029810F03EFB3223012223A1009475
:10342000029810F037FB01243046A61E3F186000BA
:10343000385A00282BD04307C2085B0F25A11C482F
:1034400009F050FF1A48FCF740FF82B232231849B6
:103450000096029810F01EFB641CE4B2052CE6D91D
:10346000322302221DA10096029810F013FB6D1C5E
:10347000EDB21B4840788542A9D30020C04300909C
:103480003223012217A1029810F004FBFEBD002296
:1034900015A1074809F026FFD4E700000A0D284DC2
:1034A0006F64756C653A506F7274290909000000E9
:1034B000640C002050256409000000000A0A0D0079
:1034C0004D6F64756C652025643A09002E05002057
:1034D0008445010825643A25640900000A0D0000AE
:1034E000180000200A00000025640900134909881B
:1034F000134A1288002816D0012801D000207047F6
:103500001048002A03D0002907D0AB207047814221
:1035100001D10020704702207047824201D1022071
:10352000704700207047002903D0002A03D0AB2049
:1035300070470020704702207047000000E001083B
:1035400000F00108EEEE0000F8B501F017FD274F7E
:10355000384600F0A5FB264D284600F0DBFB254C45
:10356000002802D0E06980B2F8BD234800F098FB43
:10357000284600F0CFFB002802D0E06980B2F8BDF9
:103580001E4E3069022188433061002213463946BD
:10359000012001F0B1FC284600F0BCFB002802D05D
:1035A000E06980B2F8BD30694008400030611448DD
:1035B00000F076FB284600F0ADFB002802D0E06961
:1035C00080B2F8BD0F4800F06BFB284600F0A2FB6C
:1035D0000546002D02D0E06980B2F8BD3069400890
:1035E0004000306101F07EFC2846F8BD00E0010893
:1035F00050C300005004002000E8010800200240F1
:1036000000F0010800F8010870B5054C054D206B6D
:10361000A84204D0FFF798FF002800D1256370BDB1
:10362000C07F0020ADDEEFBEF8B50025ED4301F010
:10363000A5FCBB480188BB480088BB4E2A0CBB4F89
:10364000002979D0BA4BC91866D0BA4AD14210D1F4
:10365000002819D05942884254D1B14800F020FBCB
:10366000B54C204600F056FB002829D0F06980B206
:10367000F8BDFFF769FFB04800F04CFB0028F7D118
:1036800001F030FC0020F8BDA54800F009FBAA4C71
:10369000204600F03FFB002802D0F06980B2F8BD60
:1036A000A64800F0FDFA204600F034FB002802D0C6
:1036B000F06980B2F8BD3869022188433861DFE7DC
:1036C0009E4800F0EDFA204600F024FB002802D0CE
:1036D000F06980B2F8BD3969022081433961002266
:1036E00013469049012001F007FC204600F012FB30
:1036F000002802D0F06980B2F8BD38694008400067
:103700003861BDE7FFF720FF8B4800F003FB00287E
:10371000B6D0F06980B2F8BD00280ED090427ED1BC
:10372000804800F0BDFA844C204600F0F3FA0028EF
:1037300052D0F06980B2F8BD7BE001247848C0889F
:10374000A04200D125B2AC4212D07D49204600F003
:1037500083F901280CD07A480188204600F0A0F9AE
:103760000090754800F0D6FA002801D00098E2E7F2
:10377000641CA4B2012080028442DFD900221346D7
:103780006749012001F0B8FB6B4C204600F0C2FAFB
:10379000002802D0F06980B2CDE7386940084000C7
:1037A0003861604800F07CFA204600F0B3FA002847
:1037B00002D0F06980B2BEE7624800F071FA20469C
:1037C00000F0A8FA002802D0F06980B2B3E73869A7
:1037D00002218843386153E75A4800F061FA2046D5
:1037E00000F098FA002802D0F06980B2A3E73969A6
:1037F000022081433961002213464949012001F02A
:103800007BFB204600F086FA002803D0F06980B2E6
:1038100091E704E0386940084000386130E7FFF77D
:1038200093FE454800F076FA0028D4D0F06980B2C3
:1038300081E700280DD0904223D13A4800F030FAB9
:103840003D4C204600F066FA00280AD0F06980B2AC
:1038500071E7FFF779FE384800F05CFA002886D15E
:103860000EE7384800F01CFA204600F053FA002812
:1038700002D0F06980B25EE738690221884338617E
:10388000FEE601242748C088A04200D125B2AC4200
:1038900012D02B49204600F0DFF801280CD0284830
:1038A0000188204600F0FCF80090234800F032FA2E
:1038B000002801D000983EE7641CA4B201208002D9
:1038C0008442DFD9002213461649012001F014FB7F
:1038D000194C204600F01EFA002802D0F06980B290
:1038E00029E738694008400038610D4800F0D8F9F0
:1038F000204600F00FFA002802D0F06980B21AE7E3
:103900000E4800F0CDF9204600F004FA002802D05D
:10391000F06980B20FE73969022081433961AFE66F
:1039200000E0010800F001085004002000200240DF
:103930001211FFFFEFEEFFFF50C3000000E8010887
:10394000A202002000F80108F3B581B00C4601F096
:1039500015FB0020FFF7CAFD3849394D022803D076
:10396000002803D0AB20FEBD0F4601E02F460D46D8
:10397000344A00233946012001F0BEFA324800F0F3
:10398000C9F9324E002802D0F06980B2FEBD30483D
:1039900001694908490001612146019800F080F859
:1039A0000028F3D10124019884420CD029492046F3
:1039B00000F052F8012806D026480188204600F081
:1039C0006FF80028E2D1641CA4B201208002844276
:1039D000E9D9284600F064F91B4C204600F09AF91A
:1039E000002802D0F06980B2FEBD0120C002281874
:1039F00000F056F9204600F08DF9002802D0F06959
:103A000080B2FEBD124D2869022188432861002240
:103A100013463946012001F06FFA204600F07AF98A
:103A20000446002C02D0F06980B2FEBD286940082F
:103A30004000286101F056FA2046FEBD00E0010872
:103A400000F00108EEEE000050C30000500400201A
:103A500000200240A202002070B505460E46012457
:103A60000020FFF743FDAB2808D00C4AC10289189B
:103A7000801CC002921E8218891C0AE0AB2070BD17
:103A80001088A84204D1403AD08F3080002402E050
:103A9000121F8A42F4D8204670BD000000E00108E1
:103AA000F8B505460E4601F069FA0120FFF71EFD44
:103AB000AB2807D01E4AC1028C18801CC002911E80
:103AC000411805E0AB20F8BD2068401C06D0241D3D
:103AD0008C42F9D301F006FA8020F8BD324600236B
:103AE0002146012001F008FA124800F013F9124EA5
:103AF000002802D0F06980B2F8BD104F3869400844
:103B0000400038612A460023A11C012001F0F4F98D
:103B1000084800F0FFF8002802D0F06980B2F8BD34
:103B20003869400840003861F06980B2F8BD000093
:103B300000E0010850C300005004002000200240B3
:103B400070B505460E4601F019FA31462846FFF7D2
:103B5000A7FF0446802C04D131462846FFF7F4FE27
:103B6000044601F0BFF9204670BD0000FEB50020FC
:103B70000190002400F040FA0090174F26E0142036
:103B80006043C519287C00281ED0E0B2FEF7C2FDB4
:103B9000002819D0114920208871114E0DE00E4ADD
:103BA0000021323A3078009BFEF788F80098FCF745
:103BB0008CFB01460098FCF75AFB0749E86832394C
:103BC00004F0A2FA0028EAD1641CA4B205480078E7
:103BD0008442D4D30198FEBDEC0E0020B40C00202A
:103BE0002100002080020020FEB505460020019043
:103BF00001240D4F0D4EAC420FD0788B010A31706D
:103C00007070B4700320002200900A2311462046F1
:103C100007F0CEFE0A200DF0DFF8641CE4B2052C9C
:103C2000E9D90198FEBD000018000020580A0020C4
:103C300000B5002200F002F800BD000030B50546D6
:103C400001200D4B5C7A012C15D8587A00241C54A5
:103C5000587A8000C01845605D7A184608302A54AA
:103C6000587A421C5A72303008703A2048702F201F
:103C70008870CC70002030BD846E00200649002082
:103C8000C8610648016904221143016101694022AB
:103C900011430161704700005004002000200240E1
:103CA000064A0021D16106490A6902231A430A61C2
:103CB00048610869402210430861704750040020A1
:103CC0000020024010B5054B0022DA61044A136956
:103CD000012423431361018010BD00005004002023
:103CE000002002400949C868C206094803D5C269D4
:103CF00002231A43C261CA68520703D5C26901236D
:103D00001A43C2611420C8607047000000200240BE
:103D10005004002070B5044601F00EFA0546104E1E
:103D20000AE0601C08D0002C04D001F005FA401B0A
:103D3000A04201D9032070BDF068C007F1D1F0683E
:103D4000800601D52020F060F068C00602D4F0683B
:103D5000400703D5FFF7C6FF012070BD002070BDEE
:103D600000200240FEB504460020009000250026F9
:103D7000384F787809F024FB002305E04355364995
:103D80006A008B526D1CEDB2324949788D42F5D3F1
:103D9000761C01192039CE77761CF3B20121641EFE
:103DA000A446162254432C4A9632A21896467246CE
:103DB0004C00125B002A0DD064466400264D4E1E56
:103DC00001272D5BB740244E3D433553D2081218CE
:103DD000203AD377491CC9B20529E8D900245B1CD5
:103DE000DBB200222BE0855C591E8D4225D10121DA
:103DF000194E162596365543AD190195019D4E0075
:103E0000AD5B002D15D0ED082D18203DAC46ED7FA3
:103E1000002D0ED15700104DBE46ED5B4E1E012702
:103E2000B7403D430C4E7746F5536546EB77641C2F
:103E3000E4B2491CC9B20529E0D9521CD2B20549E5
:103E400049788A42CFD3002CC8D1009C09F086FA69
:103E50002046FEBD1800002098040020F0B58FB069
:103E600007460E4634216846FCF701FA0024002577
:103E700019215148FCF7FBF94F4900203239C91983
:103E80002039C8774C491939C9192039C877012018
:103E9000791E16225143494A89180E9146493239F2
:103EA000891920390D910E994300C95A00290AD069
:103EB000C908B14207D10D9A0121D1773E490E7050
:103EC000C0B20FB0F0BD401C0628ECDD01203C491B
:103ED0004A780EE0B8420BD03749FF23323909182F
:103EE0002039CB77344B0021193B1B18203BD97765
:103EF000401C9042EEDD36E02F48694632380CF027
:103F0000F9FE401CC4B2B44232D0694601200919FE
:103F10002039C877611E16225143284A89188C46D9
:103F200061464200895A002919D04905090E6A469E
:103F30005218203AD27F002A11D11F4B323B1A1956
:103F4000203AD27F521CD2B25B18203BDF7F9742CF
:103F500005D9DA77184A193A51182039CC77401C1C
:103F6000C0B20628DCD9684605F042FC0028C3D060
:103F7000114A1146193904E02B466D1CEDB2D45498
:103F8000044608192038C07F0028F5D101200A4ACC
:103F9000521E0E994300C95A002907D0CB080D992B
:103FA000C97F895C8B4201D1C0B28AE7401C0628D8
:103FB000EFDD002085E70000B80700202E05002077
:103FC00018000020F8B5044609480026C670611E96
:103FD00038225143074A555C80782946FFF73EFF57
:103FE00000232A461946009407F0E2FC3046F8BD4B
:103FF0001800002008090020004870478020002099
:1040000030B5002300250024146025E0401C002466
:104010000457002C03D0202CF8D100E0401C0024D1
:104020000457002C01D0202CF8D00478002C15D097
:104030005B1C8B4210D1054603E01168491C1160DE
:10404000401C00214156002901D02029F5D11068DB
:10405000002803D1002501E08B42D8D3284630BD8B
:10406000F7B5064601242A4DA86800281AD128462B
:104070001430A86013E0006807683846FCF725F99B
:104080000246B056202801D0002805D139463046D6
:10409000FCF75AF9002817D0A8684068A860A868FB
:1040A0000028E8D1A8680027002801D0002C1DD0E6
:1040B000002824D000683246836802990198984706
:1040C0000446200019D020E0A8680C210068415661
:1040D0000029E7DB30460DF0ABF90146A8680C2259
:1040E000006882569142DDD00024DBE70949029A3C
:1040F0000198FCF7D3F8AF6007E0AF6005E0064930
:10410000029A0198FCF7CAF800242046FEBD000080
:1041100094030020CC7301082474010870B505468F
:10412000002D12D008200DF09FFD0446002C0ED06B
:104130000FF00EF9256000206060064841684C6071
:1041400044600FF011F9012070BD72B6FEE772B63F
:10415000FEE700009403002008B5144842690121DD
:1041600049040A43426142690A4000924269490097
:104170000A43426142690A400092426949000A4387
:10418000426142690A400092426949000A43426121
:1041900042690A400092426989000A4342614069CB
:1041A0000840009002F002FD08BD0000001002402F
:1041B0001CB51E2009F004F904461E212046FCF718
:1041C00056F80849088B4A7D00920190087D8B7D46
:1041D000401E054980000A580449204609F082F82B
:1041E00020461CBDB40C002044020020F447010806
:1041F000F8B50546002426A12846FCF76DF8254EA3
:1042000000280AD024A12846FCF766F8002806D02A
:104210002878232805D0214F22E0B078F8BDFF2070
:10422000F8BD681CFCF70CF9C0B2002802D0717808
:104230008842F5D9B178884201D10846F8BD662098
:10424000F8BD0A206043C1192846FCF745F800284C
:1042500004D12878002801D02046F8BD641CE4B2BF
:1042600070788442EDD300240D4E0A2060438119FA
:104270002846FCF731F8002805D0641CE4B20A2C6B
:10428000F3D36420F8BD2002FE3000B2F8BD000078
:104290006D65000018000020616C6C00D1070020E3
:1042A000CA04002000680D49884201D101207047EE
:1042B0000B49884201D1022070470A49884201D146
:1042C000032070470849884201D1042070470749FC
:1042D000884201D10520704700207047004C004003
:1042E00000440040004800400038014000500040B9
:1042F000F0B5059D1C46002600F094F81D4F0923DB
:10430000DB06B84207D10B60012040021080236019
:10431000400028802BE0184FB84206D10B600420E3
:10432000108023600820288021E0144FB84208D173
:10433000134808600121890211802060480028800C
:1043400015E0104FB84206D10B60012010802360A9
:10435000022028800BE00C4B984207D108480860E7
:104360000821118020601020288000E0FF263046C0
:10437000F0BD0000801A0020F01A0020601B002011
:1043800000040048D01B0020401C002000B587B06E
:10439000002201A9154801F0B9FB002206A9134823
:1043A00001F092FB6946087BC1091148491CC174A0
:1043B0000299C903090CC18169468979017469466A
:1043C000497941746946097981746946897E4175E4
:1043D0006946497E81756946097E01756946C97ECF
:1043E0007D2212018918018307B000BDC00D002095
:1043F000B40C002038B50A2008F0E2FF04460A2178
:104400002046FBF734FF0549087C00904B7C8A7CF2
:104410000349204608F066FF204638BDB40C002052
:104420000648010800B5030008F087FF060E0406E1
:10443000080A0C0E054800BD054800BD054800BD32
:10444000054800BD054800BD002000BDD01B002070
:10445000F01A0020601B0020801A0020401C002061
:1044600000B50179002907D0C268816800F010F812
:10447000002809D0012000BD02680449516100688C
:104480008168182291438160002000BDB71DC104DE
:1044900030B51F2301252C469C400C4202D15B1EE7
:1044A0005C1CF8D1002A11D0082A0BD0102A05D0A4
:1044B000182A0BD1072B09D3012030BD082B05D3B7
:1044C000012030BD102B01D3012030BD036859619C
:1044D000006881681823994311438160002030BD32
:1044E00070B5044600200023257F012D0BD0012547
:1044F000257702266677266A012E10D0022E13D069
:10450000032E15D106E0022070BD83002668CB582B
:104510003360401C9042F8D32068036808E02046CE
:10452000FDF724FE034603E02046FDF705FE0346A3
:10453000657700202077184670BDF8B50446002046
:104540000023257F012D0FD00125257702266677D0
:104550002668B7682F43B760266A012E10D0022E56
:1045600013D0032E15D106E00220F8BD8300266883
:10457000CB583360401C9042F8D32068036808E0B1
:104580002046FDF7F3FD034603E02046FDF7D4FD8A
:1045900003466577002020771846F8BD10B504461D
:1045A000002C03D0607F002802D006E0012010BD5F
:1045B00000202077204600F027F802206077204670
:1045C000FFF74EFF002801D0012010BD60790028C0
:1045D00014D02168206908612068816860229143B5
:1045E0006269114381602068816880229143A269D9
:1045F0001143816001206077002010BD00202168F8
:10460000C0430861E8E7000008B50448426940215A
:104610000A43426140690840009008BD0010024012
:10462000F8B504462068016849084900016000F0B7
:1046300083FD06460027254620350EE000F07CFD70
:10464000811B7D20C000814207D9606B2021084377
:104650006063032068702F70F8BD20680068C00791
:10466000ECD1012068702F700020F8BDF8B5044629
:10467000F749F74DF64EF64F2068CB14783D643E6F
:10468000503F88423FD9F3490A68A84201D1082126
:1046900037E0B04201D1802133E0B84201D1194660
:1046A0002FE0EB493C39884202D10121C90328E0BF
:1046B000E7492839884202D10121C90421E0E449AF
:1046C0001439884202D10121C9051AE0E1490831B3
:1046D000884201D1082114E0DE491C31884201D111
:1046E00080210EE0DB493031884201D1194608E0D3
:1046F000D8494431884202D10121C90301E0012196
:10470000C9040A4044E0D24980390A68A84201D16C
:1047100008213CE0B04201D1802138E0B84201D10B
:10472000194634E0CA493C39884202D10121C90303
:104730002DE0C7492839884202D10121C90426E069
:10474000C3491439884202D10121C9051FE0C0497B
:10475000884201D101051AE0BE490831884201D1E1
:10476000082114E0BB491C31884201D180210EE0B0
:10477000B8493031884201D1194608E0B549443181
:10478000884202D10121C90301E00121C9040A4084
:10479000214620310091002A70D00168C9430907E1
:1047A0006CD40168082291430160A94920688842BD
:1047B0003ED9A84201D1082037E0B04201D1802083
:1047C00033E0B84201D118462FE0A1493C39884274
:1047D00002D10120C00328E09D492839884202D136
:1047E0000120C00421E09A491439884202D10120F5
:1047F000C0051AE097490831884201D1082014E029
:1048000094491C31884201D180200EE09149303119
:10481000884201D1184608E08E494431884202D1CD
:104820000120C00301E00120C0048A49486044E03F
:10483000A84201D108203DE0B04201D1802039E0FA
:10484000B84201D1184635E0814A3C3A904202D143
:104850000120C0032EE07E4A283A904202D1012076
:10486000C00427E07A4A143A904202D10120C005E0
:1048700020E0884203D10120C0061BE02CE07549EE
:104880000831884201D1082014E072491C31884265
:1048900001D180200EE06F493031884201D11846A5
:1048A00008E06C494431884202D10120C00301E094
:1048B0000120C004664980394860606B01210843CB
:1048C0006063009904204870009900200870216BF3
:1048D000002901D0204688475D4920680B15884291
:1048E0003FD95C490A68A84201D1042137E0B042AF
:1048F00001D1402133E0B84201D119462FE054499B
:104900003C39884202D10121890328E050492839E5
:10491000884202D10121890421E04D49143988429D
:1049200002D1012189051AE04A490831884201D1A2
:10493000042114E047491C31884201D140210EE096
:1049400044493031884201D1194608E04149443197
:10495000884202D10121890301E0012189040A4032
:1049600044E03B4980390A68A84201D104213CE077
:10497000B04201D1402138E0B84201D1194634E0BB
:1049800033493C39884202D1012189032DE0304965
:104990002839884202D10121890426E02C491439A2
:1049A000884202D1012189051FE02949884201D1AD
:1049B000C1041AE027490831884201D1042114E0DA
:1049C00024491C31884201D140210EE02149303177
:1049D000884201D1194608E01E494431884202D17B
:1049E0000121890301E0012189040A40002A71D0D4
:1049F0000168C94349076DD40168890603D4016879
:104A000004229143016012492068884242D9A84299
:104A100001D104203AE0B04201D1402036E0B84252
:104A200001D1184632E00A493C39884202D10120BE
:104A300080032BE006492839884202D101208004F6
:104A400024E003491439884206D1012080051DE085
:104A50008000024000040240C949884201D104207C
:104A600014E0C7491431884201D140200EE0C44906
:104A70002831884201D1184608E0C1493C318842BA
:104A800002D10120800301E001208004BC490839E3
:104A9000486042E0A84201D104203BE0B04201D18D
:104AA000402037E0B84201D1184633E0B54A904281
:104AB00002D1012080032DE0B24A1432904202D18B
:104AC0000120800426E0AF4A2832904203D1012021
:104AD00080051FE029E0884202D10120800619E00C
:104AE000A749884201D1042014E0A5491431884225
:104AF00001D140200EE0A2492831884201D1184658
:104B000008E09F493C31884202D10120800301E046
:104B1000012080049B49443948600098112141706C
:104B2000E16A002901D020468847964A20683C3235
:104B300090423FD9924908390B68A84201D102211D
:104B400036E0B04201D1202132E0B84202D1012149
:104B500049022DE08B49884202D10121490327E017
:104B600088491431884202D10121490420E0854955
:104B70002831884202D10121490519E08049884243
:104B800001D1022114E07E491431884201D1202153
:104B90000EE07B492831884201D1411508E078496F
:104BA0003C31884202D10121490301E0012149043D
:104BB0000B4043E0734944390B68A84201D10221FC
:104BC0003BE0B04201D1202137E0B84202D10121BF
:104BD000490232E06B49884202D1012149032CE0AD
:104BE00068491431884202D10121490425E0654910
:104BF0002831884202D1012149051EE0904202D1AC
:104C00000121490619E05E49884201D1022114E0E0
:104C10005B491431884201D120210EE058492831E6
:104C2000884201D1411508E055493C31884202D102
:104C30000121490301E0012149040B40002B72D0FE
:104C40000168C94389076ED40168890603D40168E5
:104C5000022399430160206890423ED9A84201D1C5
:104C6000022036E0B04201D1202032E0B84202D129
:104C7000012040022DE04349884202D10120400337
:104C800027E040491431884202D10120400420E04D
:104C90003C492831884202D10120400519E03849B9
:104CA000884201D1022014E035491431884201D1F3
:104CB00020200EE032492831884201D1401508E019
:104CC0002F493C31884202D10120400301E00120FC
:104CD00040042B490839486043E0A84201D1022032
:104CE0003CE0B04201D1202038E0B84202D101209E
:104CF000400233E02349884202D1012040032DE0E5
:104D000020491431884202D10120400426E01D4987
:104D10002831884202D1012040051FE0904203D192
:104D2000012040061AE029E01549884201D10220FD
:104D300014E013491431884201D120200EE01049BB
:104D40002831884201D1401508E00D493C318842A4
:104D500002D10120400301E0012040040949443907
:104D60004860606B606300990120487000990020E2
:104D70000870A16A002901D020468847F8BD0000CC
:104D80000804024044000240F0B5002806D0014665
:104D900020314A780025002A02D002E00120F0BD2F
:104DA0000D7002224A70026814680B4B1C40866822
:104DB000436807693343C6683E4333434669334318
:104DC00086693343C6693343234313604563012037
:104DD00048700020F0BD00000FC0FFFFF8B504468A
:104DE000204620300578012D1ED0012505700226B1
:104DF000467020680768AF4307602046FEF75AF800
:104E00002068016831430160206801680422114371
:104E10000160206801680822114301602068016870
:104E2000294301600020F8BD0220F8BD31B500F033
:104E300083F9044600F080F90099001B8842F9D3F9
:104E400038BD0000F8B505460F4601262248017E10
:104E500001290BD0012101762868204C012807D0B8
:104E60002046FEF757FF002813D030E00220F8BD9F
:104E70002046FEF74FFF002829D1FEF7FFFE20460F
:104E8000FEF748FF06461648016904229143016176
:104E90001DE00020C04338606C6812E02046FEF739
:104EA000FFFE0E48FEF736FF06460D480169022256
:104EB00091430161300001D03C6008E00120C00254
:104EC0002418A9686868C9024018A042E6D80248B8
:104ED000002101763046F8BD5004002050C3000088
:104EE0000020024003480169802211430161002033
:104EF0007047000000200240F0B51FB40746154679
:104F00001E4600241A48017E012907D0012101769E
:104F10001848FEF7FFFE002803D025E0022005B068
:104F2000F0BD012F03D0022F03D004271AE0012780
:104F300018E0022716E0220128463146FBF746F921
:104F400081B2019862001018FEF7BCFE0948FEF716
:104F5000E1FE09490A69520852000A61002803D19A
:104F6000641CE4B2BC42E6D3014900220A76D6E7CB
:104F70005004002050C30000002002400548016991
:104F8000090605D504494160044941600020704785
:104F9000012070470020024023016745AB89EFCD17
:104FA000F8B5002293E001249440A4462340002B4E
:104FB0007ED04C68022C01D0122C0CD1D408A40055
:104FC00027183D6A5407E40E0F26A640B5430E6924
:104FD000A6402E433E62076855000324AC40A74319
:104FE0000E79B607B60FAE403E4306604E68012EFE
:104FF00005D0022E03D0112E01D0122E0ED18768BB
:10500000A743CE68AE403E43866047686646B743D6
:105010000E79F606F60F96403E434660C668A643F4
:105020008C68AC403443C4604C68E4004ED52B4CD3
:10503000A56901263543A561A4693440009495080B
:10504000274CAD002F19BD689407240F0F26A640EA
:10505000B5430926F606B04201D1002614E0214EE0
:10506000B04201D101260FE01F4EB04201D102260D
:105070000AE01E4EB04201D1032605E01C4EB042AC
:1050800001D1042600E00526A6402E43BE60194D3E
:105090002C689C434E68F60300D51C432C606C685A
:1050A0009C434E68B60300D51C436C60AC6800E0BE
:1050B0000CE09C434E68F60200D51C43AC60EC68E3
:1050C0009C434E68B60200D51C43EC60521C0B6832
:1050D0001C46D44000D066E7F8BD00000010024036
:1050E000000001400004004800080048000C00488F
:1050F00000100048000401400069084201D001206E
:1051000070470020704742694A4042617047002A58
:1051100001D08161704781627047000002480068D9
:105120000005000D7047000000580140014800686C
:10513000000C7047005801400148006870470000AB
:105140001400002002480168491C016070470000FB
:105150001400002010B506480168102211430160B8
:10516000002000F007F800F016F8002010BD000045
:105170000020024010B5044600F0C8F97D21C900A6
:10518000FBF70EF801F02EF800222146501E00F029
:1051900017F8002010BD7047C106C90E01208840D5
:1051A000014908607047000080E100E0C106C90EB7
:1051B00001208840014908607047000000E100E0DC
:1051C00010B502F09BFE10BD024801688215114324
:1051D0000160704700700040F8B5044620683C4DFF
:1051E000C00344D5296A03200002626801400240DE
:1051F00091423CD0E86929040843E861E869084025
:105200000090344F3868091508433860FFF794FF61
:10521000064606E0FFF790FF801B642801D90320B3
:10522000F8BD3868C005F5D5286A03273F02B843A2
:105230002A6A012109040A432A622A6A8A432A62E5
:10524000286280070ED5FFF777FF064607E0FFF7D5
:1052500073FF811B2048814201D90320F8BD286AD1
:105260008007F4D5286A6168B8430843286220782B
:10527000C00705D0286BA168800880000843286318
:105280002078800706D5286B032109048843E1684C
:10529000084328632068400306D5286B032189044E
:1052A00088432169084328632078800605D5286B48
:1052B000102188436169084328632088400505D58B
:1052C000286B40218843A169084328630020F8BD6A
:1052D000001002400070004088130000F8B504463A
:1052E0000F4687480068F021C007C00F854EB842BE
:1052F0007DD283480268520852003A430260006837
:10530000C007C00FB84201D00120F8BD2078800747
:1053100004D570688843A168084370602078C0078E
:1053200039D06068012808D002280BD003280ED09D
:105330003168890710D40120F8BD316889030BD486
:105340000120F8BD3168890106D40120F8BD716BD8
:10535000C90301D40120F8BD71688908890001439F
:105360007160FFF7E9FE05466068012805D0022854
:1053700012D003281FD0644F34E0634F06E0FFF7DC
:10538000DBFE401BB84201D90320F8BD706800075E
:10539000800F0128F3D1A3E05B4F06E0FFF7CCFEBE
:1053A000401BB84201D90320F8BD70680007800F88
:1053B0000228F3D194E0544F06E0FFF7BDFE401BF6
:1053C000B84201D90320F8BD70680007800F032898
:1053D000F3D185E00BE0FFF7AFFE401BB84201D9E7
:1053E0000320F8BD70680007800FF4D178E02078C2
:1053F000800704D570688843A168084370602078EE
:10540000C00760D06068012808D002280BD00328AC
:105410000ED03168890710D40120F8BD31688903A6
:105420000BD40120F8BD3168890106D40120F8BDF4
:10543000716BC90301D40120F8BD71688908890026
:1054400001437160FFF778FE0546606801280CD0C3
:10545000022818D0032824D031E0FFF76DFE411B4D
:105460002948814201D90320F8BD70680007800FE8
:105470000128F2D127E0FFF75FFE411B224881425D
:1054800001D90320F8BD70680007800F0228F2D10F
:1054900019E0FFF751FE411B1B48814201D903204F
:1054A000F8BD70680007800F0328F2D10BE0FFF70A
:1054B00043FE411B1448814201D90320F8BD7068A6
:1054C0000007800FF3D10E480168490849003943AD
:1054D00001600068C007C00FB84201D00120F8BDCC
:1054E0002078400706D57068072109028843E168E3
:1054F000084370600020FFF73DFE0020F8BD00006B
:1055000000200240001002408813000010B500F097
:1055100021F805494968054A0906090F515CC84048
:105520000349086010BD00000010024074450108E6
:105530000000002010B5FFF7E9FF04494968044A5C
:105540004905490F515CC84010BD000000100240E1
:105550007445010830B589B01CA001460EC9C06869
:1055600005AC0EC408901DA001460EC9C06801AC70
:105570000EC404901D4D6A680C20114601401C4861
:10558000042905D01B4B082904D00C2900D118464A
:1055900009B030BD9102090F05AC645CE96A01AD48
:1055A0000907090F695CD203920F022A05D0032A6A
:1055B00007D0FAF7F5FD6043EAE7FAF7F1FD60433B
:1055C000E6E71846FAF7ECFD6043E1E7020304055D
:1055D000060708090A0B0C0D0E0F10100102030438
:1055E00005060708090A0B0C0D0E0F1000100240EB
:1055F00000127A00006CDC02F8B504462078FA4DFF
:10560000C00775D068680007800F012816D0686849
:105610000007800F022804D16868C003800F0228A9
:105620000CD0286801263604B04328602968B000F1
:1056300081432960FFF780FD07460EE0286880035C
:1056400056D56068002853D10120F8BDFFF774FDDE
:10565000C01B642801D90320F8BD28688003F5D455
:105660006068012813D0002815D005281DD02968AE
:105670002846B143296001680122920491430160E8
:105680006068002826D0FFF757FD06461EE029680F
:1056900031432960F4E729682846B143296002684C
:1056A000012189048A430260EAE72A682846012129
:1056B00089040A432A60016831430160E0E7FFF78B
:1056C0003BFD801B642801D90320F8BD28688003B6
:1056D000F5D50DE0FFF730FD064606E0FFF72CFD9F
:1056E000801B642801D90320F8BD28688003F5D405
:1056F00020780126800700284BDA68680007800FB1
:1057000013D068680007800F022804D16868C003BE
:10571000800F012809D0E068002828D0286830438D
:105720002860FFF709FD074616E02868800704D5C2
:10573000E068012801D00120F8BD2868F8218843DD
:105740002169C9000843286023E0FFF7F5FCC01B6E
:10575000642801D90320F8BD28688007F5D528689A
:10576000F82188432169C9000843286011E02868AE
:10577000400840002860FFF7DFFC074606E0FFF71F
:10578000DBFCC01B642801D90320F8BD2868800712
:10579000F5D42078000726D5206A002811D0686A41
:1057A00030436862FFF7C8FC074606E0FFF7C4FC19
:1057B000C01B642801D90320F8BD686A8007F5D5AD
:1057C00011E0686A400840006862FFF7B5FC0746D0
:1057D00006E0FFF7B1FCC01B642801D90320F8BD27
:1057E000686A8007F5D4207840077BD5E9690120F5
:1057F00000070143E961E969014000917B480168C4
:10580000821511430160FFF797FC074606E0FFF79A
:1058100093FCC01B642801D90320F8BD73480068BD
:10582000C005F4D5286A400840002862296A04208F
:1058300081432962FFF780FC074607E0FFF77CFC05
:10584000C11B6B48814201D90320F8BD286A80073B
:10585000F4D4A068012813D0002815D005281DD045
:10586000296A2846490849002962026A04218A43B4
:105870000262A068002826D0FFF75EFC07461EE003
:10588000296A31432962F4E7296A28464908490010
:105890002962026A04218A430262EAE7296A2846E9
:1058A000042211432962016A31430162E1E7FFF7F3
:1058B00043FCC11B4E48814201D90320F8BD286A30
:1058C0008007F4D50EE0FFF737FC074607E0FFF747
:1058D00033FCC11B4648814201D90320F8BD286A28
:1058E0008007F4D42078C00643D5606901280DD024
:1058F000401D28D0686B042108436863686B40082A
:1059000040006863FFF718FC06462FE0686B04212F
:1059100008436863686B30436863FFF70DFC064615
:1059200006E0FFF709FC801B642801D90320F8BDBD
:10593000686B8007F5D5686BF8218843A169C900B9
:105940000843686315E0686B042188436863686BEB
:10595000F8218843A169C9000843686309E0FFF79B
:10596000EBFB801B642801D90320F8BD686B80071E
:10597000F5D42078800647D568680007800F032893
:1059800015D068680007800F022804D16868C0033A
:10599000800F03280BD0E06900281BD0686B012121
:1059A000090408436863FFF7C7FB06460EE0686B0F
:1059B000C00329D5E069012826D00120F8BDFFF7F2
:1059C000BBFB801B642801D90320F8BD686BC003B2
:1059D000F5D519E0686B0121090488436863FFF776
:1059E000ABFB06460DE000000010024000700040D6
:1059F00088130000FFF7A0FB801B642801D9032057
:105A0000F8BD686BC003F5D4606A00284BD06968A4
:105A10000907890F022948D001273F06022806D02E
:105A20002868B8432860FFF787FB044638E02868F9
:105A3000B8432860FFF780FB064606E0FFF77CFBD3
:105A4000801B642801D90320F8BD28688001F5D4A3
:105A5000E86A216B000900010843E862A16AE06A74
:105A6000084369687B22D203914308436860286831
:105A700038432860FFF760FB044606E0FFF75CFB55
:105A8000001B642801D90320F8BD28688001F5D5E2
:105A900009E0FFF751FB001B642801D90320F8BD82
:105AA00028688001F5D40020F8BD0120F8BD006809
:105AB000503089000818006870470068503089002D
:105AC000081802607047000010B50B460068416876
:105AD0000D480140080CD870CC04E40E5C708C06B4
