:020000040800F2
:100000000080002025E10008B1E1000891CD000842
:1000100000000000000000000000000000000000E0
:100020000000000000000000000000002907010897
:100030000000000000000000DD07010885CD000879
:10004000B1E10008B1E10008B1E10008B1E1000848
:10005000B1E10008B1E10008B1E10008B1E1000838
:10006000B1E10008E9CD0008F5CD00082DCE00086B
:10007000B1E10008B1E10008B1E10008B1E1000818
:10008000B1E10008B1E10008B1E10008B1E1000808
:10009000B1E1000895CD0008B1E10008B1E1000828
:1000A000B1E10008B1E10008B1E10008A5CD000808
:0C00B000B5CD0008C5CD0008B1E1000886
:1000BC0010B5064C2378002B07D1054B002B02D032
:1000CC00044800E000BF0123237010BD800A00200B
:1000DC000000000080A10108044B10B5002B03D0D8
:1000EC000349044800E000BF10BDC04600000000FA
:1000FC00840A002080A1010802780B78002A03D022
:10010C00013001319A42F7D0D01A70470023C25CFB
:10011C000133002AFBD1581E7047000002B471460F
:10012C0049084900095649008E4402BC7047C04634
:10013C0002B4714649084900095C49008E4402BC6E
:10014C007047C04603B47146490840004900095E37
:10015C0049008E4403BC704703B471464908400003
:10016C004900095A49008E4403BC704700224308D9
:10017C008B4274D303098B425FD3030A8B4244D363
:10018C00030B8B4228D3030C8B420DD3FF220902A5
:10019C0012BA030C8B4202D31212090265D0030B64
:1001AC008B4219D300E0090AC30B8B4201D3CB035A
:1001BC00C01A5241830B8B4201D38B03C01A52419C
:1001CC00430B8B4201D34B03C01A5241030B8B429E
:1001DC0001D30B03C01A5241C30A8B4201D3CB0289
:1001EC00C01A5241830A8B4201D38B02C01A52416E
:1001FC00430A8B4201D34B02C01A5241030A8B4271
:10020C0001D30B02C01A5241CDD2C3098B4201D388
:10021C00CB01C01A524183098B4201D38B01C01A06
:10022C00524143098B4201D34B01C01A524103097D
:10023C008B4201D30B01C01A5241C3088B4201D32C
:10024C00CB00C01A524183088B4201D38B00C01AD9
:10025C00524143088B4201D34B00C01A5241411A00
:10026C0000D20146524110467047FFE701B500200D
:10027C0000F0F0F802BDC0460029F7D076E77047D1
:10028C0003460B437FD4002243088B4274D30309EB
:10029C008B425FD3030A8B4244D3030B8B4228D38C
:1002AC00030C8B420DD3FF22090212BA030C8B42B2
:1002BC0002D31212090265D0030B8B4219D300E052
:1002CC00090AC30B8B4201D3CB03C01A5241830BD7
:1002DC008B4201D38B03C01A5241430B8B4201D387
:1002EC004B03C01A5241030B8B4201D30B03C01AB0
:1002FC005241C30A8B4201D3CB02C01A5241830A2A
:10030C008B4201D38B02C01A5241430A8B4201D358
:10031C004B02C01A5241030A8B4201D30B02C01A82
:10032C005241CDD2C3098B4201D3CB01C01A5241E9
:10033C0083098B4201D38B01C01A524143098B4272
:10034C0001D34B01C01A524103098B4201D30B015B
:10035C00C01A5241C3088B4201D3CB00C01A524180
:10036C0083088B4201D38B00C01A524143088B4245
:10037C0001D34B00C01A5241411A00D201465241DE
:10038C00104670475DE0CA0F00D04942031000D3FD
:10039C004042534000229C4603098B422DD3030A52
:1003AC008B4212D3FC22890112BA030A8B420CD362
:1003BC00890192118B4208D3890192118B4204D38B
:1003CC0089013AD0921100E08909C3098B4201D30B
:1003DC00CB01C01A524183098B4201D38B01C01A45
:1003EC00524143098B4201D34B01C01A52410309BC
:1003FC008B4201D30B01C01A5241C3088B4201D36B
:10040C00CB00C01A524183088B4201D38B00C01A17
:10041C005241D9D243088B4201D34B00C01A5241EE
:10042C00411A00D20146634652415B10104601D37B
:10043C004042002B00D54942704763465B1000D305
:10044C00404201B5002000F005F802BD0029F8D0AB
:10045C0016E770477047C046D0400B1CD1409C46F5
:10046C00203AD34018435242634693401843704796
:10047C008446101C62468C46191C634600E0C0463C
:10048C001FB501F09BFD002801D40021C8421FBDFF
:10049C0010B501F0F3FC4042013010BD10B501F075
:1004AC008DFD002801DB002010BD012010BDC046D1
:1004BC0010B501F083FD002801DD002010BD0120E6
:1004CC0010BDC04610B501F015FD002801DC002060
:1004DC0010BD012010BDC04610B501F00BFD002869
:1004EC0001DA002010BD012010BDC0468446081C56
:1004FC006146FFE71FB500F0FDFA002801D400218A
:10050C00C8421FBD10B500F07FFA4042013010BD4B
:10051C0010B500F0EFFA002801DB002010BD01201F
:10052C0010BDC04610B500F0E5FA002801DD002032
:10053C0010BD012010BDC04610B500F08DFA00288A
:10054C0001DC002010BD012010BDC04610B500F02C
:10055C0083FA002801DA002010BD012010BDC0462E
:10056C00002B11D1002A0FD1002900D1002802D074
:10057C000021C943081C07B4024802A1401802908C
:10058C0003BDC046D1FEFFFF03B4684601B5029817
:10059C0000F066F8019B9E4602B00CBC7047C0464A
:1005AC00F0B5CE46474615042D0C2E0080B5070439
:1005BC00140C3F0C9946030C7E435D436743634325
:1005CC007F19340CE4199C46A54203D980235B02A5
:1005DC009846C4444B4643435143250C360465446A
:1005EC00360C2404A4195B19591820000CBC904635
:1005FC009946F0BD9E2110B5C905041CFFF7A6FF56
:10060C00002803D1201C00F0BBFD10BD9E21201C36
:10061C00C90500F0F1FB00F0B3FD80231B069C46DE
:10062C006044F2E770B500220C4B04000D00FFF79C
:10063C0053FF002804D12000290002F0FDFA70BD00
:10064C00064B00222000290001F092FF02F0F4FA80
:10065C0080231B069C466044F1E7C0460000E04145
:10066C00F0B54F464646D646C0B5040082B00D00E4
:10067C00914698468B422FD82CD04146484602F0E2
:10068C0071FC29000600200002F06CFC331A9C4619
:10069C00203B9A4600D576E04B46524693401F00CD
:1006AC004B46624693401E00AF4228D825D0534695
:1006BC00A41BBD41002B00DA7BE00022002300923A
:1006CC0001930123524693400193012362469340C8
:1006DC00009318E08242D0D90022002300920193AB
:1006EC000A9B002B01D01C605D600098019902B040
:1006FC001CBC90469946A246F0BDA342D7D9002215
:10070C000023009201936346002BE9D0FB07984627
:10071C00414672080A437B0866460EE0AB4201D1A3
:10072C00A2420CD8A41A9D41012024196D4100212C
:10073C00013E24184D41002E06D0AB42EED9013EAD
:10074C0024196D41002EF8D10098019953460019D7
:10075C006941002B23DB2B005246D3402A00644610
:10076C00E2401C0053461500002B2DDB260057469B
:10077C00BE40330026006746BE403200801A9941C5
:10078C0000900191ACE7624620239B1A4A46DA405E
:10079C006146130042468A4017001F4380E76246B9
:1007AC0020239B1A2A0066469A402300F3401343E9
:1007BC00D4E76246202300219B1A0022009101926B
:1007CC000122DA40019280E72023624626009B1A20
:1007DC00DE402F00B0466646B74046463B003343EA
:1007EC00C8E7C046F8B557464E464546DE46440275
:1007FC00E0B546008846640A360EC70F002E63D05B
:10080C00FF2E24D08023E400DB041C4300239946F4
:10081C009B467F3E434642465D02D20F5B006D0A0B
:10082C001B0E9046924665D0FF2B55D0802200219E
:10083C00ED00D2047F3B1543F61A43464A467B40F3
:10084C000F2A00D98DE06D48920082589746002CF3
:10085C0054D108239946063BFF269B46DAE7002530
:10086C00534602291BD0032900D1BFE0012928D00F
:10087C0030007F30002820DD6A0704D00F222A4088
:10088C00042A00D004352A0103D530005C4A80309C
:10089C001540FE2803DCAC01640AC2B201E0FF2261
:1008AC0000246402D205600ADB07104318433CBCE9
:1008BC0090469946A246AB46F8BD0122101A1B2859
:1008CC007CDD00220024ECE7002C1DD1042399468A
:1008DC00033B00269B469DE7FF3E002D20D10221C5
:1008EC0043464A467B400A430F2AD8D845489200D3
:1008FC0082589746002D19D10121F1E70C23994616
:10090C00093BFF269B4685E7200002F00DFB76266F
:10091C00431F9C4000237642361A99469B4679E742
:10092C004A4603231A439146032186E7280002F026
:10093C00FBFA431F36189D40763600217DE7802454
:10094C000023E403FF22ACE700258023DB031C42D9
:10095C0028D01D4226D12B435C02640A4346FF2259
:10096C009FE762016C01A24224D21B210025013EAB
:10097C00012710006D005200002801DB944201D8C1
:10098C00121B3D4301390029F3D11400621E94411E
:10099C0025436DE7BA46594625005346022900D037
:1009AC0061E77CE78023DB031C436402640A3B00A1
:1009BC00FF2276E7121B1A210125D9E79E362A0061
:1009CC00B5402C00C240651EAC411443620704D0F4
:1009DC000F222240042A00D00434620103D4A40163
:1009EC00640A00225DE7012200245AE78024E40314
:1009FC002C436402640AFF2253E7C046C8A10108D5
:100A0C00FFFFFFF708A2010870B542004E024C0030
:100A1C0045026D0A120EC30F760A240EC90FFF2A67
:100A2C000FD0FF2C11D00120A24200D070BDB542D6
:100A3C00FCD18B420DD0002AF8D12800451EA841CC
:100A4C00F4E70120002DF1D1EBE70120002EEDD1D0
:100A5C00E9E70020EAE7C04670B54A004E024502BD
:100A6C0044006D0A240EC30F760A120EC90FFF2C18
:100A7C0015D0FF2A0ED0002C15D1002A01D1002E42
:100A8C001CD0002D14D08B4227D00220013B1840E3
:100A9C00013870BD002EEED002204042F9E7002D47
:100AAC00FAD1FF2A0ED0002A0ED1002EEDD00BE089
:100ABC0001230139994308000130EAE70020002D99
:100ACC00E7D0E2E7002EE7D18B42DED1944205DD80
:100ADC000221581E08400138DBE70024A24204DC46
:100AEC00B542D2D80020B542D3D2581E0123984328
:100AFC000130CEE730B5420044024D02C30F48002E
:100B0C00640A120E6D0A000EC90FFF2A12D0FF28BC
:100B1C000CD0002A12D1002819D1002D17D1002C8D
:100B2C002BD00220013B1840013826E0002DF0D0DC
:100B3C00022022E0002CFBD1FF281FD000281FD15F
:100B4C00002D1DD10220013B1840013815E0002C6E
:100B5C000ED08B42E5D10022904204DCAC42E0D8AE
:100B6C000020AC4209D2581E01239843013004E006
:100B7C000123013999430800013030BD002DD7D134
:100B8C008B42CED18242E7DD0221581E084001384B
:100B9C00F3E7C046F0B54E4657464546DE46E0B54F
:100BAC0043025B0A450083B00F1C99462D0EC60FFD
:100BBC00002D57D0FF2D24D08020DB00C00418431B
:100BCC00002381469A469B467F3D7C027A00FB0FB0
:100BDC00640A120E984623D0FF2A4BD0E3008024DF
:100BEC000020E4047F3A1C43AD186B1C474601936C
:100BFC00534677403A000F2B48D87D499B00CB5881
:100C0C009F46002B00D085E008339A46063B9B4656
:100C1C007C027A00FB0FFF25640A120E9846DBD18A
:100C2C00002C00D090E0524601231A43924601203A
:100C3C00DBE74C4658461700022824D0032800D185
:100C4C00CFE00022002301284DD15802D205400AE2
:100C5C00FF071043384303B03CBC90469946A2466C
:100C6C00AB46F0BD002B5BD104239A46033B002519
:100C7C009B46AAE7FF35002C60D1524602231A434B
:100C8C0092460220B1E7FF220023DEE74B461B0C05
:100C9C009C464B462604360C180461463300220C45
:100CAC006446000C43434E435043544380191A0C82
:100CBC001218964203D9802149028C4664441B04C5
:100CCC001B0C1004C01883015E1EB341800E184328
:100CDC00130C1B199B0103431C00230179D5012321
:100CEC0062081C401443019A7F32002A4DDD6307D1
:100CFC0004D00F232340042B00D00434230103D54C
:100D0C003C4B019A1C408032FE2ABCDCA3015B0ADE
:100D1C00D2B29AE70C239A46093BFF259B4654E72F
:100D2C00180002F001F94A46431F76259A40002329
:100D3C006D4291462D1A9A469B4646E7524603232E
:100D4C001A439246032050E7200002F0EDF8431FAF
:100D5C002D1A9C40763D002047E780230027DB03BB
:100D6C00FF2272E7424666E74C463200584662E77D
:100D7C0080234A46DB031A4222D01C4220D1234353
:100D8C005B025B0A4746FF225FE701239A1A1B2A84
:100D9C0021DC23000199D3409E318C401A002300A2
:100DAC005C1EA34113435A0704D00F221A40042A95
:100DBC0000D004335A0111D49B015B0A002244E792
:100DCC0080234A46DB0313435B025B0A3700FF2296
:100DDC003BE7019587E70022002336E70122002339
:100DEC0033E78023DB0323435B025B0AFF222CE700
:100DFC0048A20108FFFFFFF7F8B54746CE4644006E
:100E0C00C20F80B547024802400A84466646480035
:100E1C007F0A240EF60025009046FB00000EC90F39
:100E2C00B146FF2800D185E001267140261A914277
:100E3C0057D0002E43DD002800D07FE04946002922
:100E4C0000D1AAE0013E002E00D0F7E05B1A5A0157
:100E5C0000D48BE09B019C09200002F065F805385A
:100E6C008440854200DDD3E0451B23002020013562
:100E7C00EB40451BAC40621E9441234307240025E4
:100E8C001C40012241460A40002C04D00F2119407D
:100E9C00042900D00433590100D480E00135ECB2B0
:100EAC00FF2D00D0A3E0FF2400235B02E405580AC9
:100EBC00D207204310430CBC90469946F8BD002E37
:100ECC0074D1601CC0B2012800DCA7E04A469C1A11
:100EDC00620100D5B6E0002CBED100220024002314
:100EEC00E3E7002E00DC85E0002846D0FF2C49D03B
:100EFC0080224846D2041043814601221B2E09DC75
:100F0C0020204C46801B84404A462000F240441E60
:100F1C00A04102439B185A0128D50135FF2D00D161
:100F2C00A8E00122072494491A405B080B401343A4
:100F3C001C40A6E7002E00D078E775E7FF2C54D0B4
:100F4C0080224946D2041143894601221B2E09DC1A
:100F5C0020214846891B88404A460100F240481E21
:100F6C0081410A439B1A5A0100D573E7012241467D
:100F7C000A40590700D089E711E04846002858D1AB
:100F8C00FF2C0CD1DB08002B00D18CE78020C00398
:100F9C0003435B025B0AFF2487E7FF2C25D0DB08A9
:100FAC00FF2DF0D05B025B0AECB27EE7002C4DD03B
:100FBC00FF2818D08024E404724223431B2A00DD4E
:100FCC00C4E01C002025D440AA1A93405A1E934119
:100FDC0023434A460500D31A884638E7721CF8D0DA
:100FEC00F243FF28EAD10A004B46FF25D7E79B01C5
:100FFC005B0A5AE7002E41D1651CE9B2012945DD97
:10100C00FF2D00D14FE707244B445B081C4038E709
:10101C0007225A4B2D1A2340144032E7002C1DD1C5
:10102C00002B7AD14B46002B00D191E00A00002511
:10103C00B5E7013E002E19D14B446CE7FF2C84D14F
:10104C00FF25ACE74A468846D41A05E7002BC5D1E4
:10105C000A00FF28C8D005004B46A0E7002B49D159
:10106C004B46002B77D00A00FF2598E7FF2C00D0C9
:10107C0043E787E70A00FF24002316E7002C15D16D
:10108C00002B57D1FF28E6D14B467BE7002C20D113
:10109C00002B57D04946002953D04B445A0168D5F0
:1010AC000724364A1C4001251340EAE6FF28EBD002
:1010BC008022D204764213431B2E53DC2025AD1B19
:1010CC001A00AB40F2405C1EA34113434B44050095
:1010DC0021E7002BD8D04946002900D152E78021C6
:1010EC00C9030F4200D14DE76046084200D049E7E2
:1010FC004B4647E74846FF25002800D14FE78022A2
:10110C00D203174204D06046104201D14B468846A8
:10111C0001224146FF250A4041E7484600281FD0DE
:10112C001A1A500120D54A460724D31A1C40884667
:10113C000025A6E6741CC9D0F643FF28BCD14B464B
:10114C0020E799464B460025DB082BE7012340E7B7
:10115C0000220023A9E680230022DB03FF24A4E65F
:10116C0000251CE70123B1E7002AF1D0130000256C
:10117C00FCE60025FAE6C046FFFFFF7DFFFFFFFB04
:10118C0041024200C30F490A120E00207E2A0DD9DB
:10119C009D2A0CD8802000040143952A0ADC962055
:1011AC00821AD1404842002B00D108007047034AF4
:1011BC009818FBE7963A9140F4E7C046FFFFFF7F93
:1011CC0070B5041E34D001F0AFFE9E22121A962A7E
:1011DC0007DCD2B208282EDD083884406002400AB1
:1011EC0021E0992A09DD030021001B3399404B1E95
:1011FC00994105231B1ADC400C43052801DD431FD4
:10120C009C4023000D490B40650709D00F252C404D
:10121C00042C05D004335C0102D59F220B40121A1A
:10122C009B01580AD2B24002D205400A104370BD4D
:10123C0000220020F7E76002400AF4E7FFFFFFFB03
:10124C00F0B54F464646D6460C000903C0B5490AD0
:10125C00470F5E0039431F03DB0F9C4665007B0A7A
:10126C00570F1F436D0DE40F760DA146C000B84615
:10127C00D200AB1B64457BD0002B5FDD002E00D071
:10128C00A4E03E00164300D112E15E1E002E00D0F9
:10129C009EE1871A4346B84280410125C91A404253
:1012AC00091A0B0200D431E149024E0A002E00D17A
:1012BC006EE1300001F038FE0300083B1F2B00DD0F
:1012CC0061E120223900D21A9E40D1409F400E434A
:1012DC009D4200DD51E15D1B6B1C1F2B00DD7CE191
:1012EC002021C91A3D0030008F408840DD40791E16
:1012FC008F41310007222843D940002507433A404B
:10130C00002A09D00F233B40042B05D03B1DBB42C8
:10131C00BF417F42C9191F000B0200D426E26A1C90
:10132C00C64B55056D0D9A4200D106E1C44AFF0823
:10133C000A40530752023B43120B8EE0002B00D0A5
:10134C00B8E06B1C5B055B0D012B00DC30E1871AF0
:10135C004346B842B641CB1A76429E1B330200D5A7
:10136C004CE13B003343A1D100220024002570E066
:10137C00002B00DCE5E0002E00D183E0AF4EB5423F
:10138C0060D0802636043743B846382B00DC3EE16B
:10139C00434613431F007A1E97413F1887428041F2
:1013AC00404209180B0200D4B0E0A44B01359D4219
:1013BC0000D1C3E0A24A7B080A4001210F401F4321
:1013CC005108D30707221F433A4099E79B4EB54279
:1013DC0038D0802636043743B846382B00DDDCE0A5
:1013EC001F2B00DC30E11E004746203EF740BC4678
:1013FC00202B04D04026F31A46469E403243170059
:10140C0063467A1E97411F43CCE0002B00D104E2C7
:10141C004346134300D159E14B07C00818438023BE
:10142C00C9081B03194208D04546ED081D4204D1DA
:10143C004346D008590708432900420FC9007F4D85
:10144C001143C0004B07CA087C49C00803438D42B6
:10145C0068D012036D05120B6D0D002112031800DC
:10146C00130B0A0D12051A43764B2D0513402B4313
:10147C005B00E4075B08234319001CBC90469946AB
:10148C00A246F0BD3E00164312D05E1E002E00D0C8
:10149C0000E18718874280414144404209180125E8
:1014AC000B0233D5022585E7644633004146100014
:1014BC001D00C7E7002D00D0DAE00C000443F3D088
:1014CC005C1C00D19FE15D4CA64200D12FE1DB43B7
:1014DC00382B00DD66E11F2B00DD83E120240500A5
:1014EC00E41A0F00DD40D940A0404346A7405B1AE8
:1014FC00441EA04198462F433843171ABA429241D2
:10150C0043465242991A64463500CAE607223A40CD
:10151C00002A00D0F6E64B07CA084849FF083B43AF
:10152C008D4296D11900114300D19EE1802109030F
:10153C000A431203120B414D8FE7150000220023C2
:10154C008BE7002B00D0C7E06B1C5F057F0D012FD4
:10155C0000DCF1E0394DAB4200D1B9E085180A004E
:10156C00854289414244494251180722CF076D08F0
:10157C002F4349083A401D00C2E607223049ED1AB4
:10158C0031403A40BCE63E002838864000279FE6B2
:10159C00380001F0C9FC20308EE6434613431F008F
:1015AC007A1E9741C71BB84280414042091A78E61F
:1015BC000E003B0006431343002D61D1002E00D0DA
:1015CC00F4E0002B00D11BE164463900100039E730
:1015DC001A4FBB427AD03300FFE630001F3DE84083
:1015EC00202B03D04021CB1A9E4037437B1E9F41BA
:1015FC00072207433A400021002589E7171A434682
:10160C00BA42B641591A76428E1B64464EE61F2BDF
:10161C0000DDADE020264746F61AB740B946170064
:10162C00B246DF404E463E4337005646B240561E49
:10163C00B24117434246DA408918AEE6FF07000074
:10164C00FFFF7FFFFFFF0F8020264746F61AB740AB
:10165C00B9461700B246DF404E463E433700564669
:10166C00B240561EB24117434246DA40891A99E7F6
:10167C007F4CA6425BD0802424045B42214327E7A5
:10168C00002E0CD1002B00D1CBE0644639001000A9
:10169C00774DD7E6764FBB4218D0330075E6002B5A
:1016AC0014D04B07C00818438023C9081B031942E8
:1016BC0007D0FC081C4204D17907D0080843E14646
:1016CC0021004C46420FC9001143C000684DB9E6D9
:1016DC001D0000220023C0E6002D5BD10D00054348
:1016EC0000D1E2E65D1C00D1B0E0614DAE421FD0EE
:1016FC00DB43382B71DC1F2B00DD96E020250F001F
:10170C00ED1AAF40B9460700AA46DF404D463D43AF
:10171C002F005546A840D940451EA8418844074390
:10172C00BF18974292415142414435003AE6644613
:10173C0035004146100085E60B000343002D00D018
:10174C0063E6002BF5D04346134300D17AE68718A5
:10175C008742804107224144404209183A400B021B
:10176C0000D4D5E6434B01351940C9E5380069E68C
:10177C001E004746203EF740BC46202B04D0402696
:10178C00F31A46469E403243170063467A1E974131
:10179C001F4302E6364DAE42CAD080252D045B4273
:1017AC002943A6E70843411E8841A6E6002B00D139
:1017BC0048E6871A4346B842B641CB1A76429E1B7E
:1017CC0033024BD5171A4346BA429241591A524228
:1017DC00891A072264463A4092E501430F00791EAC
:1017EC008F419DE71C000F00203CE740202B03D0CD
:1017FC004024E31A99400843411E884138437CE653
:10180C000022002425E6171A4346BA429241591A7F
:10181C005242891A6446350043E541461000144D86
:10182C0010E680220024120380E61D000F00203DEC
:10183C00EF40BC46202B03D04025EB1A99400843BF
:10184C0007006346781E87411F4369E78718974254
:10185C009B4141445B42C9183500A3E53B0033432F
:10186C00CED0072231003A4052E600231A00F4E5AC
:10187C00FF070000FFFF7FFFF0B55746DE464E46E0
:10188C004546E0B5834607000E03480085B09246F6
:10189C001C00360B400DCD0F002800D19DE0954B60
:1018AC00984239D08023F6001B041E43924A7B0FCA
:1018BC003343994694460300634400930023002667
:1018CC00FF00029323031B0B98466300E40F524660
:1018DC005B0D019400D1B3E086498B4200D19EE0B0
:1018EC004246D100802212040A435146490F11434B
:1018FC008B46814952468C4600996344CB1A002191
:10190C00D20000932B0063409A460F2E00D905E1BC
:10191C007A4BB6009B599F465B463343994600D0A1
:10192C00B8E002230826002700900293CAE7CB46B2
:10193C003A0002990195019B9A46022927D0032966
:10194C0000D180E2012944D06D49009B8C46634450
:10195C001C00002C38DD530700D013E2D2085B4684
:10196C00DB0109D55946674B19408B468021C900CC
:10197C008C46009B63441C00634B9C4207DC5B461B
:10198C0064055F075B0217431B0B620D02E000232B
:10199C000027584A00211B031C0B0B0D1B0523436E
:1019AC0014055A4A380013401C4353466400DB07A5
:1019BC0064081C43210005B03CBC90469946A246E5
:1019CC00AB46F0BD0122524201231B1B382B00DC1D
:1019DC00ADE1002200230027DCE75B463343994648
:1019EC005ED0002E00D18AE1300001F09DFA030098
:1019FC000B3B1C2B00DD7BE11D22D31A5A46010048
:101A0C00DA4008398E4013005F46334399468F40C5
:101A1C003F4B00261B1A00930023029352E74146CA
:101A2C0053460B433B499B468C46009B63440093B7
:101A3C005B46002B3BD1022300221E43022161E7AF
:101A4C00434613439B4637D04346002B00D162E1FB
:101A5C00404601F069FA03000B3B1C2B00DD53E1FF
:101A6C0002004146083A914088461D21CB1A514646
:101A7C00D9400B0041460B439B46534693401A00FA
:101A8C00009B25499C46604403008C4663440093AC
:101A9C00002137E70323B14600900C26029311E78F
:101AAC000023009301330426002702930AE7032343
:101ABC00C3461E43032125E701331E4300220121A7
:101ACC0020E700239A46802300271B03094A61E77D
:101ADC00802349461B03194200D1E2E059461942C2
:101AEC0000D0DEE00B431B0317001B0BA246014A80
:101AFC0050E7C046FF07000001FCFFFF88A2010869
:101B0C00FF030000FFFFFFFEFE070000FFFF0F803A
:101B1C000DFCFFFF01F8FFFFF3030000D94500D9CE
:101B2C00CBE000D1C6E03C0048460027009B013BBF
:101B3C0000935B46160E1B021E4313029846330499
:101B4C001B0C9946310C0191FEF796FB4A46424319
:101B5C000B04210C050019438A4207D98919013D50
:101B6C008E4203D88A4201D9851E8919881A019997
:101B7C00FEF782FB09048C464A4621046446424324
:101B8C00090C030021438A4204D98919013B8E4276
:101B9C0000D8F1E02D041D43AB464346891A42465A
:101BAC00280C12041D0C5B46140C22001B041B0C8D
:101BBC005A4303946B434443029568431B19150C19
:101BCC00EB189C4203D980246402A44660441C0C8C
:101BDC0015041B042D0C20185D19814277D373D08A
:101BEC000C1AA24A7D1BAF42BF419446009B7F4218
:101BFC006344E01B1C00864200D1DBE00199FEF738
:101C0C003BFB4A4642430B04290C070019438A420A
:101C1C0007D98919013F8E4203D88A4201D9871E00
:101C2C008919881A0199FEF727FB09044A46894647
:101C3C0029044D464243090C030029438A4207D923
:101C4C008919013B8E4203D88A4201D9831E891916
:101C5C003F04891A3A00039F1A43380013041B0CE3
:101C6C00584381460298150C6F43434345434846FD
:101C7C00000C8446DB1963449F4203D98020400248
:101C8C008446654448461F0C00041B04000C7D1957
:101C9C001818A94200D284E000D17FE001231A4336
:101CAC0057E680234A461B0313431B031B0BAA4610
:101CBC006F4A6FE6BA4200D935E74B46DC07580845
:101CCC007B081C43FF0734E70024AF4289D247440A
:101CDC004745A4415B466442A4196418013BA642E3
:101CEC001ED2A0426DD800D1B6E0241A9B4678E7EC
:101CFC0003005A46283B9A400027914688E65846EE
:101D0C0001F012F9203072E603005246283B9A404B
:101D1C0093460022B4E6504601F006F920309AE6CC
:101D2C00A642E2D1B845DCD9341A9B4659E71F2BA1
:101D3C0065DC504C0099A4465C46614408008C401C
:101D4C0011008240D940501E82410C4314435A4624
:101D5C00DA401300620709D00F222240042A05D072
:101D6C002200141D9442894149425B181A0262D523
:101D7C000122002300270DE68A4200D80AE7831EC1
:101D8C00891907E70F231340042B00D1E6E5171D33
:101D9C009742924153429B44FA08E0E5002800D157
:101DAC00D7E57118531EB14227D3A94215D358D089
:101DBC001A0073E7002B00DC04E6012300229B448D
:101DCC00CDE502234744474589415B429C46494245
:101DDC0089190C19E344241A03E743465F0047456D
:101DEC009B41B8465B429E19023A8919A94200D020
:101DFC0054E7404500D051E7ABE51A00F6E71F2148
:101E0C005F4649420C1BE740202B07D01A49009B28
:101E1C008C46634418005B4683401A43501E824133
:101E2C003A4307270023174009D00F210023114004
:101E3C001400042995D122005F075B021B0BD2080A
:101E4C0017430022A6E5802359461B030B431B03B3
:101E5C0017001B0B064A9DE5BD42B2D89B460024D9
:101E6C00BFE68045B9D31A00C3E7C046FF030000A4
:101E7C00FF0700001E0400003E040000F0B54F46B2
:101E8C004646D6468446C0B58046194E18030F0305
:101E9C004D00000B5C0082463F0B6D0DC90F914647
:101EAC00640DDB0F0120B5420AD0B44203D0A54229
:101EBC0001D157450CD01CBC90469946A246F0BDAA
:101ECC0066463E43F7D1AC42F5D154461443F2D1A9
:101EDC000120C845EFD1994207D0002DEBD16346C4
:101EEC001F433800471EB841E5E70020E3E7C04632
:101EFC00FF070000F0B54F464646D6464D00C0B52C
:101F0C000E03C90F8A462C491F035C008046360B12
:101F1C006D0D91463F0B640DDB0F8D421ED08C4234
:101F2C0016D0002D1ED130438446002C01D13A43EB
:101F3C0023D06246002A1AD09A4529D05146022055
:101F4C000139084001381CBC90469946A246F0BDA8
:101F5C0039001143E5D002204042F4E73043FAD176
:101F6C00AC420FD0002C0FD13A43E7D00CE0012249
:101F7C00013B934318000130E5E763460020002B3A
:101F8C00E1D0DBE73A43E6D19A45D7D1A542D5DC7F
:101F9C00A54205DBBE42D1D808D00020BE42D2D229
:101FAC0050460123013898430130CCE7C845C5D8C9
:101FBC000020C845F4D3C6E7FF070000F0B54F4634
:101FCC004646D6464D00C0B50E03C90F8A462E496B
:101FDC001F035C008046360B6D0D91463F0B640D64
:101FEC00DB0F8D4218D08C4211D0002D18D130430C
:101FFC008446002C1ED13A431CD163460020002B92
:10200C0030D0514602200139084001382AE039000D
:10201C001143EAD0022025E03043FBD1AC4226D05C
:10202C00002C26D13A4324D15146022001390840D4
:10203C00013817E06246002A0FD09A45E1D1A5423B
:10204C0005DBBE42DDD819D00020BE420AD2504674
:10205C00012301389843013004E00122013B9343F2
:10206C00180001301CBC90469946A246F0BD3A437C
:10207C00D0D19A45C5D1A542C3DCE0E7C845C0D84C
:10208C000020C845E3D3EDE7FF070000F0B5574645
:10209C00DE464E464546E0B5834606000F03480033
:1020AC0087B092461D003F0B400DCC0F002800D18D
:1020BC006FE0DE4B984238D08023FF001B041F4397
:1020CC00730F3B430193DA4B0027994600239B4641
:1020DC00F60081442B0369001B0B52469846490DB0
:1020EC00ED0F002900D185E0D04B994200D173E06F
:1020FC004346DA0080231B0413435246CC48520F4C
:10210C0084461343524600206144D2008944210086
:10211C00694000918C46012149448A460F2F00D911
:10212C0090E0C449BF00CF59BF465B463B43019387
:10213C0000D06AE102230827002681469B46C9E7A6
:10214C0032005846019B61460091022800D175E08F
:10215C00032800D1FEE1012800D02CE10023002748
:10216C00002600253F032A0D3F0BB34812053A43C6
:10217C0002401B051343009A5B00D1075B080B431D
:10218C003000190007B03CBC90469946A246AB46BD
:10219C00F0BD5B463B43019300D12FE1002F00D1F2
:1021AC00A5E1380000F0C0FE03000B3B1C2B00DD4A
:1021BC0096E11D22D31A5A460100DA405E460839D0
:1021CC008F4013008E403B4301939C4B00271B1AFE
:1021DC00994600239B467DE7414653460B43934962
:1021EC008C46E144002B00D01AE102220220174356
:1021FC0000228CE7134300D10DE14346002B00D1A4
:10220C0081E1404600F090FE02000B3A1C2A00DDF2
:10221C0072E10100434608398B4098461D239A1AF7
:10222C005346D3401A004346134352468A4049460C
:10223C00081A824989468144002068E77B4B0027B5
:10224C0000268EE7140C1204120C1100370C360405
:10225C00350C794328008C462E006043604483463D
:10226C0056432100300C8046584679434044029135
:10227C00844506D98846802149028C46E044414673
:10228C0002913604010C360C00048B4681191E0C8D
:10229C001B041B0C0391190079438C4628007543D1
:1022AC006544A8465843050C45447743A94203D9D5
:1022BC00802149028C466744290C8C463900000465
:1022CC00000C2D042D186144AB4405915946049122
:1022DC0001990F043F0C080C3900514342439046BE
:1022EC0002008C46090C8B4662437C4344445C449C
:1022FC00A04503D98021490288464244210C8846D6
:10230C0061460904090C8C46390059434343704318
:10231C007E430F0CF6182404BE19644442448C46C8
:10232C00B34203D980235B0298464044029B61462A
:10233C009846049B370443449B46AB45AD416B42E6
:10234C000D0405992D0C8C467F196744FD18A84681
:10235C005D462D19A542A44193466442A446C3444C
:10236C00DC448F42BF4198459B4193459241A44523
:10237C00A4415B427F421F43360C52426442BF1958
:10238C002243BF18624638184302D20D03991343F7
:10239C006A020A43501E82416146ED0D2A434E02E9
:1023AC003243D90100D4B3E0012650083240024335
:1023BC00DE0732435B08224C5444002C62DD51078B
:1023CC0009D00F201040042805D0101D90429241D6
:1023DC0052429B180200D90104D580241948E4000C
:1023EC00034054441848844200DD27E75E075B0233
:1023FC00D2081F0B630516435B0DB2E6002399460A
:10240C000133042700269B4664E60323019781468B
:10241C000C279B465EE6012201201743002276E63C
:10242C00032303201F43434671E6C046FF07000009
:10243C0001FCFFFFC8A20108FFFF0F800DFCFFFF8E
:10244C00FF030000FFFFFFFEFE07000000238027B4
:10245C0000933F030026434B83E6019B3200A446C6
:10246C00584670E6AC466EE6802701993F03394228
:10247C002DD03B422BD11F433F033F0B0095160041
:10248C00384B6EE601252D1B382D00DD66E61F2D21
:10249C0040DC35481C005044160082408440EE401D
:1024AC00501E824134431443EB40620709D00F2283
:1024BC002240042A05D02200141D9442804140423F
:1024CC001B181A023ED501230027002649E6802757
:1024DC00019B3F031F433F033F0B0094214B40E6FE
:1024EC0003005A46283B9A40002601926DE6584656
:1024FC0000F01AFD203057E603005246283B9A4064
:10250C001300002293E6504600F00EFD20307BE6CF
:10251C00CA4650E71F201E004042041BE640202DF7
:10252C0003D0124C5444A3401A43501E82413243F0
:10253C0007260027164009D00F2000231040140056
:10254C000428B9D122005E075B021F0BD208164388
:10255C00002306E680273F031F433F033F0B160073
:10256C00004BFEE5FF0700001E0400003E040000C7
:10257C00F8B557464E464546DE460C000903E0B515
:10258C00490A460F5F0031431E03DB0F760A9B4658
:10259C00530F3343C84E6500C000E40FD2006D0DDD
:1025AC00A24681467F0D9C469046B74200D1B9E0C9
:1025BC005B46012673409B46EE1BA34500D183E08E
:1025CC00002E63DD002F00D0B1E06346134300D131
:1025DC0023E1731E002B00D0BAE1861A6346B04289
:1025EC0080410125C91A4042091A0B0200D447E167
:1025FC0049024B0A98464346002B00D189E14046DC
:10260C0000F092FC0300083B1F2B00DD7CE1202234
:10261C003000D21A4146D040994002009E400A43F5
:10262C009D4200DD6AE15D1B6B1C1F2B00DD94E1FC
:10263C00202110003500C91A8E40DA408840DD4058
:10264C00711E8E411100072228430025064332409B
:10265C00002A09D00F233340042B05D0331DB3427D
:10266C00B641764289191E000B0200D43DE26A1C69
:10267C00914B55056D0D9A4200D119E18F4AF60820
:10268C000A40570752023743120B9BE0002E00D032
:10269C00C5E06E1C7605760D012E00DC48E1674620
:1026AC00861ACB1BB042BF417F42B8461F0043463F
:1026BC00FF1A3B00B8461B0200D55FE137439AD1A5
:1026CC0000220024002579E0002E00DCFAE0002F27
:1026DC0000D18DE0784B9D4267D0802367461B0468
:1026EC001F43BC46382E00DC52E1634613435A1E8E
:1026FC0093411E1886428041404209180B0200D4B7
:10270C00BEE06D4B01359D4200D1D2E06B4A73089F
:10271C000A4001210E401E435108D30707221E43D5
:10272C00324095E71E00164300D045E740E7624B68
:10273C009D423AD0802367461B041F43BC46382E6B
:10274C0000DDEBE01F2E00DC3AE133006746203B56
:10275C00DF403B00202E05D04027BF1B6646BE4005
:10276C00324390464646721E96413343DAE0002BC4
:10277C0000D114E26346134300D168E180234E0775
:10278C00C008C9081B030643194208D06046C0089C
:10279C00184204D163460100D2085E071643F300C9
:1027AC009946C900720F444D11434B46DE08424B0B
:1027BC004F073743CA089D4200D16EE012036D05E6
:1027CC00120B6D0D00211203130B0A0D12051A4387
:1027DC003B4B2D0513402B435B00E4075B08234365
:1027EC00380019003CBC90469946A246AB46F8BD51
:1027FC006346134311D0731E002B00D007E18618DB
:10280C008642804161444042091801250B0237D5AC
:10281C0002257BE73E00614691463500C5E75C46E4
:10282C00002D00D0E1E00B000343F3D0731C00D16A
:10283C00ACE1214B9F4200D13AE1F343382B00DD50
:10284C006FE11F2B00DD8CE120250E00ED1AAE4050
:10285C00B0460600AA46DE40454635432E00554696
:10286C00D940A8406346451EA8415B1A9C4630439C
:10287C00161AB242924163465242991A3D00B4E68E
:10288C0007223240002A00D0E4E60B4BF6084F0733
:10289C003743CA089D4200D090E73B00134300D158
:1028AC00A6E180231B031A431203120B024D89E786
:1028BC0015000022002785E7FF070000FFFF7FFFC0
:1028CC00FFFF0F80002E00D0C7E06B1C5E05760D5D
:1028DC00012E00DCF0E0C84DAB4200D1B9E0851808
:1028EC000A00854289416244494251180722CE07A9
:1028FC006D082E43490832401D00A9E6BF49ED1A68
:10290C00114007223240A3E63200283882400026CC
:10291C0086E6300000F008FB203073E66346134374
:10292C005A1E9341C61AB04280414042091A5CE6D5
:10293C000E00674606431743002D5ED1002E00D0D3
:10294C00F3E0002F00D11EE15C46614691462CE776
:10295C00A94FBE427BD01E00F1E610001F3DE8409F
:10296C00202B03D04021CB1A9A401643731E9E4154
:10297C000722064332400021002583E7161A6346DE
:10298C00B2428041591A40420B1A98465C4632E6D4
:10299C001F2E00DDABE02027BB1B9A466346574633
:1029AC00BB40994613004F46F3401F433B0057462C
:1029BC00BA40571EBA4113436246F240891898E652
:1029CC002027BB1B9A4663465746BB4099461300CB
:1029DC004F46F3401F433B005746BA40571EBA417F
:1029EC0013436246F240891A9CE7834B9F425FD0A7
:1029FC0080252D047342294320E7002E0CD1002F93
:102A0C0000D1D0E05C46614691467B4DCDE67A4FD5
:102A1C00BE421CD01E0065E6002F18D0C0084E0721
:102A2C0006438020C9080003014208D06346DC0835
:102A3C00044204D12100DA46D2085E071643F300A3
:102A4C00994601245346C900720F11431C406A4D2C
:102A5C00ABE61D0000220027B4E6002D59D10B0077
:102A6C00034300D1D6E6731C00D1B2E0624B9F4207
:102A7C001ED0F343382B6FDC1F2B00DD97E0202595
:102A8C000E00ED1AAE40B0460600AA46DE404546A2
:102A9C0035432E005546A840D940451EA8418C44CC
:102AAC000643B61896429241514261443D0025E6D8
:102ABC003D006146914678E60B000343002D00D0A3
:102ACC0055E6002BF5D06346134300D16DE686180E
:102ADC008642804161444042091800220B0200D416
:102AEC00D0E6464B01351940B2E5B1465DE6330000
:102AFC006746203BDF403B00202E05D04027BF1B04
:102B0C006646BE40324390464646721E964133435B
:102B1C00EFE5394B9F42CBD080252D0473422943DE
:102B2C00A8E70843411E8841A2E6002F00D13CE6ED
:102B3C006346861ACF1AB0429B415B42FB1A9846F9
:102B4C001B024ED5161A6346B2429241591A524292
:102B5C00891A5C4600227BE501430E00711E8E41F2
:102B6C009FE71D000E00203DEE40B046202B04D008
:102B7C004025EB1A99400843814648464346411E7E
:102B8C008841184374E60022002417E6161A63469F
:102B9C00B2429241591A5242891A3D0025E56146CA
:102BAC009146154D01E680220024120379E61D00A2
:102BBC000E00203DEE40B046202B04D04025EB1AF1
:102BCC009940084381464E464346711E8E411E4332
:102BDC0067E7861896429B4161445B42C9183D00E9
:102BEC008CE547463743CED007224146324049E672
:102BFC0000273A00E6E5C046FF070000FFFF7FFF15
:102C0C0070B50C4E0D031C0349005B002D0B490DD8
:102C1C00240B5B0DB14208D0064900208B4203D136
:102C2C0014432000441EA04170BD05430120002D1B
:102C3C00FAD1F1E7FF07000030B5144D0A034B0041
:102C4C00120B5B0DC90F0024AB4211DD104CA342DB
:102C5C0010DC8024640322430E4CE41A1F2C0CDD80
:102C6C000D48C31ADA4013005C42002900D11C0045
:102C7C00200030BD094BCC18FAE7094DE040AC46BA
:102C8C0063449A4013000343EEE7C046FE03000082
:102C9C001D0400003304000013040000FFFFFF7F3D
:102CAC00EDFBFFFF70B500282DD0C317C5185D4094
:102CBC00C40F280000F038F9154B1B1A5B055B0D8F
:102CCC000A2815DD0B38854000222D032D0B002121
:102CDC0010002D030A0D2D0B12052A430D4D1B055B
:102CEC002A4013435B00E4075B082343190070BDC3
:102CFC0002002900153291400A000B21081AC54028
:102D0C002D032D0BE3E70024002300250022DEE732
:102D1C001E040000FFFF0F8010B5041E25D000F02C
:102D2C0003F9144B1B1A5B055B0D0A2812DD0B38DB
:102D3C00844000222403240B0021100024030A0DDC
:102D4C00240B120522430C4C1B05224013435B0041
:102D5C00590810BD02002100153291400A000B21C8
:102D6C00081AC4402403240BE6E7002300240022A5
:102D7C00E2E7C0461E040000FFFF0F804100090E71
:102D8C004B1C70B5DBB24602750AC40F012B14DD67
:102D9C00E0239B006D07360BCB1800210A0D280091
:102DAC0012051C4D32435B052A405B0813435B0044
:102DBC00E4075B082343190070BD002914D1002DD2
:102DCC001ED0280000F0B0F80A281CDC0B232A00C7
:102DDC001B1ADA40030015339D400F4B12031B1ACC
:102DEC005B05160B5B0DD8E7002D06D0320B802649
:102DFC0036036D071643094BCFE7084B0026CCE78B
:102E0C0000230026C9E703002A000B3B9A4000254B
:102E1C00E3E7C046FFFF0F8089030000FF070000B7
:102E2C00F0B54C00640D0B03621C5B0A460F520597
:102E3C00C90F1E43C500520D012A29DD374BE71877
:102E4C00FE2F1CDC002F3BDD8001431E9841072226
:102E5C00F3006D0F03432B431A40002A04D00F22BA
:102E6C001A40042A00D004338022D2041A4024D001
:102E7C000137FAB2FF2F02D09B01580A01E0FF2262
:102E8C0000204002D205400AC90710430843F0BD98
:102E9C003543002C04D1002D0AD100220020F0E78C
:102EAC00002DECD08020C0033043FF22E9E7002442
:102EBC0000235B02580AE2B2E3E7DB083C00F8E7C8
:102ECC003B001733F3DB80231B0433431E26F61B16
:102EDC001F2E14DD02225242D71B1A00FA40170093
:102EEC00202E04D00E4A94466444A3401D432B006C
:102EFC005D1EAB4107223B431A400027ADE7094A50
:102F0C002800A218954093406C1EA541F040072262
:102F1C002B4303431A4000279FE7C04680FCFFFF6A
:102F2C00A2FCFFFF82FCFFFF1C2101231B04984223
:102F3C0001D3000C10391B0A984201D3000A08393E
:102F4C001B09984201D30009043902A2105C4018F5
:102F5C007047C04604030202010101010000000099
:102F6C000000000010B5002903D1FFF7DDFF203071
:102F7C0002E0081CFFF7D8FF10BDC046F0B51E4B91
:102F8C001E481B8885B09BB21D4A1E49834206D140
:102F9C00012313700023FA200B7005B0F0BD180A42
:102FAC000DD010700B7013780B26019302220123A5
:102FBC0002A907310198834203D90020EDE70120D3
:102FCC00EFE700205C1E7443087008780A2802D9C9
:102FDC000133DBB2EEE70848171808783F88201851
:102FEC00BC466546084F40003D520878023201301D
:102FFC00C0B292B20870E8E700D80108FFFF0000E9
:10300C001C0000205D100020A00A0020F8B501244F
:10301C0000250A27094B1B78A34201D22800F8BDD2
:10302C00611E074B4900661CC918B0B203F05CFF67
:10303C00192C00D93D00F4B2ECE7C0461C0000206E
:10304C003C770020F0B585B002AB00249F1D1C23FB
:10305C003C800093144B1B78A34202D2002005B095
:10306C00F0BD0A2300256343104A009E9B18019370
:10307C003000390003F038FF019A3B885219537025
:10308C00019A1B0A535501360235B6B20A2DEFD1FF
:10309C006543064B01345D1900236B72009BE4B24F
:1030AC0005339BB2D5E7C0461C0000204F0F002013
:1030BC00F0B5002485B002AB9F1D3C80174B651CFE
:1030CC001B78E1B2ADB28B421ED89934144DA4B228
:1030DC00002601943900019803F006FF3B88AA19D9
:1030EC0053701B0AAB55019B023601339BB2019303
:1030FC000A2EEFD100200B4B687205340A35A4B2AE
:10310C009D42E5D105B0F0BD074BCB344900A0B2D0
:10311C00591803F0E9FE2C00D0E7C0461C00002033
:10312C00480E0020AC0E0020AC0E0020F0B50E278F
:10313C00002587B005AC02ABFF182100E4202580E8
:10314C003D8003F0D1FE0395A84201D1237803936F
:10315C002100E52003F0C8FE39000500E62003F04D
:10316C00C3FE2843002580B2A84203D125883B88A2
:10317C002D04ED182100E72003F0B6FE39000600FF
:10318C00E82003F0B1FE3043002680B2B04203D1F8
:10319C0026883B883604F6182100E92003F0A4FEAB
:1031AC00254F002804D123881A0A3A70234A137039
:1031BC002100EA2003F098FE002805D1238820493D
:1031CC001A0A0A701F4A13702100EB2003F08CFEC0
:1031DC00002805D123881C491A0A0A701B4A13704F
:1031EC003B78002B09D0154A1278002A05D00092A2
:1031FC0029003200039805F007F9114B1B78002BBE
:10320C0009D0104A1278002A05D000922900320009
:10321C00039805F0F9F80C4B1B78002B09D00B4ADE
:10322C001278002A05D0009229003200039805F08C
:10323C00EBF8002007B0F0BD25110020450E002052
:10324C0026110020460E002027110020470E0020DA
:10325C00F7B58A2001AD2900400003F045FE384C3B
:10326C0000284CD12B88A3711B0A16202900FF3093
:10327C00E37103F039FE002846D12B888B202900FE
:10328C004000238003F030FE002840D12B8818200A
:10329C002900FF30638003F027FE00283AD12B88E9
:1032AC0023711B0A8C2029004000637103F01CFE63
:1032BC006B4606001A209F1D3900FF3003F014FEE8
:1032CC000643B6B2002E2AD13B882A881B0413432E
:1032DC008D2029004000A36003F006FE002828D1B1
:1032EC002B8823731B0A63731C202900FF3003F007
:1032FC00FBFD002821D12B880020E376FEBD114B6D
:10330C009A79A271DB79B0E70E4B1B88B6E70D4BAF
:10331C005B88BCE70B4B1A7922715B79C2E70A4BCD
:10332C001B78002B02D0E1235B02D1E7054B9B6895
:10333C00CEE7C0235B01A381D6E7024BDB7EDBE744
:10334C001C6C0020000000209E0A00201E23F0B5FB
:10335C008BB002AA9B18002201271A80BDB228004C
:10336C001E2602AB3A30F618800080B2310003F012
:10337C00BBFDFBB206900793002845D13288130A97
:10338C001909B94240D10F210B403DD0AD00ADB26F
:10339C002800063979431F4CE93064186370227297
:1033AC00310080B203F0A0FD28003388EA301A0AFD
:1033BC00A2706371310080B203F096FD3388EB3557
:1033CC001A0AE270A3713100A8B203F08DFD3388A4
:1033DC00F9B21A0A2271E371607804F06BF90121D9
:1033EC00207AA37842100A40014006980590E079B3
:1033FC000490A07903906079029020790190E07894
:10340C000090F8B204F060FA0137072FA6D1002023
:10341C000BB0F0BD94140020F7B5322011F0D0FFA2
:10342C000600FB20002E05D02F4C043023780027FB
:10343C00FE2B1BD0FEBD23000099143B0135CA5452
:10344C000134EDB22AE02A00310012F006FA274AC4
:10345C00002113783000013313702A0012F006FAA1
:10346C002378FE2B3AD11437642F37D02300321B2C
:10347C0014330092227800990A5501349C42F9D1F8
:10348C001B4B711CFB1814221800019312F0E5F968
:10349C0014220021300012F0E9F900252278931C47
:1034AC00DBB2012B01D9322DC5D17319013B1B782D
:1034BC00002B01D00135EDB2280011F081FF0C4B2F
:1034CC00DB19D8600028BED101001422019812F03B
:1034DC00CDF9300011F07EFF0E20ABE7300011F07B
:1034EC0079FF0020A6E7C04600DC0108F11100209E
:1034FC00386C002010B5FFF741FDFFF787FDFFF793
:10350C00A1FDFFF7D5FDFFF711FEFFF7A1FEFFF7B9
:10351C001DFFFFF781FF10BDF8B5012400250A2718
:10352C000A4B1B78A34201D22800F8BD631E084A3F
:10353C005B00995A661C002902D0B0B203F0FEFC65
:10354C00192C00D93D00F4B2EAE7C0461C0000205B
:10355C003C770020F7B500252F00134B1B78AB42AE
:10356C0001D20020FEBD0A266E43104BF25C002AED
:10357C0017D0F6183B003C0021331C349BB2A4B28C
:10358C000193337871781B02C918200089B203F0BB
:10359C00D5FC0134019BA4B202369C42F1D1053713
:1035AC00BFB20135EDB2D8E71C0000204F0F002050
:1035BC00F0B50E0015001C0085B00AAB1F780BABE4
:1035CC001B7881B200930CAB1B78E42001930DABFC
:1035DC001B7802930EAB1B78039303F0AFFC310AFC
:1035EC0089B2E52003F0AAFCB1B2E62003F0A6FCF8
:1035FC00290A89B2E72003F0A1FCA9B2E82003F064
:10360C009DFC2102C91989B2E92003F097FC009BAB
:10361C00EA201902019BC91889B203F08FFC029BA6
:10362C00EB201902039BC91889B203F087FC002018
:10363C0005B0F0BD8A2010B51A4C4000E379A17991
:10364C005B01194303F07AFC16202188FF3003F04C
:10365C0075FC8B206188400003F070FC18206379A6
:10366C00217B1B021943FF3003F068FC8C20A368FC
:10367C00400099B203F062FC1A20A368FF30190CC9
:10368C0003F05CFC8D20637B21791B021943400005
:10369C0003F054FC1C20E17EFF3003F04FFC0020B3
:1036AC0010BDC0461C6C0020F8B50E4E3422002113
:1036BC00300012F0DBF8012400250B4B1B78A342E1
:1036CC0001D22800F8BD631E5B00F15A671C00296B
:1036DC0002D0B8B203F032FC192C00D90A25FCB286
:1036EC00EBE7C0463C7700201C00002070B5054C71
:1036FC00054D2368AB4204D003F0B0FC002800D188
:10370C00256070BDF07F0020ADDEEFBE0E23F0B55E
:10371C001225002401278FB003AE6B446D44009337
:10372C00320006AB05A9012009F060FA04AA08AB27
:10373C0007A90095022009F059FA338809A90598C0
:10374C0009930A970B940FF0EBFD02230B932B8834
:10375C0009A9089809930A940FF0E2FD3188220018
:10376C0005980FF019FF05200AF0C0FA298808986F
:10377C000FF00CFFA0420FD131883A0005980FF0E2
:10378C000BFF05200AF0B2FA298808980FF0FEFE0C
:10379C00013844424441E4B220000FB0F0BD10B5F2
:1037AC000AF00EFCE1231B0243608023DB00036163
:1037BC00802304005B01836011F06EFC20232268DF
:1037CC0011680B43136010BD044B10B59968FCF7DE
:1037DC0093FC43425841C0B210BDC0468C0000203F
:1037EC00F8B51C490500FCF787FC062406001A4FA7
:1037FC00002E23D019492800FCF77EFC00281FD08E
:10380C0017492800FCF778FC00281BD01549280024
:10381C00FCF772FC002817D039002800FCF76CFC70
:10382C00002813D010492800FCF766FC00280FD0A4
:10383C00013CE4B2002CDBD12000F8BD0120FCE7F8
:10384C000220FAE70320F8E70420F6E70520F4E766
:10385C000620F2E73BA5010837A50108FEA90108DF
:10386C0032A5010834A501083AA5010873B5050075
:10387C0001240326A54210D00B4B20001A880B4BB9
:10388C00110A5A70002219709C70110000960A23BC
:10389C0004F098FE0A200CF042FD0134E4B2062C30
:1038AC00E8D1002076BDC04650000020210F00203A
:1038BC00F0B587B06A463C4B00AF1B783B4C3B6184
:1038CC000733DB08DB00D31A9D467B6100231A000B
:1038DC003D69D9B28D4230D801237A69013813542D
:1038EC0016221D00424398403149304C5218FA6060
:1038FC00F9685A008A5A002A0CD02E00591E8E40A4
:10390C003100065BD2083143015379698A180221D0
:10391C00013A11700133062BEAD102210023180061
:10392C000131C9B24A1E3A603C69DAB294420AD8F3
:10393C000028F3D1BD4607B0F0BD7969CA545900CF
:10394C000A530133C4E77A693C68D25CA24228D19D
:10395C0016245C43164AA2187A605A00BA60134ABD
:10396C00012494467D686200AA5A002A16D0D20817
:10397C00013AFA60FD687A69555D002D0ED1012679
:10398C00651EAE4032006646BD680130AD5BC0B20C
:10399C001543BA6895537A69FD6851550134062C64
:1039AC00E0D10133C0E7C0461C000020DE0C002033
:1039BC00A00A00200B78F0B5FF220400002B00D1E8
:1039CC000278084B1E78002318009E4200DCF0BDE4
:1039DC00E55C954204D2CF5C002F01D12A00D8B20D
:1039EC000133F2E71C00002010B5064B01221C78B5
:1039FC000300191A8C4201DC100010BD1978013338
:103A0C000A40F6E71C000020F0B593B004000D004E
:103A1C003222002105A811F029FF1A220021474863
:103A2C0011F024FF002301204549621E8B544549A7
:103A3C008B5416335343444A9B180193AAB20199F1
:103A4C004300CB5A002B0CD0DB08934209D1012246
:103A5C003B4BC0B25B19013B1A70384B1D7013B055
:103A6C00F0BD01300728EAD10022384BFF26197827
:103A7C0094460123334F99422ADA0024304E05AF85
:103A8C003800FFF7B1FF002807D139002C48FFF7A9
:103A9C0091FF0130C4B2AC4224D100222949274EF7
:103AAC000B19013B187800283FD10123244A5519E2
:103ABC00013D01995A00895A00293BD02A781F4CA4
:103ACC00C908A218013A12788A4233D1D8B2C6E793
:103ADC009C4205D01A485A1E86546046BA1810707B
:103AEC000133C8E7162201230121601E42433B54D7
:103AFC00154B0397D3180293029A4B00D35A002B01
:103B0C000FD0DB08DBB2039A013BD25C002A08D150
:103B1C00325CF75C0132D2B2974202D9F254094AB4
:103B2C00D45401310729E7D1A9E7531CB454DAB2B4
:103B3C000400B5E70133072BBBD190E7206D0020C3
:103B4C00F11000200B110020A00A00201C00002006
:103B5C00F0B5314E89B0050030780C0007921F008B
:103B6C00FFF752FF31780590002F05D00023A142BA
:103B7C000DD1069405970BE0284B06911B19013BC0
:103B8C001A78012A04D0264B9B18013B1B7806930C
:103B9C003378AB421AD10CF0BBFC0500002F34D1AA
:103BAC00204B2200196812F05BF81F4B2800196893
:103BBC0012F076F82800FCF7A9FA322382B2290019
:103BCC0007980AF02FFA64200EF09AFA0798FFF77C
:103BDC00E6FD0598FFF7E3FD3378069A934205D18D
:103BEC0005980AF0EDF901210AF060FA002331780A
:103BFC000393013B0293019303330093059A0B004B
:103C0C00079804F0CBFE09B0F0BD08493B00220038
:103C1C00096812F025F8C8E75D100020F1100020AB
:103C2C00206D002078000020800000207C00002007
:103C3C00F0B54F4D85B04F490400280012F04CF8F8
:103C4C0001262800FCF762FA764282B200963223F3
:103C5C00290020000AF0C0F901273A004649280043
:103C6C0011F0FEFF2800FCF751FA013782B20096E2
:103C7C003223290020000AF0AFF9062FEDD100966F
:103C8C00322303223D4920000AF0A6F900273C4BC1
:103C9C001B78BB420AD801235B42009301223333C9
:103CAC00384920000AF098F905B0F0BD304D7A1C67
:103CBC003549280011F0D4FF2800FCF727FA01231E
:103CCC005B4282B229000093200033330AF084F95E
:103CDC00162206217A432D4E0392935B28005943FA
:103CEC002B4B0522C91812F010F801235B42290056
:103CFC0000930522333320000AF06EF901230125CD
:103D0C005B42009301223333224920000AF064F90C
:103D1C00039B9B190393039A6B00D25A144E002AEF
:103D2C001ED11D49300011F09BFF3000FCF7EEF95D
:103D3C0001235B4282B20093310033332000013502
:103D4C000AF04AF9062DE6D101235B4200930222C8
:103D5C0033331249200001370AF03EF9FFB296E7DF
:103D6C0007230F4913403000D20811F079FFDCE72C
:103D7C008610002004A5010816A50108D3AC010883
:103D8C001C0000207FBF01081BA50108A00A002011
:103D9C005EA5010814A501082AA50108D4AC0108E8
:103DAC0027A50108F0B5274C85B02749060020004F
:103DBC0011F092FF01272000FCF7A8F901257F42A2
:103DCC0082B200973223210030000AF005F90397E4
:103DDC001E4B1B78AB4211D21D49200011F07CFF09
:103DEC002000FCF793F901235B4282B2009321007F
:103DFC00333330000AF0F0F805B0F0BD00236A1E32
:103E0C00520002920299134A5F1C8A5A80210902BD
:103E1C001941114210D03B002A000F49200011F02B
:103E2C001FFF2000FCF772F9039B82B20093210064
:103E3C00322330000AF0D0F83B000A2FE2D10135D2
:103E4C00EDB2C5E786100020B6A401081C000020C6
:103E5C00E4A401083C770020D2A40108F0B585B099
:103E6C0003900CF055FB04006D4911F035FF6D4DBE
:103E7C006D4B6E491A78280011F0F2FE29002000D3
:103E8C0011F00EFF6A4B6B491A78280011F0E8FE0E
:103E9C002900200011F004FF05230022009366493D
:103EAC00033B280011F0DCFE2900200011F0F8FE85
:103EBC00624A6349280011F0D3FE2900200011F05A
:103ECC00EFFE604A6049280011F0CAFE290020006C
:103EDC0011F0E6FE5D49280011F0FEFE29002000DD
:103EEC0011F0DEFE012632005949280011F0B8FE0F
:103EFC002900200011F0D4FE564BF05C042808D8A1
:103F0C00FCF716F90372747678005349280011F007
:103F1C00E3FE29002000013611F0C2FE062EE2D18C
:103F2C004E49280011F0D8FE2900200011F0B8FEEF
:103F3C00012538236B434A4A9B181A00383A1268F9
:103F4C00002A59D1374E2A004649300011F088FE1C
:103F5C0031002000013511F0A3FE072DE9D14249B3
:103F6C00200011F09DFE4149200011F099FE200027
:103F7C00FCF7CCF8002205002B4B3D491B78561C56
:103F8C00013B5B005B5A802109021141194209D0A7
:103F9C00244F38493200380011F062FE39002000FD
:103FAC0011F07EFE3200052EE6D12000FCF7AEF8B3
:103FBC00ADB2A84203D13049200011F071FE2A495C
:103FCC00200011F06DFE039B002B0BD02000FCF7A2
:103FDC009DF801235B4282B2009321003333039896
:103FEC0009F0FAFF05B0F0BD24498FE724498DE7AD
:103FFC0024498BE7244989E7143B186806F008FB31
:10400C00224AAB00043B0700D05806F001FB054EDA
:10401C0000903B002A001E49300011F021FE97E76A
:10402C0015A50108861000205D10002018A30108BA
:10403C009F0A002034A3010850A301086DA30108B6
:10404C0079A3010890A3010899A30108B2A3010860
:10405C00C5A30108D6100020CBA301082CA401088D
:10406C00CC1B002044A40108D4AC01088FA4010887
:10407C003C770020ACA40108B1A40108D2A301082C
:10408C00E7A30108F3A301080DA4010830140020D4
:10409C005FA40108F7B528490500FCF72DF80028A6
:1040AC0003D1264B1C782000FEBD25492800FCF7C7
:1040BC0023F8FF240028F6D02F78232F16D00026C3
:1040CC00204B1B780193019BF4B2A34220D800240F
:1040DC000A261D4F3100614328007918FCF70CF8B3
:1040EC00002824D12002FE2404431CE0681C11F09B
:1040FC002AF9C0B2002805D0124B1B78834201D399
:10410C0004B2D0E70D4B66241B788342F8D0CAE783
:10411C000A2171430D4B2800C918FBF7EDFF00284D
:10412C0003D1002F01D024B2BDE70136CBE7013417
:10413C000A2CCFD15A34B6E780C201085D1000209A
:10414C002EA501081C000020480E00204F0F002057
:10415C00F7B50C000025294E0190A900711820001C
:10416C00FBF7CAFF002842D00135042DF5D10A27F0
:10417C00234B244E1B78033D0093009BAB421EDC6B
:10418C0000250A27204E3900694320007118FBF7DF
:10419C00B3FF00282DD001350A2DF4D11B4E1C4B3A
:1041AC0033603568002D14D10A20019B210058433F
:1041BC00144BC01811F090FDFFF7CCF9FEBD39007F
:1041CC00694320008919FBF797FF002811D00135AE
:1041DC00D3E72B681F683800FBF798FF3900020003
:1041EC00200011F081FD002805D06B68D8E706206F
:1041FC00E4E70720E2E70820E0E7C04608A301084F
:10420C001C0000204F0F0020480E0020DC10002066
:10421C00C0000020F7B50D0000240A2600903100E4
:10422C006143344B28005918FBF766FF002809D16D
:10423C000121A140009B304D013B5B005A5B0A43BE
:10424C005A53FEBD01340A2CE9D100242B4EA10097
:10425C0071182800FBF750FF002844D00134042CBF
:10426C00F5D10A27264B274E1B78033C0193019B63
:10427C00A3421CDC244E254B33603468002C20D127
:10428C000A23180060431B4A125C002A27D1194BE1
:10429C002900181811F020FD0121A140009B16489F
:1042AC00013B5B001A5A0A431A520020C9E7390035
:1042BC00614328008919FBF71FFF002815D0013432
:1042CC00D5E723681F683800FBF720FF3900020090
:1042DC00280011F009FD002809D06368CCE70134EF
:1042EC000A2CCED1D8E70620ABE70720A9E7082097
:1042FC00A7E7C046480E0020AC0E002008A301081A
:10430C001C0000204F0F0020E0100020C0000020F7
:10431C00F7B501240026194B1B78A34201D23000BB
:10432C00FEBD174F3B78A3420FD000221321200073
:10433C0004F012FB322009F0D9FC124B1B78002B35
:10434C0000D002260134E4B2E5E700256B1C019392
:10435C006B46187909F034FE8022436B12029342AB
:10436C0008D1100028413B780749013B5B005A5AA1
:10437C0002435A52019D052DE8D1E3E71C000020B1
:10438C005D100020F01000203C77002070B58025D7
:10439C0000222D022E0016410B4B0C491B78541C8D
:1043AC00013B5B005B5AE0B21E4009D109F008FEEC
:1043BC00310009F07BFE2200052CEBD1002070BDF2
:1043CC0009F0FEFD0121F4E75D1000203C77002090
:1043DC0070B508F02FFE08F0BBFE02F08FFE08F05F
:1043EC00CFFB07F04FFD09F00DFC08F079FB09F04D
:1043FC003BFC08F04BFC00280AD0FFF777F9BFF321
:10440C004F8F2E4B2E4ADA60BFF34F8FC046FDE71D
:10441C00FFF77CF9002833D001242A4B32201C7082
:10442C0009F064FC06F044F8E123274D5B02AB6015
:10443C0020000134A968E4B209F02EFE062CF7D155
:10444C00FFF758F8FFF7A2FF08F088F880211F4B00
:10445C0001221C78C9011E48002C17D10FF09CF8C2
:10446C00FA20400009F042FC80210022C9011848C2
:10447C000FF092F802F0C2FC0122164B1A7070BDBC
:10448C00322009F033FC06F013F8D9E70FF084F86A
:10449C00FA20400009F02AFC80210022C9010C48B6
:1044AC000FF07AF8642009F021FC802108480122E1
:1044BC00C9010FF071F86420D4E7C04600ED00E0AC
:1044CC000400FA059E0A00201C6C00205D100020E0
:1044DC00000400489D0A002010B50DF0F3FD05F016
:1044EC00ABFEFFF775FF02F089FF0BF013FF10BD59
:1044FC0013B51E2010F064FF04001E22002111F0E1
:10450C00B5F90849088B8B7D0A7D0190497D013AEC
:10451C0000910549920052582000044911F0A0FB6B
:10452C00200016BD1C6C00202CA801083DA501081C
:10453C0013B50A2010F044FF04000A22002111F0E8
:10454C0095F9054920004B7C8A7C097C0091034934
:10455C0011F086FB200016BD1C6C00204FA5010835
:10456C001FB5074B0A00197801230393023B0293F2
:10457C000193033300930B0004F010FA05B000BD57
:10458C005D100020F0B5002487B007000D0023005B
:10459C0022002100049403940294019400942000BE
:1045AC00FFF706F83823791E59430D4A681E8E58BA
:1045BC004343A6420BD0D6583800A6420CD002F08A
:1045CC009FFB280002F09CFB200007B0F0BDD358E5
:1045DC006820002BF9D0280002F092FB3000F4E7A1
:1045EC00CC1B00201423F7B5224D234A2C7806004F
:1045FC00013C5C431419FBF789FDE7680190002F1F
:10460C002FD03800FBF782FD019900900231091878
:10461C00380011F05DF9E06014242B78164A013B48
:10462C006343D318009AD86801328018310011F016
:10463C0053FB2B78104A013B6343D3181322DB68DE
:10464C0000995A541422002128780B4B01385043FE
:10465C001818C3688B4202D111F008F90E2108001A
:10466C00FEBD0198013010F0ABFE3100E06011F09E
:10467C0033FBE7E7F1110020386C002070B5050022
:10468C0003262C78002C00D170BD10F08BFE001985
:10469C0042783240012A00D120342C700135F0E7E9
:1046AC00F0B5CD4B8DB01B78069008930E24052BDE
:1046BC0000D13BE1142000245843C84F0422C319F5
:1046CC0002301C80C0192100079311F0CFF8069B13
:1046DC001B78622B00D011E1069B9B782E2B00D00F
:1046EC000CE1069B5E78303EF6B2052E00D91DE13A
:1046FC000125079B07221D809E70069BB84903333A
:10470C001800099311F0F0FAA0421CD10523079A66
:10471C00D37009227243B34B9B181B7A2B4205D0E2
:10472C000024AD4A137801331370FFE023002200FC
:10473C00290005950494039402940194009430008C
:10474C0003F0C2F8EDE70E22A749099811F0CCFA54
:10475C00002813D10623079AD37009227243A14B68
:10476C009B181B7A9B07DBD423002A000595049425
:10477C0003940294019400942100E0E70C229B49DD
:10478C00099811F0B1FA002852D109221100714395
:10479C00944B5B189978002914D1079B0698DA7012
:1047AC000F3010F0CAFD8C4AC3B21078142250435B
:1047BC0038180371059504940394029401940094A1
:1047CC002200D9E7DA78002A15D10A23079A06982D
:1047DC00D3700F3010F0B1FD7F4AC3B210781422A1
:1047EC005043381803710595049403940294019472
:1047FC0000932300E4E71B790C24002B91D11425A2
:10480C000B22089B06986B43FB18DA700F3010F0E4
:10481C0094FD714B00241B78C0B25D4301237D19BC
:10482C002871059304940394029401900094E0E79A
:10483C000D226F49099811F057FA002800D06FE744
:10484C00092319007143674A51184879002813D17C
:10485C00079A06980333D370103010F06EFD5E4A41
:10486C00C3B2107814225043381803710595049480
:10487C00039402930194D9E78979002917D114255F
:10488C000D22089B554C6B430698E318DA701030D8
:10489C0010F053FD504BC0B21B785D43641920716E
:1048AC00012300240593049403900294E2E77343DC
:1048BC00D318DD790D24002D00D032E714270E22F9
:1048CC00089B464C7B430698E318DA70103010F0C6
:1048DC0034FD414BC0B21B782A005F430123E4191D
:1048EC00207129000593049003950295019500957C
:1048FC002B00300002F0E8FF2C0012E73D4D06992A
:10490C00280011F0E9F93C4C2800210012F064F861
:10491C0021000500002012F05FF821000690002015
:10492C0012F05AF80400002D03D1672420000DB0BA
:10493C00F0BD2800FEF748FF069B061E0ED0002B8C
:10494C000ED1002CF1D114200222234B1B7858439A
:10495C003A543818C67001331F4AE5E6002BE4D0F0
:10496C00002CE2D02000FEF72FFF1B4B14251B78E8
:10497C0000281BD05D4304237B557D19EE70E87134
:10498C00154B06981C78FEF72BFF1421124B4C4349
:10499C001B78124A59431419607052185278002A25
:1049AC00C3D00D4A013313700024BFE703226B43BD
:1049BC00FA54FB18DE70200010F0BAFCFEF730FA47
:1049CC00054B0B90187804226843063038180BA955
:1049DC0010F043FFD4E7C046F1110020386C0020E2
:1049EC0085B80108941400207EB8010800AA0108BB
:1049FC000DAA01085A11002053B10108030010B58B
:104A0C000800022B13D0032B04D0012B0DD1FFF780
:104A1C0047FE10BD074B1A781423013A5A43064B34
:104A2C009B1801221A7405F05FFC0020F1E7FFF7D8
:104A3C00D9FDEEE7F1110020386C0020F0B58DB0F7
:104A4C000690079102920021092209A81E0010F07D
:104A5C000DFF0298FFF712FEC14D2B780393002B2C
:104A6C004BD10322BF49029811F03EF9071E5FD1CA
:104A7C00029BD81CFFF714FE002838D0BA4930002E
:104A8C0011F02AF92F7000243000FBF73FFB33782C
:104A9C00002B0BD0079B002B08D001235B4282B26A
:104AAC00009331003333069809F096FA3000FBF787
:104ABC002DFB00210200300010F0D8FE002CC8D1D4
:104ACC000922210009A810F0D1FEA54B1B78002B60
:104ADC000BD1079B002B08D001235B42009338229B
:104AEC003333A249069809F077FA0DB0F0BD0223D2
:104AFC002B700D2333700400C6E706229C490298E4
:104B0C0011F0F2F8002809D128709A490320FFF718
:104B1C0075FF9949300011F0DFF8B4E7039B022BC5
:104B2C0006D10298FFF75EFD0028E2D08E49F1E72E
:104B3C002E21029811F0C2F8051E00D10AE10338AB
:104B4C0003228E4911F0D0F8002800D102E110F0B8
:104B5C0029FC04226B78C01843781A40049200D0C8
:104B6C00F8E0029B09A8EA1A190011F0CEF809A87E
:104B7C00FFF790FA824B07001B780593984206D1F9
:104B8C0099223100681C92000BF056FCB3E77D496A
:104B9C006428BFD07C496628BCD06B1C0393FF28CB
:104BAC002BD104991A22794810F060FE0298FBF779
:104BBC00ADFA040009A8FBF7A9FA013C221A0399E3
:104BCC00734811F0A2F80298FBF7A0FA040009A8A8
:104BDC00FBF79CFA231A9BB239001722059803F0B5
:104BEC009DFE99223100920003980BF025FC694937
:104BFC000400300011F054F846E7C5B2FE2D3CD14C
:104C0C00654B07121A220499FFB260481F7010F00E
:104C1C002DFE0298FBF77AFA050009A8FBF776FA45
:104C2C00013D2A1A03995A4811F06FF80298FBF7C4
:104C3C006DFA050009A8FBF769FA2B1A9BB217222B
:104C4C003900059803F06AFE4D4B544A1B78013B22
:104C5C005B009B5A504A12781341DB0706D5992208
:104C6C003100920003980BF0E7FB040009AB320013
:104C7C004B49300010F0F4FF06E70622494903982F
:104C8C0011F032F8041E2BD1474B020098711921F8
:104C9C00280003F061FE64200BF041FB434B29001C
:104CAC001A78374B18782300FEF752FF3E4B9B794E
:104CBC00602B00D0E7E6FA21012089000CF0B8FF48
:104CCC003B4B1B78002B00D1DDE63A4A3A4913885E
:104CDC003000013313803B00320010F0C1FFD2E6EC
:104CEC000298FBF713FA040009A8FBF70FFA013C32
:104CFC00221A0399264811F008F80298FBF706FAD5
:104D0C00040009A8FBF702FA013C221A92B21721FF
:104D1C00280003F021FE3A002849300010F0A0FFD3
:104D2C003378002B0DD03000FBF7F0F9079B002BEC
:104D3C0007D0012382B2009331003133069809F079
:104D4C004BF93000FBF7E2F900210200300010F0C3
:104D5C008DFDABE7992231009200029814E7C04612
:104D6C002012002048A801084CA80108C7A9010876
:104D7C009EA8010815A50108A5A80108E6A8010828
:104D8C005D100020EAA8010811A90108120D0020ED
:104D9C00210F002036A90108F0110020AC0E0020D4
:104DAC0053A901087FA901081C6C00209F0A002050
:104DBC00F0100020FA160020A7A9010886A9010806
:104DCC000121F0B5494287B001200CF031FF0023DE
:104DDC0002AAD373E1260BF09BFB4A4B03909B6812
:104DEC003603494DB3420BD001242B78A34203D098
:104DFC003100200009F050F90134E4B2062CF4D152
:104E0C00424B434C1A8806235343424A29789B1839
:104E1C00414A200012780091404910F021FFA42251
:104E2C000A2392003E49287809F0FCF82000FBF791
:104E3C006DF9210082B20A23287809F0F3F80024D6
:104E4C00384F2B78FB18013B1E7828783F2E0CD856
:104E5C00411E354A8B01D218935D002B31D002AF25
:104E6C00FB73002393552F4B5E540F2102AE0A2384
:104E7C000122891909F0D6F802ABDB7B0D2B29D165
:104E8C002878033B0222294909F0CCF8284F294EF7
:104E9C00002C03D13900300010F01EFF039B3200B0
:104EAC0028780121FFF7CAFD3100380010F014FFFB
:104EBC0032220021300010F0D9FC00240BF05AFCF7
:104ECC00BEE73F2E01D11E007B5401360BF052FC85
:104EDC00B6B2BAE70A2BF1D0082B08D1002CEDD0D2
:104EEC000021013C134AE3B25CB2D154E6E71A004C
:104EFC00203A5E2AE2D8312CE0DC0E4A13550134FC
:104F0C0064B2DBE71C6C00209F0A002050000020DC
:104F1C00F21100205EA501085D1000201BAA0108FB
:104F2C0046AA0108DD1300209D1200207EBF010857
:104F3C00BE11002028110020F8B5184B04001A7877
:104F4C001423013A5A43164B0D009B18DB68181EAC
:104F5C0009D0144E3368002B00D1346034682078AB
:104F6C00002801D13060F8BD1321200010F0A6FEFE
:104F7C00071E08D0021B21002800013710F0C5FEC7
:104F8C0037600120EFE72100280010F0A5FE280073
:104F9C00FBF7BCF824183460F3E7C046F11100208D
:104FAC00386C00201C120020142337B558432D49AF
:104FBC000B5C012B03D0032B0DD000200AE009233E
:104FCC0009188A785343284A985CCB78C01A434214
:104FDC005841C0B23EBD0C230C18E2780630013AA1
:104FEC005343224A41189B5801A804221D6810F013
:104FFC0034FC607801380528DFD8FBF799F8030CEE
:10500C001221272C291C01980124FBF77BFA00287C
:10501C0014D1002412E0291C01980124FBF778FA22
:10502C00F5E7291C0198FBF787FA0028C5D0002169
:10503C00281C0124FBF766FA0028EAD1E0B2C9E784
:10504C00291C01980124FBF76DFAE0E7291C019853
:10505C00FBF77CFAE9E7291C0198FBF753FA0028C7
:10506C00E5D0AAE7386C0020941400208C000020B6
:10507C00F8B50BF04DFA00240600174B1A78A3B2C2
:10508C009A4201D80020F8BD14256543134BED1846
:10509C002B7C002B01D10134EFE7E0B2FFF784FF4A
:1050AC000028F8D020220E4B9A710E4FE868390078
:1050BC00FFF742FF0028EED00B4B3A001878002186
:1050CC003300FFF7BBFC3000FBF720F80021020097
:1050DC00300010F0CBFBE8E7F1110020386C002019
:1050EC001C6C00208C1100209F0A002000207047AF
:1050FC00F0B5002585B00400170002950395A84271
:10510C0001D172B6FEE702AA012138000BF004FAB5
:10511C000023C3566826702B05D1013010F013F90B
:10512C002E00C3B2019303AA022138000BF0F4F94C
:10513C0010F009F90500682E06D10949200010F07D
:10514C00CBFD002005B0F0BD0100019808F0A4FFD4
:10515C00019B2A000349200010F082FDF1E7C046B4
:10516C0008B601081BB6010810B5002801D172B6AB
:10517C00FEE7044B04491A6892B210F071FD00204E
:10518C0010BDC046CCF7FF1F34B00108002313B587
:10519C0000930023040001931000002C01D172B67F
:1051AC00FEE76A4601210BF0B7F90378323B012B7D
:1051BC0010D810F0C8F801A9C0B202F01DFE019879
:1051CC00FDF7DCFD02000B002000054910F048FD46
:1051DC00002016BD0349200010F07EFDF8E7C04604
:1051EC0020AD010843AD0108002313B5041E009344
:1051FC00019301D172B6FEE701A9684602F044FDA5
:10520C006946200010F068FD0198FDF7B7FD02001B
:10521C000B002000024910F023FD002016BDC046F3
:10522C008CAD0108002313B5041E0093019301D12A
:10523C0072B6FEE701A9684602F026FD6946200019
:10524C0010F04AFD0098FDF799FD02000B002000BC
:10525C00024910F005FD002016BDC04658AD0108EE
:10526C000023F0B585B001930293002304001600CF
:10527C000393002801D172B6FEE701AA0121300088
:10528C000BF04AF90500022102AA30000BF044F998
:10529C002B780700323B1849012B29D8280010F035
:1052AC0052F8164EC5B231003800FAF725FF002827
:1052BC0005D013493800FAF71FFF002817D1310029
:1052CC00280002F059FE03AA3100280002F080FEEB
:1052DC0003A9200010F000FD0398FBF78BF9094996
:1052EC0082B2200010F0BCFC002005B0F0BD0649D5
:1052FC00200010F0F1FCF7E743AD010850D0010895
:10530C00D7AC0108DEAC0108EEAC01080023F0B507
:10531C0087B005934E4B04AE1B780400337010001D
:10532C00002C01D172B6FEE7012105AA0BF0F4F8AE
:10533C0048490500FAF7E0FE00285AD101256427F8
:10534C00454B1A78454B9B18013B1B780293EBB2EB
:10535C000393414BEAB21B7893423DD010F09EFA76
:10536C0004AE30700A23012231000097E8B208F035
:10537C0033FEE8B208F024FE036832789B8CDBB273
:10538C009A422FD12A003649200010F069FC2000E7
:10539C00FAF7BCFE304B82B2210018780A23009732
:1053AC0008F01AFE2F49200010F096FC2000FAF7A6
:1053BC00ADFE294E82B20A2330782100009708F006
:1053CC000BFE029B28495A1C3378013B9B01CB18DE
:1053DC009B5C002B09D002920135062DB7D1002021
:1053EC0007B0F0BD2A002149CEE701200CF088FE61
:1053FC00E7E70023EB561E49702B24D1681C0FF0F5
:10540C00A2FFC7B27B1E05001A49042B1BD810F053
:10541C0045FA642330700122310000933800323B8E
:10542C0008F0DAFD380008F0CBFD036831789B8C6E
:10543C00EAB2DBB2994204D10949200010F010FC09
:10544C00CDE70A49F9E7200010F046FCC7E7C04653
:10545C0098A101082EA501089F0A0020DD13002049
:10546C003BC8010868C801089D12002056C80108F5
:10547C00D7C80108BCC80108F0B5002685B00400E7
:10548C00170002960396B04201D172B6FEE702AA4B
:10549C00012138000BF040F800236722C35601921B
:1054AC00702B04D101300FF04EFF0196C5B203AA48
:1054BC00022138000BF030F80023C356702B04D0B7
:1054CC000F49200010F008FC12E001300FF03BFFF8
:1054DC00019B0600C1B2002BF2D12800FFF752F855
:1054EC00002808D1F3B22A000649200010F0B8FBBE
:1054FC00002005B0F0BD6728E2D00349E1E7C046C3
:10550C00D7C8010860C901087DC90108F0B500269B
:10551C0085B00400170002960396B04201D172B612
:10552C00FEE702AA012138000AF0F6FF00236722E9
:10553C00C3560192702B04D101300FF004FF019679
:10554C00C5B203AA022138000AF0E6FF0023C356B5
:10555C00702B04D00F49200010F0BEFB12E001307C
:10556C000FF0F1FE019B0600C1B2002BF2D1280016
:10557C00FEF7F6FF002808D1F3B22A0006492000F6
:10558C0010F06EFB002005B0F0BD6728E2D0034997
:10559C00E1E7C046D7C80108B0AE0108D3AE010898
:1055AC00F0B5002585B00190019B10000395AB422E
:1055BC0001D172B6FEE703AA01210AF0ADFF0FF08C
:1055CC00BCFEC4B2002C40D0214B1B78A3423CD370
:1055DC001423C0B2013858431E4F2900C61902309B
:1055EC0035800422C01910F041F93574F0680FF0C1
:1055FC00F1FEF5601425164B1B78A3420BD8144A08
:10560C00013B137004F070FE1349019810F064FB19
:10561C00002005B0F0BD2B006343FB5C002B11D0C8
:10562C00631E6B43180014303A181100FB18944693
:10563C0045C945C31A0009C909C22A0000216046A0
:10564C0010F014F90134E4B2D5E70449DDE7C046A3
:10565C00F1110020386C0020B8AF0108EEAF010842
:10566C0037B50025040001951000AC4201D172B68B
:10567C00FEE701AA01210AF04FFF0FF05EFEC3B254
:10568C00002B12D00A4A12789A420ED31423C0B2BD
:10569C00013843430748C018057404F025FE064939
:1056AC00200010F019FB00203EBD0449F8E7C0466D
:1056BC00F1110020386C0020CCB30108EEAF0108CA
:1056CC00002313B50400019310009C4201D172B663
:1056DC00FEE701AA01210AF01FFF0FF02EFEC3B254
:1056EC00002B13D00A4A12789A420FD31423C0B25B
:1056FC00013843430748C0180123037404F0F4FD38
:10570C000549200010F0E8FA002016BD0349F8E71F
:10571C00F1110020386C0020C4AD0108EEAF010877
:10572C00F0B561498DB004000E22023108A810F0CA
:10573C0094F8002C01D172B6FEE75C4B3722187836
:10574C0001235B4200935A49333308F045FC002691
:10575C00731CDBB20593574B1B78B34206D85649E2
:10576C00200010F0B9FA00200DB0F0BD14237343E3
:10577C00524D5A5D002A0AD00722EB181B7C504967
:10578C00534308AAD3182000059A10F069FA14277D
:10579C007743EB5D0493012B1FD0032B54D01423C0
:1057AC005E43464B9E19474DF0682900FFF7C4FB3A
:1057BC0000286AD14449200010F072FA2000FAF750
:1057CC00A5FC3A4B82B2187801235B42009321006E
:1057DC00333308F001FC059EBAE7EF19F878FA6844
:1057EC0005380928DBD8FAF799FC0510DADA18180D
:1057FC001825252514237343ED18AB78009222004D
:10580C003249200010F02CFAC9E714237343ED1829
:10581C00AB782F4900922200F3E714237343ED1861
:10582C00AB7801922A792B4900922200200010F0CB
:10583C0017FAB4E714237343ED18AB7801922A7965
:10584C00254900922200F1E7B91D6918ED190C27C2
:10585C00042207A810F001F8EB780798013B5F438E
:10586C001E4BDF19FDF78AFA029003916B78049AAC
:10587C00013B5A4313001A4A1A49D3180093BB68C8
:10588C002200200010F0ECF989E722002B001649C9
:10589C00200010F0E5F92800FAF738FC002102008E
:1058AC0028000FF0E3FF7EE798A101089F0A002073
:1058BC0020B80108F1110020E2B80108386C002072
:1058CC0058B8010821120020D6B8010864B80108A4
:1058DC0075B801088DB80108A5B801088C00002026
:1058EC0090B30108BEB80108CEB8010810B5041E6B
:1058FC0001D172B6FEE70CF015FC124B80B2C01849
:10590C00114908281CD8FAF713FC151B191B051391
:10591C001B1B17000D4A200010F0A2F90CF0FCFB29
:10592C002200030B0A49200010F09AF9002010BD48
:10593C00084AF0E7084AEEE7084AECE7084AEAE7C3
:10594C00084AE8E7C0FBFFFFA6B201089CB20108B9
:10595C00E9B20108B9B20108C3B20108CDB201081D
:10596C00D7B20108E1B2010810B5041E01D172B61C
:10597C00FEE707F0EDFBFEF7BBFD0349020020003C
:10598C0010F06EF9002010BDFCAE01080023F7B535
:10599C000400160000930193984201D172B6FEE701
:1059AC006A46012130000AF0B7FD534B04225349DB
:1059BC000700186010F098F900285DD1009B3E1D7F
:1059CC001D1F2A004E49300010F08EF900280DD111
:1059DC004C4B9B79602B05D14B4A4C49200010F065
:1059EC003FF977E0202B0ED1494AF6E72A004949C6
:1059FC00300010F079F900280BD1424BDB79032BE6
:105A0C00EAD0012BF0D0444A002BE6D03A004349AF
:105A1C00E4E72A004249300010F066F9002803D16F
:105A2C00384B9A683F49D9E72A003F49300010F0BB
:105A3C005BF9002802D1334B1A88F3E72A003B4963
:105A4C00300010F051F9002802D12E4B5A88E9E7AA
:105A5C002A003749300010F047F9002802D1294BB1
:105A6C001A79DFE72A003349300010F03DF900289D
:105A7C0032D1244B5A79D5E705222F49380010F042
:105A8C0033F9051E28D1300001AA02210AF044FD89
:105A9C0006002A4F0A2169433000C919FAF72CFB7A
:105AAC0000281ED001350A2DF4D13200244995E787
:105ABC006B1E244A5B009B5A1E4205D02B00220011
:105ACC002149200010F0CCF80135EDB21F4B1B78AA
