:020000040800F2
:1000000000800020E9D6000875D70008A9C30008C1
:1000100000000000000000000000000000000000E0
:1000200000000000000000000000000051FD00087A
:10003000000000000000000005FE00089DC300084D
:1000400075D7000875D7000875D7000875D7000860
:1000500075D7000875D7000875D7000875D7000850
:1000600075D7000801C400080DC4000845C4000885
:1000700075D7000875D7000875D7000875D7000830
:1000800075D7000875D7000875D7000875D7000820
:1000900075D70008ADC3000875D7000875D70008EC
:1000A00075D7000875D7000875D70008BDC30008CC
:0C00B000CDC30008DDC3000875D70008B0
:1000BC0010B5064C2378002B07D1054B002B02D032
:1000CC00044800E000BF0123237010BD880A002003
:1000DC0000000000F4A90108044B10B5002B03D05C
:1000EC000349044800E000BF10BDC04600000000FA
:1000FC008C0A0020F4A9010802780B78002A03D09E
:10010C00013001319A42F7D0D01A70470023C25CFB
:10011C000133002AFBD1581E7047000002B471460F
:10012C0049084900095649008E4402BC7047C04634
:10013C0002B4714649084900095C49008E4402BC6E
:10014C007047C04603B47146490840004900095E37
:10015C0049008E4403BC704703B471464908400003
:10016C004900095A49008E4403BC704700224308D9
:10017C008B4274D303098B425FD3030A8B4244D363
:10018C00030B8B4228D3030C8B420DD3FF220902A5
:10019C0012BA030C8B4202D31212090265D0030B64
:1001AC008B4219D300E0090AC30B8B4201D3CB035A
:1001BC00C01A5241830B8B4201D38B03C01A52419C
:1001CC00430B8B4201D34B03C01A5241030B8B429E
:1001DC0001D30B03C01A5241C30A8B4201D3CB0289
:1001EC00C01A5241830A8B4201D38B02C01A52416E
:1001FC00430A8B4201D34B02C01A5241030A8B4271
:10020C0001D30B02C01A5241CDD2C3098B4201D388
:10021C00CB01C01A524183098B4201D38B01C01A06
:10022C00524143098B4201D34B01C01A524103097D
:10023C008B4201D30B01C01A5241C3088B4201D32C
:10024C00CB00C01A524183088B4201D38B00C01AD9
:10025C00524143088B4201D34B00C01A5241411A00
:10026C0000D20146524110467047FFE701B500200D
:10027C0000F0F0F802BDC0460029F7D076E77047D1
:10028C0003460B437FD4002243088B4274D30309EB
:10029C008B425FD3030A8B4244D3030B8B4228D38C
:1002AC00030C8B420DD3FF22090212BA030C8B42B2
:1002BC0002D31212090265D0030B8B4219D300E052
:1002CC00090AC30B8B4201D3CB03C01A5241830BD7
:1002DC008B4201D38B03C01A5241430B8B4201D387
:1002EC004B03C01A5241030B8B4201D30B03C01AB0
:1002FC005241C30A8B4201D3CB02C01A5241830A2A
:10030C008B4201D38B02C01A5241430A8B4201D358
:10031C004B02C01A5241030A8B4201D30B02C01A82
:10032C005241CDD2C3098B4201D3CB01C01A5241E9
:10033C0083098B4201D38B01C01A524143098B4272
:10034C0001D34B01C01A524103098B4201D30B015B
:10035C00C01A5241C3088B4201D3CB00C01A524180
:10036C0083088B4201D38B00C01A524143088B4245
:10037C0001D34B00C01A5241411A00D201465241DE
:10038C00104670475DE0CA0F00D04942031000D3FD
:10039C004042534000229C4603098B422DD3030A52
:1003AC008B4212D3FC22890112BA030A8B420CD362
:1003BC00890192118B4208D3890192118B4204D38B
:1003CC0089013AD0921100E08909C3098B4201D30B
:1003DC00CB01C01A524183098B4201D38B01C01A45
:1003EC00524143098B4201D34B01C01A52410309BC
:1003FC008B4201D30B01C01A5241C3088B4201D36B
:10040C00CB00C01A524183088B4201D38B00C01A17
:10041C005241D9D243088B4201D34B00C01A5241EE
:10042C00411A00D20146634652415B10104601D37B
:10043C004042002B00D54942704763465B1000D305
:10044C00404201B5002000F005F802BD0029F8D0AB
:10045C0016E770477047C046D0400B1CD1409C46F5
:10046C00203AD34018435242634693401843704796
:10047C008446101C62468C46191C634600E0C0463C
:10048C001FB501F0BBFC002801D40021C8421FBDE0
:10049C0010B501F005FC4042013010BD10B501F063
:1004AC00ADFC002801DB002010BD012010BDC046B2
:1004BC0010B501F0A3FC002801DD002010BD0120C7
:1004CC0010BDC04610B501F027FC002801DC00204F
:1004DC0010BD012010BDC04610B501F01DFC002858
:1004EC0001DA002010BD012010BDC0468446081C56
:1004FC006146FFE71FB500F04FFB002801D4002137
:10050C00C8421FBD10B500F0D3FA4042013010BDF7
:10051C0010B500F041FB002801DB002010BD0120CC
:10052C0010BDC04610B500F037FB002801DD0020DF
:10053C0010BD012010BDC04610B500F0E1FA002836
:10054C0001DC002010BD012010BDC04610B500F02C
:10055C00D7FA002801DA002010BD012010BDC046DA
:10056C00002B11D1002A0FD1002900D1002802D074
:10057C000021C943081C07B4024802A1401802908C
:10058C0003BDC046D1FEFFFF03B4684601B5029817
:10059C0000F0B6F8019B9E4602B00CBC7047C046FA
:1005AC00F0B515042D0C0F0001002E00C646844634
:1005BC000004140C000C090C46434D43604361438A
:1005CC004019340C241800B5A54203D980204002F0
:1005DC0080464144250C6D18614659437A433004DA
:1005EC0049192404000C2018891880BCB846F0BDA9
:1005FC009E2110B5C905041CFFF7A8FF002803D1E4
:10060C00201C00F0DBFC10BD9E21201CC90500F055
:10061C000DFB00F0D3FC80231B069C466044F2E7E4
:10062C0070B500220C4B04000D00FFF755FF00289D
:10063C0004D12000290002F06DFA70BD064B002297
:10064C002000290001F0B6FE02F064FA80231B069C
:10065C009C466044F1E7C0460000E04170B50500DF
:10066C000C000022002328002100FFF717FF0028B0
:10067C0008D12800210000F00FF802000B00100038
:10068C00190070BD80231B06E118280000F004F847
:10069C00002342428B41F2E770B500220B4B0D0058
:1006AC00040001F01BFCFFF7BBFF060002F098FAF8
:1006BC000022074B01F012FC02000B002000290065
:1006CC0001F078FEFFF7ACFF310070BD0000F03D8B
:1006DC000000F04170B50600080002F051FA00224B
:1006EC00064B01F0FBFB0D000400300002F078FA21
:1006FC002B00220000F082FC70BDC0460000F041CF
:10070C00F0B557464E464546DE46E0B504000D00B2
:10071C009246994683B08B4230D82DD049465046EC
:10072C0002F072FB29000600200002F06DFB331A68
:10073C009846203B9B4633D45A46534693404246F8
:10074C001F00534693401E00AF423AD8AF4200D12F
:10075C0078E05B46A41BBD41002B00DA75E000225B
:10076C0000230092019301235A46934001930123E5
:10077C0042469340009328E08242CFD900220023C6
:10078C00009201930C9B002B01D01C605D600098C3
:10079C00019903B0F0BCBB46B246A946A046F0BDD9
:1007AC00424620239B1A5246DA40414613004A46E1
:1007BC008A40170042461F43534693401E00AF42E7
:1007CC00C4D900220023009201934346002BD9D0B8
:1007DC00FB0772081A4346467B080EE0AB4201D178
:1007EC00A2420CD8A41A9D41012024196D4100216C
:1007FC00013E24184D41002E06D0AB42EED9013EED
:10080C0024196D41002EF8D1009801995B4600190E
:10081C006941002B24DB2B005A464446D3402A0066
:10082C00E2401C005B461500002B2ADB26009E4094
:10083C00330026004746BE403200801A9941009092
:10084C0001919FE7A342BCD883E7424620230021B5
:10085C009B1A0022009101920122DA40019286E754
:10086C00424620239B1A2A0046469A402300F34016
:10087C00444613432A00E2401C005B461500002B43
:10088C00D4DA42462F002023260097409B1ADE40E4
:10089C003B003343CDE7C046F0B54F464646D646FF
:1008AC004502C0B547000C1C6D0A3F0EC60F002F49
:1008BC0066D0FF2F6CD00023EA00802599469A461B
:1008CC00ED0415437F3F60026100430A9846090E10
:1008DC00E40F002948D0FF2910D08022D800D20480
:1008EC000243904600207F394A4633007F1A024368
:1008FC006C4992008A586340DBB29746002B6DD14D
:10090C000220FF3F33E000239846260045468246EE
:10091C005346022B00D17FE0032B00D194E0012B36
:10092C0017D038007F3000285FDD6B0704D00F2311
:10093C002B40042B00D004352B0103D538005A4B27
:10094C0080301D40FE2867DCAD016D0AC0B202E0AC
:10095C001E0000200025C0052843F6073043E0BCEC
:10096C00BA46B146A846F0BD002B2BD101204A4611
:10097C0033004E49024392008A586340DBB29746DB
:10098C00002D13D104239946033B00279A469AE77E
:10099C00002D05D108239946063BFF279A4692E77E
:1009AC000C239946093BFF279A468CE7280002F056
:1009BC000DFA7627431F9D4000237F4299469A46A5
:1009CC003F1A80E7180002F001FA4246431F7621D5
:1009DC009A404942091A9046002085E7FF210320DE
:1009EC0082E71E00FF200025B5E701231B1A1B2BF5
:1009FC00AFDC9E372900BD40D9406A1E95410D439E
:100A0C006B0704D00F232B40042B00D004356B0153
:100A1C0044D5012000259EE7FF2000259BE780257B
:100A2C000026FF20ED0396E7002398468020C003A4
:100A3C00054209D04346034206D1454605436D02A3
:100A4C002600FF206D0A86E78020C00305436D0257
:100A5C00FF206D0A7FE741466A014801824219D2A4
:100A6C001B210025013F012614006D005200002CB3
:100A7C0001DB904201D8121A354301390029F3D118
:100A8C00501E824138007F301E001543002800DDC7
:100A9C004BE7AAE71A210125121AE4E7AD01002061
:100AAC006D0A58E720AA0108FFFFFFF760AA0108AA
:100ABC0070B542004E024C0045026D0A120EC30F77
:100ACC00760A240EC90FFF2A0FD0FF2C11D001205B
:100ADC00A24200D070BDB542FCD18B420DD0002A91
:100AEC00F8D12800451EA841F4E70120002DF1D1D2
:100AFC00EBE70120002EEDD1E9E70020EAE7C04644
:100B0C00F0B5420046024D024C00C30F760A120E9D
:100B1C006D0A240EC80FFF2A1FD0FF2C10D0002AFC
:100B2C001FD171427141002C01D1002D1ED0002922
:100B3C000ED183421ED00221581E08400138F0BD50
:100B4C00002D26D1002AF4D1714271410029F0D038
:100B5C000028F4D101204042F1E7002E19D1FF2CDE
:100B6C00EED0002CE5D1002DE3D1E4E70020002EDF
:100B7C00E5D0E0E7A24205DCEADBAE4202D8E7D3DF
:100B8C000020DCE741424141484202210840013843
:100B9C00D5E702204042D2E7F0B5420046024D02B2
:100BAC004C00C30F760A120E6D0A240EC80FFF2AD2
:100BBC000DD0FF2C0FD0002A23D171427141002C93
:100BCC000FD1002D0DD10020002E14D00DE0002EE1
:100BDC0010D1FF2C15D1002D0CD1002A03D171425C
:100BEC007141002908D1834210D00221581E0840BF
:100BFC00013800E00220F0BD0028FCD10120404269
:100C0C00F9E7002CEFD1002DEDD1EEE7A24205DC87
:100C1C00F2DBAE4202D8EFD30020ECE74142414177
:100C2C004842022108400138E5E7C046F0B5464687
:100C3C00D6464F4643025B0ADA0094464A02C0B5D8
:100C4C004400560A051CB046240E4E0092091F00A3
:100C5C0020009246ED0F360EC90FFF2E00D17FE01B
:100C6C00012251408D4251D0A21B9146002A00DC3A
:100C7C007EE0002E00D199E0FF2C00D18CE0802387
:100C8C005246DB041A4392464A4601231B2A08DCCF
:100C9C0053462021D340891A52468A40511E8A411C
:100CAC0013436246D31A5A0100D4F3E09B019E0908
:100CBC00300002F08BF805388640844200DDF7E006
:100CCC003200041B20200134E240041BA6403300F8
:100CDC005E1EB341002413435A0704D00F221A405E
:100CEC00042A00D004335A0100D4D6E0621CFE2C36
:100CFC0000D1DAE09B015F0AD0B2C0053843ED07A2
:100D0C002843E0BCBA46B146A846F0BDA21B9146AA
:100D1C00002A63DD002E00D199E0FF2C3CD080230B
:100D2C005246DB041A4392464A4601231B2A08DC2E
:100D3C0053462021D340891A52468A40511E8A417B
:100D4C00134363445A0100D4A4E00134FF2C00D1B6
:100D5C00ABE0012297491A405B080B401343BBE7F9
:100D6C00002A32D08D4235D0FF2252429146A14406
:100D7C004A46002A51D0301B002C00D09CE0634620
:100D8C00002B00D1DFE00138002800D1F7E0FF2E66
:100D9C0000D099E00D004346002B00D185E0802760
:100DAC00FF031F437F02FF207F0AA6E75246002A5B
:100DBC0074D0012252429046C1444A46002A00D1C6
:100DCC00C8E0FF2C00D05FE7E6E701225140A942C2
:100DDC0000D049E7FF2252429146A1444A46002ADC
:100DEC0043D0311B002C00D18CE0FF2E00D192E0BF
:100DFC0080236246DB041A43944601231B2909DC39
:100E0C00202063466246CB40411A8A401100481E9E
:100E1C0081410B433400534494E7FE22661C32425A
:100E2C0064D1002C00D082E06346002B00D1ABE0F3
:100E3C005346002B00D160E7634652469B1A5A0179
:100E4C0000D4AAE0634652460D00D31A44E752463A
:100E5C00002A23D0012252429046C1444A46002A1D
:100E6C0075D0FF2C00D05FE796E7FE2601342642B2
:100E7C0053D1002872D16346002B00D193E0534626
:100E8C00002B00D139E7634400245A0102D54A4AA9
:100E9C00013413405A0700D020E7DB08FF2C00D1A7
:100EAC007AE75B025F0AE0B227E7FF20002724E71E
:100EBC00414B241A33400FE7FF2E00D16AE7802301
:100ECC006246DB041A43944601231B2809DC2024C8
:100EDC0063466246C340201A82401000441EA04163
:100EEC00034352460D003400D31ADCE663465246E7
:100EFC009E1A730117D4002E00D0D9E600250020CD
:100F0C000027FAE66346002B44D0013900294CD067
:100F1C00FF2E00D071E743463EE7FF2CC5D052466A
:100F2C0062445308B6E763460D00D61AC0E6624623
:100F3C00002A16D15346002B00D02BE78027002522
:100F4C00FF20FF03D9E60D0043463400A6E75346C5
:100F5C006344F7E6634652469B1AA4E66246002AAF
:100F6C00D9D05246002A00D116E78022D203134270
:100F7C0000D111E74046104200D00DE70AE7524677
:100F8C000D003400D31A8EE65346002B08D00D000A
:100F9C004746B2E64346340080E7002B00D079E7A1
:100FAC0000250027A9E64746A7E6534634006344CC
:100FBC00C8E6C046FFFFFF7DFFFFFFFB410242007A
:100FCC00C30F490A0020120E7E2A03D99D2A02D98A
:100FDC00094A98187047802000040143952A07DCC1
:100FEC009620821AD1404842002BF3D10800F1E739
:100FFC00963A9140F7E7C046FFFFFF7FF0B54F46AA
:10100C00D64646460D0001001800C0B517002B034C
:10101C005A0A4B0F1343CA00914602036E0041005B
:10102C00520AEC0F7D0F1543760D490DC00F824609
:10103C00AC46FF00721A844200D198E0002A00DC12
:10104C0081E0002900D1B6E0C9498E4200D172E19D
:10105C0080212800090408438446382A00DD5EE11B
:10106C001F2A00DDEEE1202039006546801A8740FA
:10107C00D14085400D4339004F1EB9416746D740DA
:10108C002943DB1B4A46551AA945894149425B1A3B
:10109C00984643461B0200D4CCE043465B025B0AF5
:1010AC0098464346002B00D12CE1404601F08EFEC1
:1010BC0001000839202228004346521A8B40D040A8
:1010CC008D4003438E4200DD17E18E1B721C1F2ADC
:1010DC0000DDA7E1202118002E00891A8D408840E0
:1010EC00D640D340691E8D413043984600260543B7
:1010FC006B0709D00F232B40042B05D02B1DAB42C3
:10110C00AD416D42A8441D0043461B0200D494E03F
:10111C00974B721C9A4200D19DE04146954BED08CD
:10112C0019400B00520549075B0229431B0B520D5A
:10113C0012051343E407234308001900E0BCBA4628
:10114C00B146A846F0BD002A43D08A1B002E00D021
:10115C002AE14C461C4300D1D1E1541E012A00D196
:10116C001FE2834DAA4200D172E2220023E1002A41
:10117C0000DC98E0002942D07D498E4200D1DAE0B3
:10118C0080212800090408438446382A00DD29E11F
:10119C001F2A00DC87E1110065462039CD40202A4A
:1011AC0004D040206146821A91400F4339004F1EF3
:1011BC00B9410D431BE12900394300D1B5E0511E63
:1011CC00012A00D1ABE16A48824200D1B2E10A00A7
:1011DC0043E76949751C0D4200D0CFE0002E00D0CA
:1011EC0093E14946194300D1D1E16146394300D01E
:1011FC00E3E149465807C9080143DB0826E029000A
:10120C00394300D191E0511E012A05D05848824241
:10121C0000D18FE10A00B8E73D004D444D458941AE
:10122C006344984649428844434602261B0200D533
:10123C00EBE0013E6B0700D05CE74346E9085A0738
:10124C0011433200DB084A48824221D01B0352056D
:10125C001B0B520D6CE70023002169E72A003A436F
:10126C0069D04A465807D108DA0880231B03084383
:10127C001A4207D02900ED081D4203D12A00FF08AD
:10128C0048073843430FC1005B07C90819431300D3
:10129C000A001A4300D113E28022120313431B03EA
:1012AC00334A1B0B44E7002A4BD08A1B002E00D17B
:1012BC00E7E02F48814200D195E1802000040343F0
:1012CC00382A00DD43E11F2A00DDDBE120201D0070
:1012DC004E46801A8540D64035434E4686403000F7
:1012EC00D340461EB0419C440543ED19BD429B4181
:1012FC005B42634498460E007FE01E4A761A134008
:10130C009846F5E6280001F061FD010018311F290F
:10131C0000DCCFE62B00083883400025D2E662467D
:10132C003A4311004F1EB941ACE649465807C9086B
:10133C000143DB0887E749465A07C9081143DB0814
:10134C00A6E70D49701C084200D0BBE0002E00D06F
:10135C0014E14946194300D175E12900394300D005
:10136C007EE149465807C9080143DB086EE7C046D1
:10137C00FF070000FFFF7FFFFE0700004946CD1B63
:10138C006146581AA94589414942884601004046A0
:10139C00091A8846090200D5A6E04146294300D027
:1013AC007FE60023002451E7C74CA14200D1C7E0DF
:1013BC00802424042343382A54DC1F2A00DDCCE08B
:1013CC0020244846A41A1D004E46A040D640A540F5
:1013DC000400D34062463543661EB441D31A9C4682
:1013EC00254344E062463A4315006F1EBD414D440F
:1013FC004D45894149428846984443461B0200D4D6
:10140C0018E7B14B01369E4249D04246AF4B012101
:10141C001A4013006A080D401543D9075B0898461B
:10142C000D4365E618001F3EF040202A03D04021F2
:10143C008A1A93401D43691E8D410023002698464D
:10144C000543F7E6110065462039CD40202A04D02B
:10145C0040206146821A91400F4339004F1EB9411A
:10146C0029430FE64A4613431D006B1E9D417D1B0D
:10147C00AF429B4162465B42D31A984654460E00DB
:10148C0007E64846184300D1B3E0501E012A00D1AC
:10149C000DE18D4DAA4200D1A5E0020010E732000B
:1014AC000023002144E620213800891A65468F402C
:1014BC008D40D040791E8F4105433D436746D74050
:1014CC00DB1994E7804A904200D1ECE039004944A2
:1014DC0049459241634452429B18DD0749085B0819
:1014EC00984606000D43A5E64A46BD1AAF4289410F
:1014FC0062464942D31A5B1A98465446D1E56C07AA
:10150C00F9082143EB0804009DE64A461A4375D1BD
:10151C006146394314D1802300241B03BCE64A46A0
:10152C00D51BA9458941624649429B1A5B1A9846CC
:10153C000126AEE54A46D1085A071143DB08A7E657
:10154C006346F9085A0754461143DB08A0E64A469D
:10155C0013431D006B1E9D41C7E614001E00203C6A
:10156C00E640202A05D04024A21A93404A461A434A
:10157C0091464D466B1E9D41354378E74A461A43CA
:10158C0000D06BE66B07F9081943EB0880E661465F
:10159C00394354D06346F9085C072143DB08040047
:1015AC0054E64A46BD1AAF42894162464942D31AB3
:1015BC005B1A9846040001266BE54A46D51BA945E3
:1015CC008941624649429A1A521A9046120232D501
:1015DC004A46BD1AAF42894162464942D31A5B1A48
:1015EC009846040084E56346F9085A071143DB0862
:1015FC004EE6F90868070143EB0824E662463A43D5
:10160C0000D198E64A46D1085A071143DA088023DC
:10161C001B031A4208D06046C5081D4204D154462B
:10162C002A00F908430719434B0FC9005B07C90887
:10163C00194313002CE64146294300D0FAE5002358
:10164C000A00002402E66B07F9081943EB08FDE5D4
:10165C006346F9085B07194363460400DB0817E689
:10166C003D004D4463444D45894198464942884468
:10167C0043461B0200D4DDE54246144B01261A40BA
:10168C009046D7E510001E002038C640202A05D011
:10169C004020821A93404A461A4391464D466B1E8F
:1016AC009D41354321E602000023002140E54A46D6
:1016BC00D519BD4289416344984649428844B3E5F3
:1016CC000021014A0B0033E5FF070000FFFF7FFFFD
:1016DC00F0B557464E464546DE46E0B58146050018
:1016EC000C03480092461F0085B0240B400DCE0F12
:1016FC00002859D0874B984200D198E06B0FE4003A
:10170C001C4380231B0423439846834BED009B46CC
:10171C0000239946834400933C037B005046240BE2
:10172C005B0DFF0F002B67D07A4A934218D07A4991
:10173C00420F8C46E4005946144380226344120441
:10174C00CB1A14439B46C200002033007B409A46C0
:10175C004B460F2B00D9EFE070499B00CB589F46AE
:10176C006F4B52469C462243E344002A00D095E03E
:10177C00494602231943894600240220E5E7002349
:10178C000024002552461B052343D207134328008F
:10179C00190005B0F0BCBB46B246A946A046F0BD48
:1017AC00002400255B4BEDE74B462343984600D1C4
:1017BC0089E0002C00D1E0E1200001F007FB0100E2
:1017CC0002000B391D235B1A49461000D94008381A
:1017DC0084400B004D4623439846854051483C03BA
:1017EC00831A9B460023994600937B005046240B9A
:1017FC005B0DFF0F002B97D15246224355D0002C86
:10180C0000D1CAE1200001F0E1FA02000B3A1D23DD
:10181C0001009B1A52460839DA408C401443524658
:10182C008A40414B58449B46834400208DE74B46ED
:10183C002343984640D108239946063B002583460E
:10184C00009369E7B246009B022BA9D0032B00D171
:10185C0011E2012B93D0354A5A44002A00DC3CE1BA
:10186C006B0700D0A7E1ED084346DB0106D54246E5
:10187C002F4B1A4090468022D2005A442D4B9A424C
:10188C008EDC4346520558075C020543240B530D6E
:10189C0078E7BA46A04615000090D4E74A460323E1
:1018AC001A439146032052464FE7494601231943F8
:1018BC0089460024012048E70C239946093BA046A1
:1018CC008346009328E70423994600239B46013363
:1018DC000025009320E7002380249A4600250D4B19
:1018EC0024034FE7802341461B03194208D01C42B6
:1018FC0006D11C432403BA461500064B240B41E7C2
:10190C008024434624031C432403B246014B240B7E
:10191C0038E7C046FF07000001FCFFFFA0AA010842
:10192C0001F8FFFF0DFCFFFFF3030000FF030000B5
:10193C00FFFFFFFEFE070000444500D216E100D178
:10194C0011E101235B429C462E0040460025E344F6
:10195C002302140E1C431B0C994623041F0C120269
:10196C00494600920197FEF787FC02007A430B046C
:10197C00310C804619438A420BD901235B429C46A9
:10198C000919E0448C4204D88A4202D9831E984635
:10199C000919881A4946FEF76FFC09048C46310474
:1019AC006646019A090C4243030031438A4204D92A
:1019BC000919013B8C4200D811E1891A4246009E5C
:1019CC0012041A43330C1F00100C9046029313049C
:1019DC003204160C32001B0C5A4303967B434643CD
:1019EC007843170CBC469B1963449E4203D980264E
:1019FC007602B44660441E0C301816041B04360CD8
:101A0C009E19814200D29CE000D197E0AE1B091ACE
:101A1C00B54280414042081A844200D111E1494646
:101A2C00FEF72AFC019A0B044243310C05001943C2
:101A3C008A4207D90919013D8C4203D88A4201D93F
:101A4C00851E0919881A4946FEF716FC09048C46AE
:101A5C0031046646019A090C4243030031438A4221
:101A6C0007D90919013B8C4203D88A4201D9831E3C
:101A7C000919039E891A32002D041D43029F2B0461
:101A8C001B0C5A437B439C46280C4643130CB44412
:101A9C00634478439E4203D980267602B446604460
:101AAC001E0C12041B04120C30189B18814206D316
:101ABC0002D001231D43CEE6002B00D1CBE66118EA
:101ACC006E1EA14200D2A4E0814200D2C9E000D136
:101ADC00D9E03500EDE701256D420121891A38293D
:101AEC0000DD4CE61F2900DC7FE01F235B429A1AC5
:101AFC004346D340202904D04446654A5A44944076
:101B0C0025436A1E954107222B43150000241D40D6
:101B1C001A4200D1A1E00F2200241A40042A00D15D
:101B2C0098E01A1D9A429B415B42E4181300220272
:101B3C0000D48FE001230024002523E6B54200D316
:101B4C0064E743465A1E009B9C4665441F009D4219
:101B5C009B415B421B19C9188C423AD2884263D80C
:101B6C0060D0904652E7AA4200D9EAE64346DE0727
:101B7C0058086B081E43ED07EAE6484601F026F9C3
:101B8C0001000200153120321C2900DC1AE64B46FC
:101B9C00083883400025984620E601F017F9030029
:101BAC001A00153220301C2A00DC30E65446083B63
:101BBC0000229C4035E60F232B40042B00D152E62B
:101BCC0005235B42AB429B4104355B42ED089844D4
:101BDC004AE68C42C5D1AF42C0D9904616E78A423C
:101BEC0000D8EAE6831E0919E7E62A4A28005A4477
:101BFC00434695409340C8406A1E95414446034372
:101C0C002B43CC405A0792D00F221A40042A88D179
:101C1C008DE73500814200D04BE7009A934200D00B
:101C2C0047E718E6AE429CD902235B429C46009BD8
:101C3C00E0449C4665449D429B415B421B19C9187C
:101C4C00E4E6154A5A44002A00DC44E70123002547
:101C5C00984409E665076402240BDB081D43002346
:101C6C0090E5009E023D7200B242BF417F423C199A
:101C7C0009190092CEE78024434624031C43240315
:101C8C00064B240B7EE5009A9A42EAD33500C4E752
:101C9C003E0400001E040000FF030000FF070000CC
:101CAC00F0B54F464646D646944691461A03120B5B
:101CBC00184DC0B54C000F0392465A0006008046E2
:101CCC003F0B0120640DC90F520DDB0FAC420AD043
:101CDC00AA4203D0944201D157450DD0E0BCBA467C
:101CEC00B146A846F0BD3D003543F7D1A242F5D12F
:101CFC00524665462A43F1D10120C845EED199429E
:101D0C0006D0002CEAD13E433000461EB041E5E738
:101D1C000020E3E7FF070000F0B54E464546574666
:101D2C00DE4604001800E0B516001B031B0B324DF9
:101D3C000F034A0099464300A446B0463F0B520D90
:101D4C00C90F5B0DC00FAA4229D0AB4218D0002A94
:101D5C002AD13C43A34665426541002B02D14C4637
:101D6C00264327D0002D15D1814228D002200139DD
:101D7C0008400138F0BCBB46B246A946A046F0BDAF
:101D8C004D462E432FD1002AEED13C43654265418E
:101D9C00002DE9D00028EDD101204042EAE73D00BA
:101DAC00254320D19342EBD0002BDDD14C4626436A
:101DBC00DAD1DBE75B460020002BDBD0D6E79A427A
:101DCC000ADCE7DB4F45D1D810D000204F45D1D2EB
:101DDC000029E1D00800CDE743425841022340429C
:101DEC0018400138C6E702204042C3E7C445BDD8BD
:101DFC000020C445BED2EBE7FF070000F0B54E460D
:101E0C0045465746DE4604001800E0B516001B0395
:101E1C001B0B314D0F034A0099464300A446B046B4
:101E2C003F0B520DC90F5B0DC00FAA4211D0AB4234
:101E3C0014D0002A2FD13C43A34665426541002BA8
:101E4C0014D14C46264311D15B460020002B17D0F1
:101E5C0010E03D00254312D193421CD14D462E4338
:101E6C000DD1002A04D13C4365426541002D0DD1B2
:101E7C00814216D0022001390840013800E00220CE
:101E8C00F0BCBB46B246A946A046F0BD0028F7D12F
:101E9C0001204042F4E7002BEAD14C462643E7D11F
:101EAC00E8E79A4206DD434258410223404218407B
:101EBC000138E5E79A42E9DB4F45DBD806D0002034
:101ECC004F45DDD20029E3D00800D9E7C445D1D86D
:101EDC000020C445D4D2F5E7FF070000F0B5574603
:101EEC004E464546DE46E0B598460C034B000600D0
:101EFC00924687B0240B5B0DCF0F002B6CD0DD4AC4
:101F0C00934200D186E0420FE40014438022120475
:101F1C001443D94AC5009446634400930023994660
:101F2C009B46434642461E03D20F5B0050469046EA
:101F3C00360B5B0D00D178E0CE4A93421DD0CE49D2
:101F4C00420F8C4600996344F6008C46164380225F
:101F5C009C44120463461643C2000020009300996F
:101F6C00434601318C4649467B4001930F2900D9E9
:101F7C007EE0C24B890059588F465246009B324333
:101F8C0000D056E1BB4900268C4663444946009379
:101F9C000223194389460220E1E7434601933400AA
:101FAC00150083465B46022B5ED0032B00D1F3E178
:101FBC00012B00D018E1002200240025019B120502
:101FCC002243DB071A432800110007B0F0BCBB46C4
:101FDC00B246A946A046F0BD2500054300D141E11B
:101FEC00002C00D1ADE1200000F0F0FE0100020059
:101FFC000B391D2310005B1A310035000838844062
:10200C00D94085400C439E48831A0093002399467F
:10201C009B4686E70500254300D01CE1082200936F
:10202C000223002491469B467BE75246324300D163
:10203C000AE1002E00D176E1300000F0C7FE02006C
:10204C000B3A1D2301009B1A52460839DA408E4088
:10205C00164352468A40009B8949181A03008C4645
:10206C006344002000937AE700240025814AA5E709
:10207C002F0C2D042D0C2B00110C1204120C53439D
:10208C009846130028007B439946484348448346AE
:10209C0040460B00000C824658467B43504402934A
:1020AC00814506D99A4680235B029946CA44534619
:1020BC000293030C9B4643461B0400041B0C9846DE
:1020CC00030043440493330C99462B003604360C1E
:1020DC007343984633007B439A464B465D435F43BC
:1020EC0043465544180C4019824503D980235B02A2
:1020FC009A465744050CEB19059343461D042D0CC9
:10210C0000044019250C2404240C270057436A436F
:10211C0090462A003B0C9A464A4361434144514441
:10212C008344884503D980235B02984642443F048C
:10213C000B0C3F0C0904C919270098464B467743F2
:10214C005C436E435D433B0C9946A4194C4442449A
:10215C000395A64204D980235B0298464544039517
:10216C00029B3F045B441E0083428041230498463B
:10217C00059B3F0C4744984676188E42894147444C
:10218C0040423D18A846934649428A46C3449F4262
:10219C00BF4180458041039BDA44984653464042F8
:1021AC007F420743240C934592418A4589413F194C
:1021BC00DC0D049B75021D43681E8541534652423B
:1021CC0049420A43BF184744F60D7F0235435A0271
:1021DC003C431543FB0100D4C1E001216A080D40CA
:1021EC001543E2071543640826496144002956DD6E
:1021FC006B0709D00F222A40042A05D02A1DAA42B7
:10220C00AD416D4264191500E30104D580211E4ACD
:10221C00C900144061441D4A914200DD24E7620765
:10222C00ED08640249051543240B4A0DC6E60197D7
:10223C00B8E6104A0320944663444A4600930323AD
:10224C001A43914652468AE6494601231943894668
:10225C000026012083E60C220093032305009146FF
:10226C009B465EE604239946002300930133002429
:10227C009B4656E6FF07000001FCFFFFE0AA0108A1
:10228C000DFCFFFFFF030000FFFFFFFEFE07000039
:10229C00002380240025444A019324038EE6012068
:1022AC00401A382800DD86E61F285BDD1F2223003C
:1022BC005242511ACB401900202803D03B4A6244A9
:1022CC00944025436A1E95412A000A4307210D00BC
:1022DC000024154011425BD00F2100241140042929
:1022EC0053D0111D914292415242A4180A0023026C
:1022FC004BD501220024002560E680231B031C42E1
:10230C0009D01E4207D133431C0343461500240B4E
:10231C00254A019352E68022120314432403224AD5
:10232C00240B01974AE600F051FD03001A00153208
:10233C0020301C2A00DC84E65646083B00229E40D6
:10234C0089E600F043FD01000200153120321C2902
:10235C0000DC4EE6340008380025844053E6009B30
:10236C009C4641E71249220061442E008D408A4070
:10237C00C640691E8D4132432A43C4405307B6D030
:10238C000F2111400429ACD1B1E765076402240B7D
:10239C00D2081543002211E68022120314432403B1
:1023AC00014A240B0AE6C046FF0700003E04000069
:1023BC001E040000F8B557464E464546DE4604005E
:1023CC00E0B51F0010000B03620F4E00CD0F5B0A2F
:1023DC0039031343490AE200440F2143C24C91468E
:1023EC009246C0007A008046760D520DFF0FA24235
:1023FC0000D1B4E001246740BB46BD4200D188E067
:10240C00B41AA446002C00DCB2E0002A00D1C5E0CE
:10241C00B54A964200D18BE28022120411436246E7
:10242C00382A00DDA1E11F2A00DD16E220270C006E
:10243C00BF1ABC400200A0466446B840E240444685
:10244C0014430200501E82416046C14022435B1A75
:10245C0049468C1AA145924152429B1A98464346D2
:10246C001B0200D417E143465B025B0A98464346C5
:10247C00002B00D16CE1404600F0A8FC0200083AA9
:10248C00202120004346891A9340C84094400343BE
:10249C00964200DD57E1961B711C1F2900DDCBE134
:1024AC00202218002600521A94409040CE40CB4077
:1024BC00621E94413043984600260443630709D0BA
:1024CC000F232340042B05D0231DA342A4416442B7
:1024DC00A0441C0043461B0200D4DFE0824B0136B3
:1024EC009E4200D1FBE04246804BE4081A401300A8
:1024FC00710552075B0222431B0B490D0905ED07C1
:10250C00194329431000F0BCBB46B246A946A0466D
:10251C00F8BDB41AA446002C58DD002A00D19EE068
:10252C00714A964200D13BE180221204114362466B
:10253C00382A00DDC1E01F2A00DCBBE10C00203A88
:10254C00D44022006446202C04D040273F1BB940C5
:10255C00084380464446611E8C411443B1E00C0094
:10256C0004432AD0BB46BD422DD0614CA446B44492
:10257C006446002C5CD0941BA446002E00D015E1C0
:10258C004D461D4300D1C3E1651E012C00D10CE268
:10259C00554EB44200D1F8E1AC460EE10A000243BC
:1025AC0000D136E12200013A012C00D1C6E14E4C9B
:1025BC00A44500D1F4E0944631E701246740BB46C2
:1025CC00BD4200D01CE74A4CA446B4446446002CDF
:1025DC0000D1CFE0941BA446002E00D15CE1424E0A
:1025EC00B24200D1ECE18026360433436446382CE9
:1025FC0000DDB3E11F2C00DD38E22026361B1C0069
:10260C00B4404F46A0466446E74044463C434F46E0
:10261C00B7403E00771EBE4134436646F340C918AE
:10262C00241884429B415B429846160088444EE035
:10263C00304A741C144200D0D6E04A461A43002E8D
:10264C0000D05BE1002A00D1A5E10A00024300D0D2
:10265C00BBE14A465907D2080A43DB0827E00A00C7
:10266C00024300D174E12200013A012C05D01E4C2A
:10267C00A44500D194E0944659E74844484592411A
:10268C005B189846040052429044434602261B02B3
:10269C0000D5C4E0013E630700D011E74346B446C1
:1026AC005907E2080A43DB080F498C4540D06146C4
:1026BC001B0349051B0B490D20E701430C00611E50
:1026CC008C414C444C45924152429046984443466E
:1026DC001B02E0D5044B01369E4200D09FE0310036
:1026EC00002300220AE7C046FF070000FFFF7FFF20
:1026FC0001F8FFFFFE070000002A00D160E10A008C
:10270C0002434DD04A465C07D20822438024DB08A2
:10271C002403234207D0CE08264204D15D46330061
:10272C00C20849070A43510FD200D20849070A438D
:10273C001100194300D1C8E1802109030B431B038D
:10274C00D5491B0BDAE6D549B61A0B409846B5E6C7
:10275C00200000F03BFB020018321F2A00DC8FE641
:10276C00230008388340002492E608430200501EE0
:10277C0082416DE6CA4C721C224200D0ADE04A4642
:10278C001A43002EB8D1002A00D158E10A000243A6
:10279C0000D059E14A465907D2080A43DB0886E7BC
:1027AC004A465907D2080A43DB08C1E7BA4DAA4288
:1027BC0000D11EE180252D042B436446382C5DDCB2
:1027CC001F2C00DDD0E0202567462D1B4E461C003B
:1027DC00FE40AC4034434E46AE403500FB406E1ECE
:1027EC00B541C91A2C434EE04A46141AA1459241F0
:1027FC00524290465F1A3A004746D21B904612024C
:10280C0000D58BE04246224300D030E60023002561
:10281C004DE74A465907D2080A43DB0844E74246CB
:10282C009E4B61081A401300012214400C43DA0736
:10283C005B089846144341E61A001F3EF24016000E
:10284C00202903D04022511A8B401C43621E944114
:10285C0000233443984600261DE70C00203AD44050
:10286C0022006446202C04D040273F1BB94008436B
:10287C0080464446611E8C412243E9E54C46234385
:10288C001C00631E9C41041BA0429B415B42CB1A63
:10289C0098465D461600E2E54E461E4300D1AEE07A
:1028AC00661E012C00D1FDE07B4FBC4200D107E13C
:1028BC00B4469BE664462022121B0C009440070091
:1028CC009040A0466446421E90416246E740444612
:1028DC00D1403C4304435B18F3E66F4CA24200D159
:1028EC00D5E048445B184845894149425B18DC07F0
:1028FC0040085B08984616000443CCE6002A00D03A
:10290C0082E00A00024340D1802300251B0313E719
:10291C004B07C2081A435D46CB08C5E64A46841AE3
:10292C00A0429241CB1A52429B1A98465D469EE5B4
:10293C004A465907D2080A43DB08F9E64A46141AF4
:10294C00A14592415B1A52429B1A9846012686E594
:10295C004A465907D2080A43DB08A5E64C462343EE
:10296C001C00631E9C415BE665461E00203DEE404C
:10297C00202C05D040252D1BAB404C461C43A246B9
:10298C005446631E9C4134437DE74B07C2081A43EF
:10299C005D46CB08CCE60A00024300D136E74B0774
:1029AC00C2081A435D46CB0881E64A46841AA04207
:1029BC009241CB1A52429B1A98465D4601264EE52F
:1029CC004B07C2081A43CB08B2E64A46141AA14573
:1029DC0092415F1A5242BA1A904612026BD54A467D
:1029EC00841AA0429241CB1A52429B1A98465D46D9
:1029FC0064E54B07C2081A435D46CB0898E64B07C3
:102A0C00C2081A43CB084FE60A00024390D04A464C
:102A1C005C07D20814438022DB081203134208D04F
:102A2C00CE08164205D1C0084907084304005D468C
:102A3C003300610FE2004907D2080A4378E64B07DE
:102A4C00C2081A43CB0832E648445B184845924109
:102A5C00984652429044434604001B0200D41AE6A6
:102A6C0042460E4B01261A40904614E666461F005D
:102A7C00203EF740202C05D04026361BB3404C4658
:102A8C001C43A2465446631E9C413C43C8E51100BE
:102A9C000023002232E5C046FF070000FFFF7FFF46
:102AAC00FE0700004A461418844292415B1898466F
:102ABC0052429044E9E54246224300D1A6E6EAE5BB
:102ACC004B07C2081A43CB0832E600220149130017
:102ADC0014E5C046FF07000070B505000C480C0358
:102AEC00160049001A035B00240B490D120B5B0DF9
:102AFC00814208D0064900208B4203D1324310009A
:102B0C00421E904170BD01202C43FBD1F2E7C04620
:102B1C00FF0700000A0030B5134C530009030500F1
:102B2C00090B00205B0DD20FA34204DD0F4883423A
:102B3C0002DD0F4BD01830BD8020400301430D48FF
:102B4C00C01A1F2808DD0C48C31AD9400B00584284
:102B5C00002AF0D11800EEE7084CC540A4466344A7
:102B6C0099400B002B43F2E7FE0300001D0400000C
:102B7C00FFFFFF7F3304000013040000EDFBFFFF99
:102B8C0070B5002816D0C317C5185D40C40F2800B7
:102B9C0000F01CF9114A121A0A2816DC03002E0048
:102BAC0015339E400B23181AC54053052D032D0BCE
:102BBC005B0D03E000240023002500261B052B439E
:102BCC00E40723433000190070BD0B3885405305D2
:102BDC002D0300262D0B5B0DF0E7C0461E040000F4
:102BEC0010B5041E10D000F0F1F80F4B1B1A0A2878
:102BFC0011DC0B222100121AD14015300A035B059F
:102C0C008440120B5B0D01E0002300221B051343D3
:102C1C002000190010BD22000B3882405B05120306
:102C2C000024120B5B0DF1E71E04000070B543008D
:102C3C004602C40FFE201B0E591C750A08420CD00C
:102C4C00E022920094466D07360B63441B05334318
:102C5C00E40723432800190070BD002B14D1002D6C
:102C6C001BD0280000F0B2F80A281CDC0B232A0029
:102C7C001B1ADA40030015339D400E4B12031B1A2E
:102C8C005B05160B5B0DE1E7002D09D0320B80269E
:102C9C003603094B6D071643D8E700230026D5E70A
:102CAC000026054BD2E703002A000B3B9A40002577
:102CBC00E3E7C04689030000FF07000002004B0059
:102CCC00F0B508035B0D3D4ECC0F400A510F5F1C55
:102CDC000843D50037420AD039495E18FE2E16DD5E
:102CEC00FF230021DB050B43E0071843F0BD002B4D
:102CFC0006D1284327D005218901490ADBB2F1E727
:102D0C000543EDD08021C903FF230143EAE7002EE0
:102D1C001CDD920111004A1E9141C0006D0F014350
:102D2C0029434B0748D00F230B40042B00D0043110
:102D3C008023DB040B403FD0721CFE2ED0D08901C7
:102D4C00490AD3B2CEE700230021CBE73200173279
:102D5C0022DB80211E2209040843921B1F2A1DDD41
:102D6C00022149428E1B0100F1400E00202A04D0A2
:102D7C00144A944663449840054329004D1EA941CA
:102D8C00314300264B07CED180200B00C00401221A
:102D9C0003400142D3D1AFE70023ACE70A498C468C
:102DAC0029006344D1409D400A00290098404D1EE3
:102DBC00A94101431143E4E733009DE7FE070000FE
:102DCC0080FCFFFFA2FCFFFF82FCFFFF1C21012304
:102DDC001B04984201D3000C10391B0A984201D3F2
:102DEC00000A08391B09984201D30009043902A2D0
:102DFC00105C40187047C046040302020101010137
:102E0C00000000000000000010B5002903D1FFF7FE
:102E1C00DDFF203002E0081CFFF7D8FF10BDC046D4
:102E2C000B78F0B50200FF24002B00D10478084B7E
:102E3C001E78002318009E4200DCF0BDD55CA54234
:102E4C0004D2CF5C002F01D12C00D8B20133F2E7B1
:102E5C001C000020054A030012781218012093422E
:102E6C0000D17047197801330840F8E71C000020A6
:102E7C00F7B5322011F0FEF90500FB20002D37D0FC
:102E8C002C4C04302378FE2B32D1F93B2A4F019382
:102E9C0022002B1B14322178195501349442FAD19B
:102EAC001422691C380011F01BFC1422002128008C
:102EBC0011F01FFC00232278DEB2FD2A02D8322B3F
:102ECC0017D13226AB19013B1B78002B01D00136F0
:102EDC00F6B2300011F0CEF9F86000280DD10100E7
:102EEC001422380011F005FC280011F0CDF90E2049
:102EFC00FEBDEA5401340133DDE73200290011F044
:102F0C00EFFB0E4A002113782800013313703200B6
:102F1C0011F0EFFB2378FE2B06D1019B1437013BFC
:102F2C00DBB20193002BB3D1280011F0ADF90020D6
:102F3C00DEE7C04600DC0108A46B0020CF110020A6
:102F4C00F0B51E4B1E4C18881E4A1F4B85B081B223
:102F5C00A04206D1012119700023FA20137005B08C
:102F6C00F0BD080A0DD018701B7811700193022265
:102F7C0001230B2602A907310198834203D90020B3
:102F8C00EDE70120EFE700205C1E74430870087821
:102F9C000A2802D90133DBB2EEE708481718087883
:102FAC003F882018BC466546084F40003D520878C3
:102FBC0002320130C0B292B20870E8E700D80108C2
:102FCC00FFFF0000411000201C000020A80A002078
:102FDC00F8B5012400250A270A4B1B78A34201D21D
:102FEC002800F8BD084A631E5B00995A661C00292C
:102FFC0002D0B0B203F036FE192C00D93D00F4B269
:10300C00EAE7C0461C0000205C760020F8B50E4EA6
:10301C0032220021300011F06CFB012400250B4BF7
:10302C001B78A34201D22800F8BD631E5B00F15A45
:10303C00671C002902D0B8B203F014FE192C00D979
:10304C000A25FCB2EBE7C0465C7600201C00002091
:10305C00F8B5012400250A26094B1B78A34201D29E
:10306C002800F8BD074B611E4900671C3800C918C1
:10307C0003F0CEFD192C00D93500FCB2ECE7C046AC
:10308C001C0000205C760020F7B500252F000A26D6
:10309C006E43124BF25C002A17D0F6183B003C0032
:1030AC0021331C349BB2A4B20193337871781B0288
:1030BC00C918200089B203F0D5FD0134019BA4B2DC
:1030CC0002369C42F1D10537BFB2054B01351B7856
:1030DC00EDB2AB42DBD20020FEBDC0463D0F00205E
:1030EC001C000020F7B500246B461C2601250A277E
:1030FC00DC806B463000991D03F08AFD6B46D98845
:10310C003B0063430D4A2000D31859555B19023517
:10311C00013B090AEDB21970092D0BD9784312182D
:10312C000020074B01341B78E4B25072A34200D24A
:10313C00FEBD01250136B6B2DBE7C0463D0F0020CF
:10314C001C000020F0B50024FF2585B002ABDC800C
:10315C00194BA0B21A78E3B29A4222D80500D030AB
:10316C009E3583B2154FADB201933E006C1FA4B2D5
:10317C0002AB2000991D03F04BFD02ABDB88013440
:10318C007370A4B21B0A33700236AC42F0D100202B
:10319C000534019BA5B278720A379D42E5D105B082
:1031AC00F0BD230006492B405B00CB30C91880B220
:1031BC0003F02EFD0134CBE71C000020370E00205D
:1031CC009C0E0020F0B50E27002587B005AC02AB95
:1031DC00FF182100E42025803D8003F019FD0395A4
:1031EC00A84201D1237803932100E52003F010FDC0
:1031FC0039000500E62003F00BFD2843002580B2C2
:10320C00A84203D125883B882D04ED182100E72026
:10321C0003F0FEFC39000600E82003F0F9FC304313
:10322C00002680B2B04203D126883B883604F618BB
:10323C002100E92003F0ECFC254F002804D1238861
:10324C001A0A3A70234A13702100EA2003F0E0FCBA
:10325C00002805D1238820491A0A0A701F4A1370C6
:10326C002100EB2003F0D4FC002805D123881C4955
:10327C001A0A0A701B4A13703B78002B09D0154AA6
:10328C001278002A05D0009229003200039804F02D
:10329C0091FC114B1B78002B09D0104A1278002A94
:1032AC0005D0009229003200039804F083FC0C4BEB
:1032BC001B78002B09D00B4A1278002A05D00092FB
:1032CC0029003200039804F075FC002007B0F0BD13
:1032DC0003110020340E002004110020350E0020B4
:1032EC0005110020360E0020F0B50E0015001C0054
:1032FC0085B00AAB1F780BAB1B78010000930CABAD
:10330C001B78E42001930DAB1B7802930EAB1B785A
:10331C00039303F0A7FC310A89B2E52003F0A2FC69
:10332C00B1B2E62003F09EFC290A89B2E72003F033
:10333C0099FCA9B2E82003F095FC2102C91989B2C5
:10334C00E92003F08FFC009BEA201902019BC918AD
:10335C0089B203F087FC029BEB201902039BC9186E
:10336C0089B203F07FFC002005B0F0BDF7B58A20D0
:10337C0001AC2100400003F04BFC344D002848D137
:10338C002388AB711B0AEB7116202100FF3003F070
:10339C003FFC002841D123888B20210040002B804A
:1033AC0003F036FC00283BD1238818202100FF3085
:1033BC006B8003F02DFC002835D123888C20210054
:1033CC00AB80400003F024FC6B4606001A209F1DC6
:1033DC003900FF3003F01CFC0643B6B2002E25D199
:1033EC003B8822881B0413438D2021004000AB60D6
:1033FC0003F00EFC002823D123881C202100AB8174
:10340C00FF3003F005FC00281DD123780020EB765B
:10341C00FEBD0F4BDB88EB80B6E70D4B1B88BBE783
:10342C000B4B5B88C1E70A4B9B88C7E7094B1B78A2
:10343C00002B02D0E1235B02D6E7054B9B68D3E758
:10344C00C0235B01D9E7024BDB7EDFE7886B0020F2
:10345C0000000020A60A00208A2010B51A4C40005B
:10346C00E379A1795B01194303F0FCFB1620218859
:10347C00FF3003F0F7FB8B206188400003F0F2FB78
:10348C0018206379217B1B021943FF3003F0EAFB00
:10349C008C20A368400099B203F0E4FB1A20A368C7
:1034AC00FF30190C03F0DEFB8D20637B21791B02AE
:1034BC001943400003F0D6FB1C20E17EFF3003F0E3
:1034CC00D1FB002010BDC046886B0020F0B51E2635
:1034DC008BB002ABF618002301272C4C3380BD00B7
:1034EC00ADB22800E830310080B203F091FBFBB2A2
:1034FC0006900793002841D133881A0A190BB94258
:10350C003CD10F210F201140024237D02800E93066
:10351C00A1726374310080B203F07AFB2800338807
:10352C00EA301A0A3100E272A37380B203F070FB26
:10353C003388EB351A0A31002273E373A8B203F017
:10354C0067FB3388F9B21A0A62732374A07A04F009
:10355C00E1F80120617CE37A4A10024001400698B0
:10356C000590207C0490E07B0390A07B0290607B14
:10357C000190207B0090F8B204F0D6F901370934A1
:10358C00072FACD100200BB0F0BDC046601400205A
:10359C0010B5FFF7D5FCFFF75BFDFFF7A3FDFFF7B9
:1035AC00D1FDFFF70FFEFFF7E1FEFFF78FFFFFF7EF
:1035BC005FFC10BD0E23F0B51225002401278FB03F
:1035CC0003AE6B446D443200009305A906AB012099
:1035DC0008F018FE04AA08AB07A90220009508F011
:1035EC0011FE3388059809A909930A970B940EF0DC
:1035FC006BFE02230B932B88089809A909930A9454
:10360C000EF062FE3188220005980EF023FF052093
:10361C0009F04EFE298808980EF016FFA0420FD133
:10362C003A00318805980EF015FF052009F040FE90
:10363C00298808980EF008FF013844424441E4B24E
:10364C0020000FB0F0BD000070B5054C054D23688F
:10365C00AB4204D003F096FB002800D1256070BD6E
:10366C00F07F0020ADDEEFBE10B509F08BFFE1233B
:10367C001B0243608023DB000361802304005B0199
:10368C00836010F06DFC2023226811680B431360DB
:10369C0010BD0000044B10B59968FCF72DFD43429A
:1036AC005841C0B210BDC0468C000020F7B51D4972
:1036BC000500FCF721FD06241B4E1C4F0190019BBD
:1036CC00002B23D028001A49FCF716FD00281FD028
:1036DC0028001849FCF710FD00281BD031002800E9
:1036EC00FCF70AFD002817D039002800FCF704FD70
:1036FC00002813D028001049FCF7FEFC00280FD03E
:10370C00013CE4B2002CDAD12000FEBD0124FBE721
:10371C000224F9E70324F7E70424F5E70524F3E78B
:10372C000624F1E729AB010822AB010825AB0108FF
:10373C0009B2010820AB010828AB010873B50500DC
:10374C0001240326A54210D00B4B20001A880B4BEA
:10375C00110A5A70002219709C7011000A230096ED
:10376C0004F006FB0A200CF0ECF80134E4B2062C51
:10377C00E8D1002076BDC046500000200F0F00207D
:10378C00F0B585B06A46394B00AF1B780024BB609E
:10379C000733DB08DB00D31A9D46BA68FB606A442A
:1037AC001500334AAB4233D10123FA680138135464
:1037BC0016220226424398402E4C2D4D12197A6047
:1037CC0079685A008A5A002A0BD001215C1EA1404C
:1037DC000C00415BD2080C43F96844538A18013A37
:1037EC0016700133062BEBD1043B9C46002263463A
:1037FC0010000133DBB29C461D4D013B3B60B968A8
:10380C00D3B2994209D80028F0D1BD4605B0F0BD1D
:10381C001C70148001330232C4E7FB6839689B5C6E
:10382C008B421FD116245443124BE31801247B60A6
:10383C0079686300CB5A002B11D0F968DB08013B87
:10384C00CE5C002E0BD10121661EB1400E002988E2
:10385C0001300E4361462E80FE68C0B2F154013433
:10386C00062CE5D101320235C9E7C0461C00002008
:10387C00D00C0020A80A0020F0B50026040093B05C
:10388C000D002E22310006A8059610F032FF1922E9
:10389C003100454810F02DFF444A611E5654162243
:1038AC0001204A43424B5E54424952180192A9B23C
:1038BC00019E4200B25A002A0BD0D2088A4208D18B
:1038CC0001225B19013B1A70374BC0B21D7013B04B
:1038DC00F0BD01300728EBD1374BFF2619780023B8
:1038EC009C46324F99422AD10024314E05AF380004
:1038FC00FFF7B0FA002807D139002D48FFF790FAEE
:10390C000130C4B2AC4223D100222849264E0B19F7
:10391C00013B187800283ED1012325494D19013D62
:10392C0001995A00895A00293AD02A781E4CC908A4
:10393C00A218013A12788A4232D1D8B2C7E75A1C7F
:10394C00944203D01A481E546046D8551300C9E758
:10395C00162201230121601E42433B54154B039751
:10396C00D3180293029A4B00D35A002B0FD0DB08CA
:10397C00039ADBB2013BD25C002A08D1325CF75CC3
:10398C000132D2B2974202D9F254084AD4540131CE
:10399C000729E7D1AAE7531CB4540400DAB2B6E7FE
:1039AC000133072BBCD192E7406C0020EA100020B9
:1039BC00D1100020A80A00201C000020F0B587B010
:1039CC000593344B050018780C001700FFF754FFD3
:1039DC00304B06001978059B002B46D0002304932E
:1039EC00A14201D1059E04942A4B1B78AB421BD1FA
:1039FC000CF0A4F8059B0500002B43D1264B2200AC
:103A0C00196811F06BF8254B2800196811F086F82D
:103A1C002800FCF77BFB322382B22900380009F026
:103A2C00E3FD64200DF094FE3800FFF71DFE30001E
:103A3C00FFF71AFE174B049A1B78934205D13000FE
:103A4C0009F0A0FD012109F013FE124B3200197888
:103A5C0000230393013B029301930333009338003B
:103A6C000B0004F05FFB07B0F0BD0D4B04911B196C
:103A7C00013B1A78012AB7D00A4B9B18013B1B78E3
:103A8C000493B1E708492200059B096811F026F858
:103A9C00B9E7C046411000207800002080000020CB
:103AAC00D1100020406C00207C000020F0B54F4D60
:103ABC0085B04F490400280011F04BF8012628006E
:103ACC00FCF724FB764282B23223290020000096B8
:103ADC0009F064FD01273A004649280010F0FEFF6A
:103AEC002800FCF713FB013782B232232900200097
:103AFC00009609F053FD062FEDD13223032220004E
:103B0C003D49009609F04AFD00273C4B1B78BB420F
:103B1C000AD801235B420093012220003849333339
:103B2C0009F03CFD05B0F0BD304D36497A1C28003B
:103B3C0010F0D4FF2800FCF7E9FA01235B422900BE
:103B4C0082B200932000333309F028FD162206219F
:103B5C007A432D4E2800935B039259432B4B05223D
:103B6C00C91811F00FF801235B42290005220093BC
:103B7C002000333309F012FD012301255B42009331
:103B8C00012233332000224909F008FD039B9B19C5
:103B9C000393039A6B00D25A144E002A1ED13000A4
:103BAC001C4910F09BFF3000FCF7B0FA01235B427C
:103BBC0082B20093310020003333013509F0EEFC62
:103BCC00062DE6D101235B4200930222200012490C
:103BDC003333013709F0E2FCFFB296E707233000DC
:103BEC0013400E49D20810F079FFDCE76A10002070
:103BFC002BAB01083DAB0108C6B401081C0000202A
:103C0C00DCC4010842AB0108A80A002096AF0108E9
:103C1C003BAB010851AB0108C7B401084EAB01081E
:103C2C00F0B5274C85B027490600200010F091FF15
:103C3C0001272000FCF76AFA01257F4282B2322369
:103C4C0021003000009709F0A9FC03971E4B1B784C
:103C5C00AB4211D21D49200010F07BFF2000FCF775
:103C6C0055FA01235B4282B20093210030003333BA
:103C7C0009F094FC05B0F0BD00276B1E5B000293AD
:103C8C000299134B3A00CB5A80210902114101379A
:103C9C00194210D03B002A000E49200010F01EFFE4
:103CAC002000FCF733FA039B82B2009321003223ED
:103CBC00300009F073FC0A2FE2D10135EDB2C5E7F3
:103CCC006A10002055AB01081C00002083AB0108D2
:103CDC005C76002071AB0108F0B587B004900BF056
:103CEC002DFF04006D4910F034FF6D4D6D4B6E4986
:103CFC001A78280010F0F2FE2900200010F00EFFB8
:103D0C006A4B6B491A78280010F0E8FE2900200055
:103D1C0010F004FF04230022664900932800023BA4
:103D2C0010F0DCFE2900200010F0F8FE624A634916
:103D3C00280010F0D3FE2900200010F0EFFE604A9E
:103D4C006049280010F0CAFE2900200010F0E6FEA1
:103D5C005D49280010F0FDFE2900200010F0DEFE69
:103D6C00012632005949280010F0B8FE2900200025
:103D7C0010F0D4FE564BF05C042808D8FCF7D8F9A8
:103D8C00037577797B005349280010F0E2FE290077
:103D9C002000013610F0C2FE062EE2D128004E495A
:103DAC0010F0D7FE29000125200010F0B7FE4B4B78
:103DBC004B4E03933368002B5FD1394F2A003800E8
:103DCC00484910F08BFE3900200010F0A7FE039B31
:103DDC000135043338360393072DEBD1424E2000C6
:103DEC00310010F09BFE4149200010F097FE20009E
:103DFC00FCF78CF9002503902A4B3D491B782A00CF
:103E0C00013B5B005B5A80210902114101351942CB
:103E1C0009D0234F37492A00380010F05FFE3900D3
:103E2C00200010F07BFE052DE6D12000FCF76EF98A
:103E3C006B469B89984203D120002F4910F06EFEEF
:103E4C003100200010F06AFE049B002B0BD02000E8
:103E5C00FCF75CF901235B4282B2009321000498C9
:103E6C00333309F09BFB07B0F0BD24498CE72449A0
:103E7C008AE7244988E7244986E7706A05F0DAFE68
:103E8C00039B0590186805F0D5FE054F00902A009D
:103E9C003800059B1D4910F021FE94E73CAB01084E
:103EAC006A10002041100020A3AB0108A70A0020D3
:103EBC00BFAB0108DBAB0108F8AB010804AC01088F
:103ECC001BAC010824AC01083DAC010850AC010846
:103EDC00BA10002056AC0108B7AC01080C14002035
:103EEC00381B0020CFAC0108C7B401081AAD01087B
:103EFC005C76002037AD01083CAD01085DAC0108D3
:103F0C0072AC01087EAC010898AC0108EAAC01085F
:103F1C00F7B528490500FCF7EFF8002803D1264B2C
:103F2C001C782000FEBD28002449FCF7E5F8FF248E
:103F3C000028F6D02F78232F16D00026204B1B7884
:103F4C000193019BF4B2A34220D800240A261D4FF2
:103F5C003100614328007918FCF7CEF8002824D1F1
:103F6C002002FE2404431CE0681C10F058F9C0B277
:103F7C00002805D0124B1B78834201D304B2D0E742
:103F8C000D4B66241B788342CBD1F7E70A21714392
:103F9C000D4B2800C918FCF7AFF8002803D1002FEF
:103FAC0001D024B2BDE70136CBE701340A2CCFD1C6
:103FBC005A34B6E7C8C701084110002041AD0108CA
:103FCC001C000020370E00203D0F0020F7B50C0020
:103FDC000025294E0190A90020007118FCF78CF8DF
:103FEC00002842D00135042DF5D10A26234B244F4D
:103FFC001B78033D0093009BAB421EDC00250A2678
:10400C00204F3100694320007918FCF775F800281F
:10401C002DD001350A2DF4D11B4E1C4B3360356865
:10402C00002D14D10A20019B21005843144BC018B9
:10403C0010F08FFDFFF728F8FEBD3100694320001A
:10404C00C919FCF759F8002811D00135D3E72B68B2
:10405C001F683800FCF75AF839000200200010F0F5
:10406C0080FD002805D06B68D8E70620E4E7072020
:10407C00E2E70820E0E7C04665AF01081C0000201D
:10408C003D0F0020370E0020C0100020C000002083
:10409C00F7B50D0000240A26009031006143344B23
:1040AC0028005918FCF728F8002809D10121A14053
:1040BC00009B304D013B5B005A5B0A435A53FEBDDB
:1040CC0001340A2CE9D100242B4EA10028007118D0
:1040DC00FCF712F8002844D00134042CF5D10A273F
:1040EC00264B274E1B78033C0193019BA3421CDCFF
:1040FC00244E254B33603468002C20D10A23180041
:10410C0060431B4A125C002A27D1194B290018184E
:10411C0010F01FFD0122A240009816490138400002
:10412C00435A134343520020C9E739006143280026
:10413C008919FBF7E1FF002815D00134D5E7236876
:10414C001F683800FBF7E2FF39000200280010F06E
:10415C0008FD002809D06368CCE701340A2CCED1C5
:10416C00D8E70620ABE70720A9E70820A7E7C04659
:10417C00370E00209C0E002065AF01081C000020AB
:10418C003D0F0020C4100020C0000020F7B5012412
:10419C000026194B1B78A34201D23000FEBD174FED
:1041AC003B78A3420FD000221321200003F098FF8C
:1041BC00322009F07DF8124B1B78002B00D0022620
:1041CC000134E4B2E5E700256B1C01936B461879CA
:1041DC0009F0D8F98022436B1202934208D11000E7
:1041EC0028413B780749013B5B005A5A02435A521B
:1041FC00019D052DE8D1E3E71C00002041100020B3
:10420C00D01000205C76002070B5802500222D0295
:10421C000D4B0E491B78541C013B5B005B5A29006B
:10422C0011410E00E0B21E40194209D109F0AAF961
:10423C00310009F01DFA2200052CE9D1002070BDD7
:10424C0009F0A0F90121F4E7411000205C76002070
:10425C0070B508F0FDF908F089FA02F0E3FD07F0FB
:10426C009BFF07F01BF908F0AFFF07F045FF08F0C4
:10427C00DDFF08F017F800280AD0FFF7E5F9BFF3C7
:10428C004F8F374B374ADA60BFF34F8FC046FDE78D
:10429C00FFF790F9002833D00124334B32201C70E7
:1042AC0009F006F805F016FCE123304D5B02AB601B
:1042BC0020000134A968E4B209F0D0F9062CF7D13A
:1042CC00FFF766F9FFF7A0FF07F054FC8021284B9D
:1042DC0001221C782748C901002C17D10EF0BAF81E
:1042EC00FA20400008F0E4FF802100222148C90197
:1042FC000EF0B0F802F010FC01221F4B1A7070BDCA
:10430C00322008F0D5FF05F0E5FBD9E70EF0A2F856
:10431C00FA20400008F0CCFF80210022C90115488A
:10432C000EF098F8642008F0C3FF80210122C90127
:10433C0010480EF08FF8642008F0BAFF802100229C
:10434C00C9010C480EF086F8642008F0B1FF8021FA
:10435C0008480122C9010EF07DF86420C2E7C0466E
:10436C0000ED00E00400FA05A60A0020886B00208E
:10437C004110002000040048A50A002013B51E209F
:10438C000FF078FF04001E22002110F0B2F908494A
:10439C00088B8B7D0A7D0190497D013A009105497E
:1043AC00920052582000044910F098FB200016BDD2
:1043BC00886B00201CB0010875AF010813B50A20EA
:1043CC000FF058FF04000A22002110F092F9054961
:1043DC0020004B7C8A7C097C0091034910F07EFB09
:1043EC00200016BD886B002087AF01081FB5074B56
:1043FC000A00197801230393023B029301930333C0
:10440C0000930B0003F08EFE05B000BD41100020A0
:10441C00F0B5002487B007000D0023002200210016
:10442C00200004940394029401940094FEF75CFF22
:10443C003823791E59430D4A681E8E584343A642B1
:10444C000BD0D6583800A6420CD002F0E7FA280060
:10445C0002F0E4FA200007B0F0BDD3586820002B1E
:10446C00F9D0280002F0DAFA3000F4E7381B00200B
:10447C001423F7B5224E234A34780500013C5C43E3
:10448C001419FBF743FEE7680190002F2FD038007A
:10449C00FBF73CFE0199009002310918380010F02E
:1044AC005BF9E06014243378164A013B6343D3185C
:1044BC00009AD86801322900801810F04AFB337832
:1044CC00104A013B6343D3181322DB6800995A54FA
:1044DC001422002130780B4B013850431818C36854
:1044EC008B4202D110F005F90E210800FEBD019897
:1044FC0001300FF0BFFE2900E06010F02AFBE7E767
:10450C00CF110020A46B002010B5032406490378BA
:10451C00002B00D110BDCA5C2240012A00D12033EF
:10452C0003700130F3E7C046EBDF0108F0B5CC4B6C
:10453C008BB01B780E2406900793052B00D137E126
:10454C00142000245843C74B0422C7180230C0184B
:10455C0021003C8010F0CDF8069B1B78622B00D01C
:10456C000EE1069B9B782E2B00D009E1069B5D7813
:10457C00303DEDB2052D00D91AE10126DC1C0722D5
:10458C002000B9493E80BD7010F0EBFA00281DD117
:10459C00092205236A43FB70B44B9B181B7A1C0041
:1045AC003440334205D00024AD4A137801331370E4
:1045BC00FEE023002200310005960494039402943B
:1045CC0001940094280003F0AFF9EDE70E222000CF
:1045DC00A74910F0C6FA002815D1092206236A4310
:1045EC00FB70A24B9B181A7A022314001C401A422F
:1045FC00D9D12300320005960494039402940194BB
:10460C0000942100DEE70C2220009A4910F0A9FA50
:10461C00002854D1092211006943944B5B189C78F3
:10462C00002C14D10698FA700F300FF0F2FD8C4A62
:10463C00C3B21078142250438A4A1018037105969D
:10464C00049403940294019400942200D9E7DC783A
:10465C00002C15D10A230698FB700F300FF0D9FDF2
:10466C007F4AC3B21078142250437E4A101803714B
:10467C000596049403940294019400932300E4E7B8
:10468C001C79002C78D114270B22079B754E7B4389
:10469C000698F318DA700F300FF0BBFD704B002149
:1046AC001B78C0B25F430123F61930710593049156
:1046BC000391029101900B000A00009182E70D22F8
:1046CC0020006D4910F04DFA002800D06BE709234B
:1046DC0019006943654A51184C79002C14D106987D
:1046EC000333FB7010300FF094FD5D4AC3B21078A9
:1046FC00142250435B4A10180371059604940394DA
:10470C00029301940094B9E78C79002C18D11427EA
:10471C000D22079B534E7B430698F318DA7010302A
:10472C000FF077FD4E4B00211B78C0B25F43012385
:10473C00F619307105930491039002910191BAE737
:10474C006B43D318DC79002C18D114270E22079B4D
:10475C00444E7B430698F318DA7010300FF059FD75
:10476C003F4BC0B21B785F430123F61930710593A0
:10477C00049003940294C4E70C2415E70D2413E76A
:10478C003E4D0699280010F0E4F93D4C280021001C
:10479C0011F056F821000500002011F051F821000D
:1047AC000700002011F04CF80400002D03D1672401
:1047BC0020000BB0F0BD2800FEF76CFF061E0FD0DA
:1047CC00002F0FD1002CF2D114200222244B2549AA
:1047DC001B7858430A540818214AC6700133E6E680
:1047EC00002FE4D0002CE2D02000FEF753FF1C4B2E
:1047FC0014251B7800281CD05D430423194A5355FB
:10480C005519EE70E871164B38001C78FEF74EFF08
:10481C001421134B4C431B78124A594314196070E2
:10482C0052185278002AC2D00D4A0133002413705A
:10483C00BEE703226B430B492000CA54CB18DE7031
:10484C000FF0E2FCFEF73AFA054B09901878054B8D
:10485C00684306300422181809A90FF041FFD2E76B
:10486C00CF110020A46B0020DEB6010860140020DC
:10487C00D7B6010838B0010845B00108381100203E
:10488C008CBC0108030010B50800022B14D0032BBC
:10489C0003D0012B0DD0002010BD094B1A78142326
:1048AC00013A5A43074B9B1801221A7405F026F85B
:1048BC00F1E7FFF73BFEEFE7FFF7DAFDECE7C04669
:1048CC00CF110020A46B0020F0B58DB00691002113
:1048DC001700059005220AA81D0009910FF009FF89
:1048EC003800FFF711FEC94E33780293002B4AD1E2
:1048FC0003223800C64910F034F9041E65D1F81CA7
:10490C00FFF714FE002839D02800C24910F021F915
:10491C0034702B78002B0ED0069B002B0BD028006C
:10492C00FBF7F4FB01235B4282B20093290005984C
:10493C00333308F033FE2800FBF7E8FB00210200BC
:10494C0028000FF0D6FE002C16D10922210009A850
:10495C000FF0CFFEAD4B1B78002B0BD1069B002B21
:10496C0008D001235B4200933822AB4905983333BE
:10497C0008F014FE0DB0F0BD0794B1E702233370BC
:10498C000B332B70C5E706223800A44910F0E9F868
:10499C00041E09D1A24930700320FFF773FFA1490F
:1049AC00280010F0D6F8B4E7029B022B0DD138008A
:1049BC00FFF75EFD002805D02800964910F0C9F8D5
:1049CC000024A6E70D232B70FAE72E21380010F0F7
:1049DC00B2F8061E00D113E103229349033810F0FC
:1049EC00C0F8002800D10BE1904A73780424D35C02
:1049FC0004221C40134200D002E1F21B390009A82A
:104A0C0010F0C0F809A8FFF783FA894B02901B78C5
:104A1C000493049A904207D199222900701C9200A9
:104A2C000BF01CF8040074E7029B8249642BB7D08E
:104A3C00029B662B01D18049B2E7029B0136FF2B0A
:104A4C002BD1210019227D480FF053FE3800FBF7C3
:104A5C005DFB040009A8FBF759FB013C221A31004D
:104A6C00774810F08FF83800FBF750FB040009A8CA
:104A7C00FBF74CFB231A02999BB21722049803F004
:104A8C0011FB99222900300092000AF0E7FF6D49D2
:104A9C000400280010F042F83BE76B461B7A0393A6
:104AAC00FE2B40D1029B21001B12DBB20293029A17
:104ABC00654B62481A7019220FF01BFE3800FBF789
:104ACC0025FB040009A8FBF721FB013C221A31004D
:104ADC005B4810F057F83800FBF718FB040009A8E6
:104AEC00FBF714FB231A17229BB20299049803F0CC
:104AFC00D9FA4F4B554A1B78013B5B009B5A524AE3
:104B0C0012781341DB0706D5992229003000920058
:104B1C000AF0A4FF07902A0028004D4909AB0FF0BA
:104B2C00DDFF079CF5E6062230004A4910F019F823
:104B3C00041E2BD1484B020098711921039803F0E5
:104B4C00CFFA64200AF0FDFE444B03991A78384BD7
:104B5C0018782300FEF732FF3F4B9B79602B00D077
:104B6C002EE7FA21012089000CF08CFB3C4B1B78C2
:104B7C00002B00D124E73B4A280013883A49013323
:104B8C0013802A00029B0FF0A9FF19E73800FBF7EE
:104B9C00BDFA040009A8FBF7B9FA013C221A31004E
:104BAC0027480FF0EFFF3800FBF7B0FA040009A814
:104BBC00FBF7ACFA013C241A1721A2B2039803F0BC
:104BCC008FFA2800029A29490FF088FF2B78002BC6
:104BDC000DD0069B002B0AD02800FBF797FA012377
:104BEC0082B2009329000598313308F0D7FC2800D5
:104BFC00FBF78CFA0021020028000FF07AFDABE7DE
:104C0C0099222900380092000AE7C046FC110020C6
:104C1C0053B0010857B00108D2B10108A9B001087E
:104C2C003CAB0108B0B00108F1B00108EBDF0108A2
:104C3C0041100020F5B001081CB10108020D002044
:104C4C000F0F002041B10108CE1100209C0E002056
:104C5C005EB101088AB10108886B0020A70A002008
:104C6C00D01000206E160020B2B1010891B10108DD
:104C7C000121F0B5494287B001200CF003FB002361
:104C8C0002AAD3730AF05AFFE1234B4A1B03926822
:104C9C0001241E00494D03909A425FD1484B494C68
:104CAC001A8806235343484A29789B18474A200000
:104CBC001278009146490FF011FF0A23454A4649E4
:104CCC00287808F091FC2000FBF720FA210082B232
:104CDC000A23287808F088FC0024404F2B78FB1816
:104CEC00013B1E7828783F2E0CD83D4A411E8B0183
:104CFC00D218935D002B3DD002AFFB73002393556C
:104D0C00364B5E540F2102AE0A230122891908F09A
:104D1C006BFC02ABDB7B0D2B35D1022228783149A1
:104D2C00033B08F061FC304F304E002C03D13900AE
:104D3C0030000FF00EFF3200039B01212878FFF7A3
:104D4C00C3FD310038000FF004FF32220021300087
:104D5C000FF0CFFC00240BF021F8BEE72B78A34218
:104D6C0003D03100200008F079FC0134E4B2062CA9
:104D7C00F4D193E73F2E01D11E007B5401360BF08A
:104D8C000DF8B6B2AEE70A2BE5D0082B08D1002CF3
:104D9C00E1D00021013C154AE3B2D15464B2DAE708
:104DAC001A00203A5E2AD6D8312CD4DC0F4A13557F
:104DBC00013464B2CFE7C046886B0020A70A0020FC
:104DCC0050000020D011002096AF010841100020A7
:104DDC000BB201089302000036B20108B91300208F
:104DEC0079120020DBC401089C1100200611002060
:104DFC00F8B5184A0D001178142201395143164A9E
:104E0C0003005218D268101E09D0144E3268002AC2
:104E1C0000D1336034682078002801D13060F8BDAF
:104E2C00132120000FF087FE071E08D0021B210063
:104E3C00280001370FF0A6FE37600120EFE72100B4
:104E4C0028000FF086FE2800FBF760F92418346068
:104E5C00F3E7C046CF110020A46B0020F81100200E
:104E6C00142337B558432849435C012B03D0032B3B
:104E7C000DD000200AE0092309188A785343234AED
:104E8C00985CCB78C01A43425841C0B23EBD0C234B
:104E9C000D18EA780630013A53431D4A41189B58C5
:104EAC0001A804221C680FF01BFC68780138052847
:104EBC00DFD8211CFBF73CF903090D191D210198C2
:104ECC00FBF720FB431E9841E0E70198FBF720FB22
:104EDC00F8E70198FBF730FB0028CAD00021201C12
:104EEC00FBF710FB43425841D0E70198FBF71AFB44
:104EFC00E8E70198FBF72AFBEEE70198FBF702FBCA
:104F0C000028B6D1EAE7C046A46B0020601400204C
:104F1C008C000020F8B50AF011FE00240500164E96
:104F2C00164B1B78A34201D80020F8BD337C002B14
:104F3C0003D10134A4B21436F2E7E0B2FFF790FFCC
:104F4C000028F6D020220E4B9A710E4FF0683900D3
:104F5C00FFF74EFF0028ECD00B4B3A0000211878DD
:104F6C002B00FFF7B1FC2800FBF7D0F80021020062
:104F7C0028000FF0BEFBE8E7A46B0020CF11002047
:104F8C00886B00206A110020A70A002000207047BF
:104F9C00F7B500240500160000940194A04201D13D
:104FAC0072B6FEE76A46012130000AF0CBFD002301
:104FBC00C3566827702B04D101300FF030F900274D
:104FCC00C4B20221300001AA0AF0BCFD0FF027F98F
:104FDC000600682F05D1280007490FF0BAFD002004
:104FEC00FEBD0100200008F039FB23003200280030
:104FFC0002490FF073FDF2E7CAB40108DDB40108F1
:10500C000023F0B587B005934E4B04AE1B7804001B
:10501C0033701000002C01D172B6FEE7012105AAF5
:10502C000AF090FD48490500FBF766F800285AD1B4
:10503C000125464B1A78464B9B18013B1B78039372
:10504C00424EEFB23378BB4240D00FF06BFB02AB59
:10505C00187264230122009304A95A3B380008F00B
:10506C009DFA380008F08EFA036802AA9B8C127A1B
:10507C00DBB29A4230D12A00364920000FF02EFDC7
:10508C002000FBF743F8642382B2210030780093B0
:10509C005A3B08F083FA304920000FF05AFD2000EB
:1050AC00FBF734F86423294E82B221003078009348
:1050BC005A3B08F073FA039B28495A1C3378013B7E
:1050CC009B01CB189B5C002B09D003920135062D5C
:1050DC00B6D1002007B0F0BD2A002149CDE7012050
:1050EC000CF036FBE7E70023EB561E49702B24D15E
:1050FC00681C0FF094F8C7B27B1E05001A49042BEC
:10510C001BD80FF00FFB6423012231003070009389
:10511C003800323B08F042FA380008F033FA0368E2
:10512C0031789B8CEAB2DBB2994204D10949200058
:10513C000FF0D4FCCDE70A49F9E720000FF009FD88
:10514C00C7E7C046AEB5010841AD0108A70A00206B
:10515C00B913002003B5010830B5010879120020FD
:10516C001EB501089FB5010884B50108F7B50024E8
:10517C000500160000940194A04201D172B6FEE71E
:10518C006A46012130000AF0DDFC0023C356672774
:10519C00702B04D101300FF042F80027C4B2022169
:1051AC00300001AA0AF0CEFC0023C356702B04D0A9
:1051BC000E4928000FF0CDFC11E001300FF02FF854
:1051CC000600002FF4D1C1B22000FFF721F900280E
:1051DC0007D1220028000649F3B20FF07FFC002013
:1051EC00FEBD6728E4D00349E3E7C0469FB501083C
:1051FC00B0B50108CDB50108F7B5002405001600BF
:10520C0000940194A04201D172B6FEE76A460121D6
:10521C0030000AF097FC0023C3566727702B04D18B
:10522C0001300EF0FCFF0027C4B20221300001AAAD
:10523C000AF088FC0023C356702B04D00E492800BA
:10524C000FF087FC11E001300EF0E9FF0600002F93
:10525C00F4D1C1B22000FFF7C9F8002807D1220011
:10526C0028000649F3B20FF039FC0020FEBD672878
:10527C00E4D00349E3E7C0469FB50108E6B5010851
:10528C0009B60108F0B5002685B00190019B10000D
:10529C000396B34201D172B6FEE7012103AA0AF0CC
:1052AC0051FC0EF0B6FFC4B2002C40D0214B1B7841
:1052BC00A3423CD31423C0B2013858431E4D3100D5
:1052CC004719023004223E8040190FF012FA3E7446
:1052DC00F8680EF0D9FFFE601426164B1B78A3421B
:1052EC000BD8144A013B137004F008FB13490198C6
:1052FC000FF02FFC002005B0F0BD33006343EB5CD6
:10530C00002B11D0631E7343180014302A1811009F
:10531C00EB18944685C985C31A0009C909C2320025
:10532C00002160460FF0E5F90134E4B2D5E70449F9
:10533C00DDE7C046CF110020A46B002020B6010889
:10534C0056B60108F0B58FB004000E225F490AA8CA
:10535C000FF0C6F9002C01D172B6FEE75C4B372278
:10536C00187801235B4200935A49333308F016F93D
:10537C0000256B1CDBB20793574B1B78AB4206D84E
:10538C00200056490FF0E5FB00200FB0F0BD1426AD
:10539C006E43534FF35D002B11D00722BB190593BD
:1053AC001B7C200053430AAAD3184E49079A0FF0CE
:1053BC0095FBF35D0693012B1FD0032B54D01423C4
:1053CC005D43474B5D19484EE8683100FFF710FD0F
:1053DC0000286BD1454920000FF0A0FB2000FAF704
:1053EC0095FE3B4B82B2187801235B42009321005F
:1053FC00333308F0D3F8079DBBE7059BD878DA6800
:10540C0005380928DBD8FAF789FE0510DADA1818FE
:10541C0018252525142169437F18BB78009222009A
:10542C00334920000FF05AFBC9E7142169437F1858
:10543C00BB78304900922200F3E7142169437F18AE
:10544C00BB7801923A792C490092220020000FF08F
:10545C0045FBB4E7142169437F18BB7801923A7974
:10546C00264900922200F1E7B11D0C260422C9192D
:10547C0009A80FF035F9059B0998DB78013B5E43D1
:10548C001F4B9E19FDF7D2FB02900391059B069AC8
:10549C005B782000013B5A4313001A4A1A49D3186F
:1054AC0000932200B3680FF019FB88E72200330049
:1054BC00164920000FF012FB3000FAF727FE0021EE
:1054CC00020030000FF015F97DE7C04610AA010864
:1054DC00A70A002079B60108CF1100203BB70108BC
:1054EC00A46B0020B1B60108FD1100202FB70108F4
:1054FC00BDB60108CEB60108E6B60108FEB6010835
:10550C008C00002018CE010817B7010827B7010836
:10551C000023F7B50400170000930193984201D1C2
:10552C0072B6FEE76A46012138000AF00BFB534BBA
:10553C0004225349060018600FF013FB00285DD1BC
:10554C00009B371D1D1F2A0038004E490FF009FB28
:10555C0000280DD14C4B9B79602B05D14B4A4C4903
:10556C0020000FF0BBFA77E0202B0ED1494AF6E76A
:10557C002A00380048490FF0F4FA00280BD1424BAE
:10558C00DB79032BEAD0012BF0D0444A002BE6D078
:10559C0032004349E4E72A00380042490FF0E1FAAF
:1055AC00002803D1384B9A683F49D9E72A003800C4
:1055BC003E490FF0D6FA002802D1334B1A88F3E794
:1055CC002A0038003A490FF0CCFA002802D12E4BB1
:1055DC005A88E9E72A00380036490FF0C2FA002849
:1055EC0002D1294B1A79DFE72A00380032490FF033
:1055FC00B8FA002832D1244B5A79D5E7052230006D
:10560C002E490FF0AEFA051E28D13800022101AA4E
:10561C000AF098FA06002A4F0A2169433000C9198A
:10562C00FAF76AFD00281ED001350A2DF4D132009C
:10563C00244995E7244A6B1E5B009B5A1E4205D0F9
:10564C002B002200200021490FF048FA0135EDB261
:10565C001F4B1B78AB42EDD20020FEBD20001D4934
:10566C000FF077FAF8E7320020001B490FF036FAFA
:10567C0001231E00AE401D00EAE7C0464012002088
:10568C00E2B70108E7B70108886B002041AD0108BB
:10569C0038AC0108F0B70108F9B70108F4B70108F4
:1056AC0069B80108FFB70108ADB101080BB80108D2
:1056BC0014B8010824B8010836B8010848B8010824
:1056CC00370E002087B801089C0E00204EB8010848
:1056DC001C00002056B80108A2B80108002373B5BD
:1056EC000400019310009C4201D172B6FEE7012127
:1056FC0001AA0AF027FA019E1949320005000FF0A1
:10570C0030FA002810D11749174B0A0023CB23C2BB
:10571C0023CB23C21B681360FDF79EFE13492000A8
:10572C000FF017FA002076BD3200114928000FF057
:10573C0018FA1049021EF2D11621FF2002F0D0FCFB
:10574C0002220D4B64201A700AF0FBF8FDF75EFC88
:10575C0004F0A8F964200AF0F4F80849DFE7C04621
:10576C00B6B80108886B002000000020BDB8010805
:10577C00E4B80108EAB80108CE0E0020F9B8010817
:10578C00F0B5002791B01400079006970B970C9773
:10579C000D970E970F97B84201D172B6FEE7012113
:1057AC000BAA20000AF0CEF9C84E0422C849050005
:1057BC0030600FF0D6F9002800D019E1022120004A
:1057CC000CAA0AF0BFF9C34B366818600B9BC24C8D
:1057DC0004361F1F05003A00210030000FF0C1F9FC
:1057EC0000284ED10C9F28003A00BC490FF0B9F9A3
:1057FC00041E06D16021BA4B9971DB791B02194347
:10580C0025E03A002800B7490FF0ABF9041E02D18D
:10581C002021B34BF0E73A002800B3490FF0A1F96F
:10582C00041E02D14021AE4BE6E73A002800AF49F6
:10583C000FF097F9041E06D0AD4907980FF089F9BF
:10584C00002011B0F0BDA64BD979987109028A20BD
:10585C00400001F007FA9D4B0B991A680023535432
:10586C009C4BA4491B6807980FF038F9012CE7D121
:10587C00A14907980FF052F9A04907980FF04EF97B
:10588C00DEE73A0030009E490FF06BF900283BD15F
:10589C000C9F28003A0091490FF063F900280CD1B5
:1058AC000322C0218E4B8900DA719B798A2019431F
:1058BC00400001F0D7F90024CDE73A0028008949CF
:1058CC000FF04FF9002806D101228021844B4900AA
:1058DC00DA719B79EAE721003A0028000FF041F9D0
:1058EC00041E06D1022280217D4B8900DA719B793E
:1058FC0085E73A0028007D490FF033F9041E9BD14F
:10590C00774B9979D871A2E73A0030007D490FF0B6
:10591C0028F9002816D128000EF07BFCE1231B038C
:10592C00984200D988E76E4C81B2A0608C20400070
:10593C0001F098F91A20A168FF30090C01F092F9D6
:10594C00012488E73A0030006F490FF00AF9041E71
:10595C000BD128000EF05DFC81B2002900D16BE761
:10596C0016205F4B1980FF3073E73A00300067490F
:10597C000FF0F7F8041E0AD128000EF04AFC81B291
:10598C00002900D158E7564B8B20598060E73A002C
:10599C0030005F490FF0E5F8041E0FD128000EF01F
:1059AC0038FC431E9BB2FE2B00D945E74C4BC1B2D1
:1059BC0058791971000201431820D4E73A003000DD
:1059CC0054490FF0CEF8002801D0534935E7280090
:1059DC000EF01FFC431E9BB2FE2B00D92CE7404B54
:1059EC001979587100020143182089B2FF3060E721
:1059FC000422280049490FF0B4F8002800D099E09F
:105A0C00022120000CAA0AF09DF8324B03211860E9
:105A1C000DAA20000AF096F8414E042130600EAA1F
:105A2C0020000AF08FF83F4D05210FAA28602000B6
:105A3C000AF088F83C4C274B206018680EF0E9FB04
:105A4C00C3B2306806930EF0E4FB060028680EF033
:105A5C00E0FB24680500002C0FD002222000334903
:105A6C000FF07FF800282ED00222200030490FF0D2
:105A7C0078F80227002800D0DEE6069B172B00D909
:105A8C00DAE6F6B23B2E00D9D6E6EDB23B2D00D9C4
:105A9C00D2E606F06BFE124C237D228B617DA07D3D
:105AAC00247B039764B20494069C0196029400959F
:105ABC0006F010FE041E00D1CDE6672885D0682CB8
:105ACC0000D0BDE6B8E60127D7E7C0463C1200205F
