:020000040800F2
:1000000000800020EDD5000879D6000849C6000818
:1000100000000000000000000000000000000000E0
:10002000000000000000000000000000B9120108FC
:1000300000000000000000006D1301083DC600082C
:1000400079D6000879D6000879D6000879D6000854
:1000500079D6000879D6000879D6000879D6000844
:1000600079D60008A1C60008ADC60008E5C600089C
:1000700079D6000879D6000879D6000879D6000824
:1000800079D6000879D6000879D6000879D6000814
:1000900079D600084DC6000879D6000879D6000840
:1000A00079D6000879D6000879D600085DC6000820
:0C00B0006DC600087DC6000879D6000867
:1000BC0010B5064C2378002B07D1054B002B02D032
:1000CC00044800E000BF0123237010BD380A002053
:1000DC0000000000D08F0108044B10B5002B03D09A
:1000EC000349044800E000BF10BDC04600000000FA
:1000FC003C0A0020D08F010802780B78002A03D02C
:10010C00013001319A42F7D0D01A70470023C25CFB
:10011C000133002AFBD1581E7047000002B471460F
:10012C0049084900095649008E4402BC7047C04634
:10013C0002B4714649084900095C49008E4402BC6E
:10014C007047C04603B47146490840004900095E37
:10015C0049008E4403BC704703B471464908400003
:10016C004900095A49008E4403BC704700224308D9
:10017C008B4274D303098B425FD3030A8B4244D363
:10018C00030B8B4228D3030C8B420DD3FF220902A5
:10019C0012BA030C8B4202D31212090265D0030B64
:1001AC008B4219D300E0090AC30B8B4201D3CB035A
:1001BC00C01A5241830B8B4201D38B03C01A52419C
:1001CC00430B8B4201D34B03C01A5241030B8B429E
:1001DC0001D30B03C01A5241C30A8B4201D3CB0289
:1001EC00C01A5241830A8B4201D38B02C01A52416E
:1001FC00430A8B4201D34B02C01A5241030A8B4271
:10020C0001D30B02C01A5241CDD2C3098B4201D388
:10021C00CB01C01A524183098B4201D38B01C01A06
:10022C00524143098B4201D34B01C01A524103097D
:10023C008B4201D30B01C01A5241C3088B4201D32C
:10024C00CB00C01A524183088B4201D38B00C01AD9
:10025C00524143088B4201D34B00C01A5241411A00
:10026C0000D20146524110467047FFE701B500200D
:10027C0000F0F0F802BDC0460029F7D076E77047D1
:10028C0003460B437FD4002243088B4274D30309EB
:10029C008B425FD3030A8B4244D3030B8B4228D38C
:1002AC00030C8B420DD3FF22090212BA030C8B42B2
:1002BC0002D31212090265D0030B8B4219D300E052
:1002CC00090AC30B8B4201D3CB03C01A5241830BD7
:1002DC008B4201D38B03C01A5241430B8B4201D387
:1002EC004B03C01A5241030B8B4201D30B03C01AB0
:1002FC005241C30A8B4201D3CB02C01A5241830A2A
:10030C008B4201D38B02C01A5241430A8B4201D358
:10031C004B02C01A5241030A8B4201D30B02C01A82
:10032C005241CDD2C3098B4201D3CB01C01A5241E9
:10033C0083098B4201D38B01C01A524143098B4272
:10034C0001D34B01C01A524103098B4201D30B015B
:10035C00C01A5241C3088B4201D3CB00C01A524180
:10036C0083088B4201D38B00C01A524143088B4245
:10037C0001D34B00C01A5241411A00D201465241DE
:10038C00104670475DE0CA0F00D04942031000D3FD
:10039C004042534000229C4603098B422DD3030A52
:1003AC008B4212D3FC22890112BA030A8B420CD362
:1003BC00890192118B4208D3890192118B4204D38B
:1003CC0089013AD0921100E08909C3098B4201D30B
:1003DC00CB01C01A524183098B4201D38B01C01A45
:1003EC00524143098B4201D34B01C01A52410309BC
:1003FC008B4201D30B01C01A5241C3088B4201D36B
:10040C00CB00C01A524183088B4201D38B00C01A17
:10041C005241D9D243088B4201D34B00C01A5241EE
:10042C00411A00D20146634652415B10104601D37B
:10043C004042002B00D54942704763465B1000D305
:10044C00404201B5002000F005F802BD0029F8D0AB
:10045C0016E770477047C046D0400B1CD1409C46F5
:10046C00203AD34018435242634693401843704796
:10047C008446101C62468C46191C634600E0C0463C
:10048C001FB501F029FC002801D40021C8421FBD72
:10049C0010B501F081FB4042013010BD10B501F0E8
:1004AC001BFC002801DB002010BD012010BDC04644
:1004BC0010B501F011FC002801DD002010BD012059
:1004CC0010BDC04610B501F0A3FB002801DC0020D4
:1004DC0010BD012010BDC04610B501F099FB0028DD
:1004EC0001DA002010BD012010BDC0468446081C56
:1004FC006146FFE71FB500F0FDFA002801D400218A
:10050C00C8421FBD10B500F07FFA4042013010BD4B
:10051C0010B500F0EFFA002801DB002010BD01201F
:10052C0010BDC04610B500F0E5FA002801DD002032
:10053C0010BD012010BDC04610B500F08DFA00288A
:10054C0001DC002010BD012010BDC04610B500F02C
:10055C0083FA002801DA002010BD012010BDC0462E
:10056C00002B11D1002A0FD1002900D1002802D074
:10057C000021C943081C07B4024802A1401802908C
:10058C0003BDC046D1FEFFFF03B4684601B5029817
:10059C0000F066F8019B9E4602B00CBC7047C0464A
:1005AC00F0B5CE46474615042D0C2E0080B5070439
:1005BC00140C3F0C9946030C7E435D436743634325
:1005CC007F19340CE4199C46A54203D980235B02A5
:1005DC009846C4444B4643435143250C360465446A
:1005EC00360C2404A4195B19591820000CBC904635
:1005FC009946F0BD9E2110B5C905041CFFF7A6FF56
:10060C00002803D1201C00F089FC10BD9E21201C69
:10061C00C90500F0BFFA00F081FC80231B069C4644
:10062C006044F2E770B500220C4B04000D00FFF79C
:10063C0053FF002804D12000290002F08BF970BD73
:10064C00064B00222000290001F020FE02F082F966
:10065C0080231B069C466044F1E7C0460000E04145
:10066C00F0B54F464646D646C0B5040082B00D00E4
:10067C00914698468B422FD82CD04146484602F0E2
:10068C00FFFA29000600200002F0FAFA331A9C4601
:10069C00203B9A4600D576E04B46524693401F00CD
:1006AC004B46624693401E00AF4228D825D0534695
:1006BC00A41BBD41002B00DA7BE00022002300923A
:1006CC0001930123524693400193012362469340C8
:1006DC00009318E08242D0D90022002300920193AB
:1006EC000A9B002B01D01C605D600098019902B040
:1006FC001CBC90469946A246F0BDA342D7D9002215
:10070C000023009201936346002BE9D0FB07984627
:10071C00414672080A437B0866460EE0AB4201D1A3
:10072C00A2420CD8A41A9D41012024196D4100212C
:10073C00013E24184D41002E06D0AB42EED9013EAD
:10074C0024196D41002EF8D10098019953460019D7
:10075C006941002B23DB2B005246D3402A00644610
:10076C00E2401C0053461500002B2DDB260057469B
:10077C00BE40330026006746BE403200801A9941C5
:10078C0000900191ACE7624620239B1A4A46DA405E
:10079C006146130042468A4017001F4380E76246B9
:1007AC0020239B1A2A0066469A402300F3401343E9
:1007BC00D4E76246202300219B1A0022009101926B
:1007CC000122DA40019280E72023624626009B1A20
:1007DC00DE402F00B0466646B74046463B003343EA
:1007EC00C8E7C046F8B557464E464546DE46440275
:1007FC00E0B546008846640A360EC70F002E63D05B
:10080C00FF2E24D08023E400DB041C4300239946F4
:10081C009B467F3E434642465D02D20F5B006D0A0B
:10082C001B0E9046924665D0FF2B55D0802200219E
:10083C00ED00D2047F3B1543F61A43464A467B40F3
:10084C000F2A00D98DE06D48920082589746002CF3
:10085C0054D108239946063BFF269B46DAE7002530
:10086C00534602291BD0032900D1BFE0012928D00F
:10087C0030007F30002820DD6A0704D00F222A4088
:10088C00042A00D004352A0103D530005C4A80309C
:10089C001540FE2803DCAC01640AC2B201E0FF2261
:1008AC0000246402D205600ADB07104318433CBCE9
:1008BC0090469946A246AB46F8BD0122101A1B2859
:1008CC007CDD00220024ECE7002C1DD1042399468A
:1008DC00033B00269B469DE7FF3E002D20D10221C5
:1008EC0043464A467B400A430F2AD8D845489200D3
:1008FC0082589746002D19D10121F1E70C23994616
:10090C00093BFF269B4685E7200002F09BF97626E3
:10091C00431F9C4000237642361A99469B4679E742
:10092C004A4603231A439146032186E7280002F026
:10093C0089F9431F36189D40763600217DE78024C7
:10094C000023E403FF22ACE700258023DB031C42D9
:10095C0028D01D4226D12B435C02640A4346FF2259
:10096C009FE762016C01A24224D21B210025013EAB
:10097C00012710006D005200002801DB944201D8C1
:10098C00121B3D4301390029F3D11400621E94411E
:10099C0025436DE7BA46594625005346022900D037
:1009AC0061E77CE78023DB031C436402640A3B00A1
:1009BC00FF2276E7121B1A210125D9E79E362A0061
:1009CC00B5402C00C240651EAC411443620704D0F4
:1009DC000F222240042A00D00434620103D4A40163
:1009EC00640A00225DE7012200245AE78024E40314
:1009FC002C436402640AFF2253E7C0461890010896
:100A0C00FFFFFFF75890010870B542004E024C00F2
:100A1C0045026D0A120EC30F760A240EC90FFF2A67
:100A2C000FD0FF2C11D00120A24200D070BDB542D6
:100A3C00FCD18B420DD0002AF8D12800451EA841CC
:100A4C00F4E70120002DF1D1EBE70120002EEDD1D0
:100A5C00E9E70020EAE7C04670B54A004E024502BD
:100A6C0044006D0A240EC30F760A120EC90FFF2C18
:100A7C0015D0FF2A0ED0002C15D1002A01D1002E42
:100A8C001CD0002D14D08B4227D00220013B1840E3
:100A9C00013870BD002EEED002204042F9E7002D47
:100AAC00FAD1FF2A0ED0002A0ED1002EEDD00BE089
:100ABC0001230139994308000130EAE70020002D99
:100ACC00E7D0E2E7002EE7D18B42DED1944205DD80
:100ADC000221581E08400138DBE70024A24204DC46
:100AEC00B542D2D80020B542D3D2581E0123984328
:100AFC000130CEE730B5420044024D02C30F48002E
:100B0C00640A120E6D0A000EC90FFF2A12D0FF28BC
:100B1C000CD0002A12D1002819D1002D17D1002C8D
:100B2C002BD00220013B1840013826E0002DF0D0DC
:100B3C00022022E0002CFBD1FF281FD000281FD15F
:100B4C00002D1DD10220013B1840013815E0002C6E
:100B5C000ED08B42E5D10022904204DCAC42E0D8AE
:100B6C000020AC4209D2581E01239843013004E006
:100B7C000123013999430800013030BD002DD7D134
:100B8C008B42CED18242E7DD0221581E084001384B
:100B9C00F3E7C046F8B54746CE464400C20F80B5D1
:100BAC0047024802400A8446664648007F0A240EE3
:100BBC00F60025009046FB00000EC90FB146FF2839
:100BCC0000D185E001267140261A914257D0002EA3
:100BDC0043DD002800D07FE04946002900D1AAE07F
:100BEC00013E002E00D0F7E05B1A5A0100D48BE0D6
:100BFC009B019C09200002F025F8053884408542B1
:100C0C0000DDD3E0451B230020200135EB40451BC4
:100C1C00AC40621E94412343072400251C40012252
:100C2C0041460A40002C04D00F211940042900D061
:100C3C000433590100D480E00135ECB2FF2D00D013
:100C4C00A3E0FF2400235B02E405580AD2072043EB
:100C5C0010430CBC90469946F8BD002E74D1601C14
:100C6C00C0B2012800DCA7E04A469C1A620100D5FC
:100C7C00B6E0002CBED1002200240023E3E7002EB6
:100C8C0000DC85E0002846D0FF2C49D08022484665
:100C9C00D2041043814601221B2E09DC20204C4635
:100CAC00801B84404A462000F240441EA04102436F
:100CBC009B185A0128D50135FF2D00D1A8E001223F
:100CCC00072494491A405B080B4013431C40A6E7C9
:100CDC00002E00D078E775E7FF2C54D080224946CF
:100CEC00D2041143894601221B2E09DC20214846DF
:100CFC00891B88404A460100F240481E81410A4344
:100D0C009B1A5A0100D573E7012241460A40590744
:100D1C0000D089E711E04846002858D1FF2C0CD1AF
:100D2C00DB08002B00D18CE78020C00303435B025F
:100D3C005B0AFF2487E7FF2C25D0DB08FF2DF0D0C2
:100D4C005B025B0AECB27EE7002C4DD0FF2818D07A
:100D5C008024E404724223431B2A00DDC4E01C00FF
:100D6C002025D440AA1A93405A1E934123434A4645
:100D7C000500D31A884638E7721CF8D0F243FF28D6
:100D8C00EAD10A004B46FF25D7E79B015B0A5AE7DD
:100D9C00002E41D1651CE9B2012945DDFF2D00D1A2
:100DAC004FE707244B445B081C4038E707225A4B9B
:100DBC002D1A2340144032E7002C1DD1002B7AD180
:100DCC004B46002B00D191E00A000025B5E7013E0F
:100DDC00002E19D14B446CE7FF2C84D1FF25ACE7D6
:100DEC004A468846D41A05E7002BC5D10A00FF28CD
:100DFC00C8D005004B46A0E7002B49D14B46002B31
:100E0C0077D00A00FF2598E7FF2C00D043E787E74F
:100E1C000A00FF24002316E7002C15D1002B57D114
:100E2C00FF28E6D14B467BE7002C20D1002B57D076
:100E3C004946002953D04B445A0168D50724364AF9
:100E4C001C4001251340EAE6FF28EBD08022D20497
:100E5C00764213431B2E53DC2025AD1B1A00AB40EE
:100E6C00F2405C1EA34113434B44050021E7002BC9
:100E7C00D8D04946002900D152E78021C9030F423E
:100E8C0000D14DE76046084200D049E74B4647E7A2
:100E9C004846FF25002800D14FE78022D203174295
:100EAC0004D06046104201D14B468846012241468F
:100EBC00FF250A4041E7484600281FD01A1A500166
:100ECC0020D54A460724D31A1C4088460025A6E69E
:100EDC00741CC9D0F643FF28BCD14B4620E7994679
:100EEC004B460025DB082BE7012340E700220023BB
:100EFC00A9E680230022DB03FF24A4E600251CE7DF
:100F0C000123B1E7002AF1D013000025FCE60025EF
:100F1C00FAE6C046FFFFFF7DFFFFFFFB41024200E8
:100F2C00C30F490A120E00207E2A0DD99D2A0CD817
:100F3C00802000040143952A0ADC9620821AD140B5
:100F4C004842002B00D108007047034A9818FBE771
:100F5C00963A9140F4E7C046FFFFFF7FF0B54F464D
:100F6C004646D6460C000903C0B5490A470F5E0039
:100F7C0039431F03DB0F9C4665007B0A570F1F4349
:100F8C006D0DE40F760DA146C000B846D200AB1B28
:100F9C0064457BD0002B5FDD002E00D0A4E03E002A
:100FAC00164300D112E15E1E002E00D09EE1871A7E
:100FBC004346B84280410125C91A4042091A0B0226
:100FCC0000D431E149024E0A002E00D16EE130000E
:100FDC0001F038FE0300083B1F2B00DD61E12022ED
:100FEC003900D21A9E40D1409F400E439D4200DDF5
:100FFC0051E15D1B6B1C1F2B00DD7CE12021C91A0C
:10100C003D0030008F408840DD40791E8F4131001B
:10101C0007222843D940002507433A40002A09D02B
:10102C000F233B40042B05D03B1DBB42BF417F42ED
:10103C00C9191F000B0200D426E26A1CC64B5505C9
:10104C006D0D9A4200D106E1C44AFF080A405307CD
:10105C0052023B43120B8EE0002B00D0B8E06B1C0D
:10106C005B055B0D012B00DC30E1871A4346B8426F
:10107C00B641CB1A76429E1B330200D54CE13B00A5
:10108C003343A1D100220024002570E0002B00DCAA
:10109C00E5E0002E00D183E0AF4EB54260D0802653
:1010AC0036043743B846382B00DC3EE14346134345
:1010BC001F007A1E97413F18874280414042091811
:1010CC000B0200D4B0E0A44B01359D4200D1C3E02B
:1010DC00A24A7B080A4001210F401F435108D30745
:1010EC0007221F433A4099E79B4EB54238D08026E1
:1010FC0036043743B846382B00DDDCE01F2B00DC10
:10110C0030E11E004746203EF740BC46202B04D061
:10111C004026F31A46469E403243170063467A1E19
:10112C0097411F43CCE0002B00D104E2434613430C
:10113C0000D159E14B07C00818438023C9081B0391
:10114C00194208D04546ED081D4204D14346D0084B
:10115C00590708432900420FC9007F4D1143C000B5
:10116C004B07CA087C49C00803438D4268D0120360
:10117C006D05120B6D0D002112031800130B0A0DD7
:10118C0012051A43764B2D0513402B435B00E407E5
:10119C005B08234319001CBC90469946A246F0BD3F
:1011AC003E00164312D05E1E002E00D000E18718C0
:1011BC008742804141444042091801250B0233D536
:1011CC00022585E764463300414610001D00C7E741
:1011DC00002D00D0DAE00C000443F3D05C1C00D1ED
:1011EC009FE15D4CA64200D12FE1DB43382B00DDA3
:1011FC0066E11F2B00DD83E120240500E41A0F00BB
:10120C00DD40D940A0404346A7405B1A441EA04194
:10121C0098462F433843171ABA42924143465242DA
:10122C00991A64463500CAE607223A40002A00D0D3
:10123C00F6E64B07CA084849FF083B438D4296D156
:10124C001900114300D19EE1802109030A431203C6
:10125C00120B414D8FE71500002200238BE7002B6A
:10126C0000D0C7E06B1C5F057F0D012F00DCF1E0A7
:10127C00394DAB4200D1B9E085180A00854289414D
:10128C004244494251180722CF076D082F434908A1
:10129C003A401D00C2E607223049ED1A31403A406F
:1012AC00BCE63E002838864000279FE6380001F057
:1012BC00C9FC20308EE6434613431F007A1E97412B
:1012CC00C71BB84280414042091A78E60E003B0029
:1012DC0006431343002D61D1002E00D0F4E0002B07
:1012EC0000D11BE164463900100039E71A4FBB42AC
:1012FC007AD03300FFE630001F3DE840202B03D0AE
:10130C004021CB1A9E4037437B1E9F410722074347
:10131C003A400021002589E7171A4346BA42B641E4
:10132C00591A76428E1B64464EE61F2B00DDADE04B
:10133C0020264746F61AB740B9461700B246DF409A
:10134C004E463E4337005646B240561EB2411743F6
:10135C004246DA408918AEE6FF070000FFFF7FFF28
:10136C00FFFF0F8020264746F61AB740B9461700F4
:10137C00B246DF404E463E4337005646B240561EFC
:10138C00B24117434246DA40891A99E77F4CA6428C
:10139C005BD0802424045B42214327E7002E0CD130
:1013AC00002B00D1CBE0644639001000774DD7E616
:1013BC00764FBB4218D0330075E6002B14D04B0788
:1013CC00C00818438023C9081B03194207D0FC0826
:1013DC001C4204D17907D0080843E14621004C4651
:1013EC00420FC9001143C000684DB9E61D00002230
:1013FC000023C0E6002D5BD10D00054300D1E2E6D1
:10140C005D1C00D1B0E0614DAE421FD0DB43382BE8
:10141C0071DC1F2B00DD96E020250F00ED1AAF408C
:10142C00B9460700AA46DF404D463D432F005546BE
:10143C00A840D940451EA84188440743BF1897428D
:10144C0092415142414435003AE6644635004146EA
:10145C00100085E60B000343002D00D063E6002B43
:10146C00F5D04346134300D17AE687188742804172
:10147C0007224144404209183A400B0200D4D5E6F9
:10148C00434B01351940C9E5380069E61E00474653
:10149C00203EF740BC46202B04D04026F31A46468B
:1014AC009E403243170063467A1E97411F4302E663
:1014BC00364DAE42CAD080252D045B422943A6E7A7
:1014CC000843411E8841A6E6002B00D148E6871A46
:1014DC004346B842B641CB1A76429E1B33024BD5DB
:1014EC00171A4346BA429241591A5242891A072294
:1014FC0064463A4092E501430F00791E8F419DE707
:10150C001C000F00203CE740202B03D04024E31AA2
:10151C0099400843411E884138437CE60022002450
:10152C0025E6171A4346BA429241591A5242891A71
:10153C006446350043E541461000144D10E6802208
:10154C000024120380E61D000F00203DEF40BC4636
:10155C00202B03D04025EB1A994008430700634623
:10156C00781E87411F4369E7871897429B41414486
:10157C005B42C9183500A3E53B003343CED00722AC
:10158C0031003A4052E600231A00F4E5FF07000050
:10159C00FFFF7FFFF0B55746DE464E464546E0B5A9
:1015AC00834607000E03480085B092461C00360B9C
:1015BC00400DCD0F002800D19DE0954B984239D0BD
:1015CC008023F6001B041E43924A7B0F334399463B
:1015DC00944603006344009300230026FF0002930B
:1015EC0023031B0B98466300E40F52465B0D0194DA
:1015FC0000D1B3E086498B4200D19EE04246D10037
:10160C00802212040A435146490F11438B468149EB
:10161C0052468C4600996344CB1A0021D2000093A9
:10162C002B0063409A460F2E00D905E17A4BB60089
:10163C009B599F465B463343994600D0B8E0022342
:10164C000826002700900293CAE7CB463A0002997D
:10165C000195019B9A46022927D0032900D180E2EB
:10166C00012944D06D49009B8C4663441C00002C1E
:10167C0038DD530700D013E2D2085B46DB0109D5F5
:10168C005946674B19408B468021C9008C46009BFC
:10169C0063441C00634B9C4207DC5B4664055F079C
:1016AC005B0217431B0B620D02E000230027584A14
:1016BC0000211B031C0B0B0D1B05234314055A4A5D
:1016CC00380013401C4353466400DB0764081C437A
:1016DC00210005B03CBC90469946A246AB46F0BDF5
:1016EC000122524201231B1B382B00DCADE10022EE
:1016FC0000230027DCE75B46334399465ED0002E7F
:10170C0000D18AE1300001F09DFA03000B3B1C2B49
:10171C0000DD7BE11D22D31A5A460100DA4008395C
:10172C008E4013005F46334399468F403F4B002653
:10173C001B1A00930023029352E7414653460B4376
:10174C003B499B468C46009B634400935B46002BB5
:10175C003BD1022300221E43022161E7434613437F
:10176C009B4637D04346002B00D162E1404601F046
:10177C0069FA03000B3B1C2B00DD53E102004146D0
:10178C00083A914088461D21CB1A5146D9400B008E
:10179C0041460B439B46534693401A00009B2549F8
:1017AC009C46604403008C4663440093002137E759
:1017BC000323B14600900C26029311E700230093FB
:1017CC0001330426002702930AE70323C3461E4372
:1017DC00032125E701331E430022012120E70023CA
:1017EC009A46802300271B03094A61E78023494658
:1017FC001B03194200D1E2E05946194200D0DEE049
:10180C000B431B0317001B0BA246014A50E7C046B3
:10181C00FF07000001FCFFFF98900108FF03000088
:10182C00FFFFFFFEFE070000FFFF0F800DFCFFFF18
:10183C0001F8FFFFF3030000D94500D9CBE000D13C
:10184C00C6E03C0048460027009B013B00935B46EA
:10185C00160E1B021E431302984633041B0C9946AA
:10186C00310C0191FEF708FD4A4642430B04210C52
:10187C00050019438A4207D98919013D8E4203D8C4
:10188C008A4201D9851E8919881A0199FEF7F4FC40
:10189C0009048C464A46210464464243090C030061
:1018AC0021438A4204D98919013B8E4200D8F1E0C8
:1018BC002D041D43AB464346891A4246280C12049C
:1018CC001D0C5B46140C22001B041B0C5A43039486
:1018DC006B434443029568431B19150CEB189C424F
:1018EC0003D980246402A44660441C0C15041B0418
:1018FC002D0C20185D19814277D373D00C1AA24A93
:10190C007D1BAF42BF419446009B7F426344E01B6A
:10191C001C00864200D1DBE00199FEF7ADFC4A4683
:10192C0042430B04290C070019438A4207D9891931
:10193C00013F8E4203D88A4201D9871E8919881A21
:10194C000199FEF799FC09044A46894629044D463B
:10195C004243090C030029438A4207D98919013BE8
:10196C008E4203D88A4201D9831E89193F04891AF1
:10197C003A00039F1A43380013041B0C584381464A
:10198C000298150C6F43434345434846000C84466C
:10199C00DB1963449F4203D980204002844665448E
:1019AC0048461F0C00041B04000C7D191818A94292
:1019BC0000D284E000D17FE001231A4357E6802354
:1019CC004A461B0313431B031B0BAA466F4A6FE6C5
:1019DC00BA4200D935E74B46DC0758087B081C4354
:1019EC00FF0734E70024AF4289D247444745A4415E
:1019FC005B466442A4196418013BA6421ED2A04265
:101A0C006DD800D1B6E0241A9B4678E703005A46FD
:101A1C00283B9A400027914688E6584601F012F977
:101A2C00203072E603005246283B9A40934600222F
:101A3C00B4E6504601F006F920309AE6A642E2D10F
:101A4C00B845DCD9341A9B4659E71F2B65DC504C42
:101A5C000099A4465C46614408008C401100824009
:101A6C00D940501E82410C4314435A46DA401300AD
:101A7C00620709D00F222240042A05D02200141D2F
:101A8C009442894149425B181A0262D50122002313
:101A9C0000270DE68A4200D80AE7831E891907E75A
:101AAC000F231340042B00D1E6E5171D97429241FA
:101ABC0053429B44FA08E0E5002800D1D7E57118A1
:101ACC00531EB14227D3A94215D358D01A0073E73D
:101ADC00002B00DC04E6012300229B44CDE502230D
:101AEC004744474589415B429C46494289190C1938
:101AFC00E344241A03E743465F0047459B41B8463D
:101B0C005B429E19023A8919A94200D054E740451C
:101B1C0000D051E7ABE51A00F6E71F215F464942BA
:101B2C000C1BE740202B07D01A49009B8C466344C2
:101B3C0018005B4683401A43501E82413A430727E4
:101B4C000023174009D00F21002311401400042951
:101B5C0095D122005F075B021B0BD20817430022B2
:101B6C00A6E5802359461B030B431B0317001B0BD5
:101B7C00064A9DE5BD42B2D89B460024BFE680458F
:101B8C00B9D31A00C3E7C046FF030000FF070000EB
:101B9C001E0400003E040000F0B54F464646D646F3
:101BAC008446C0B58046194E18030F034D00000B38
:101BBC005C0082463F0B6D0DC90F9146640DDB0F27
:101BCC000120B5420AD0B44203D0A54201D15745F9
:101BDC000CD01CBC90469946A246F0BD66463E43CE
:101BEC00F7D1AC42F5D154461443F2D10120C8458B
:101BFC00EFD1994207D0002DEBD163461F4338003B
:101C0C00471EB841E5E70020E3E7C046FF070000A8
:101C1C00F0B54F464646D6464D00C0B50E03C90F2B
:101C2C008A462C491F035C008046360B6D0D91468D
:101C3C003F0B640DDB0F8D421ED08C4216D0002D55
:101C4C001ED130438446002C01D13A4323D0624646
:101C5C00002A1AD09A4529D0514602200139084051
:101C6C0001381CBC90469946A246F0BD3900114380
:101C7C00E5D002204042F4E73043FAD1AC420FD019
:101C8C00002C0FD13A43E7D00CE00122013B9343E7
:101C9C0018000130E5E763460020002BE1D0DBE7BC
:101CAC003A43E6D19A45D7D1A542D5DCA54205DB0E
:101CBC00BE42D1D808D00020BE42D2D25046012319
:101CCC00013898430130CCE7C845C5D80020C84539
:101CDC00F4D3C6E7FF070000F0B54F464646D6469C
:101CEC004D00C0B50E03C90F8A462E491F035C0078
:101CFC008046360B6D0D91463F0B640DDB0F8D420C
:101D0C0018D08C4211D0002D18D130438446002CB1
:101D1C001ED13A431CD163460020002B30D05146D3
:101D2C0002200139084001382AE039001143EAD079
:101D3C00022025E03043FBD1AC4226D0002C26D12A
:101D4C003A4324D15146022001390840013817E0AA
:101D5C006246002A0FD09A45E1D1A54205DBBE426E
:101D6C00DDD819D00020BE420AD2504601230138DA
:101D7C009843013004E00122013B934318000130E9
:101D8C001CBC90469946A246F0BD3A43D0D19A4528
:101D9C00C5D1A542C3DCE0E7C845C0D80020C84582
:101DAC00E3D3EDE7FF070000F0B55746DE464E469D
:101DBC004546E0B5834606000F03480087B09246BF
:101DCC001D003F0B400DCC0F002800D16FE0DE4B07
:101DDC00984238D08023FF001B041F43730F3B43F2
:101DEC000193DA4B0027994600239B46F600814469
:101DFC002B0369001B0B52469846490DED0F002929
:101E0C0000D185E0D04B994200D173E04346DA0013
:101E1C0080231B0413435246CC48520F8446134371
:101E2C00524600206144D20089442100694000914F
:101E3C008C46012149448A460F2F00D990E0C449B1
:101E4C00BF00CF59BF465B463B43019300D06AE1CC
:101E5C0002230827002681469B46C9E732005846D4
:101E6C00019B61460091022800D175E0032800D146
:101E7C00FEE1012800D02CE10023002700260025DC
:101E8C003F032A0D3F0BB34812053A4302401B0592
:101E9C001343009A5B00D1075B080B433000190019
:101EAC0007B03CBC90469946A246AB46F0BD5B469B
:101EBC003B43019300D12FE1002F00D1A5E1380065
:101ECC0000F0C0FE03000B3B1C2B00DD96E11D2235
:101EDC00D31A5A460100DA405E4608398F40130087
:101EEC008E403B4301939C4B00271B1A99460023C1
:101EFC009B467DE7414653460B4393498C46E14450
:101F0C00002B00D01AE102220220174300228CE79A
:101F1C00134300D10DE14346002B00D181E1404633
:101F2C0000F090FE02000B3A1C2A00DD72E1010069
:101F3C00434608398B4098461D239A1A5346D34082
:101F4C001A004346134352468A404946081A8249AE
:101F5C0089468144002068E77B4B002700268EE7EA
:101F6C00140C1204120C1100370C3604350C794386
:101F7C0028008C462E006043604483465643210063
:101F8C00300C80465846794340440291844506D92A
:101F9C008846802149028C46E04441460291360431
:101FAC00010C360C00048B4681191E0C1B041B0CF7
:101FBC000391190079438C46280075436544A84663
:101FCC005843050C45447743A94203D98021490263
:101FDC008C466744290C8C4639000004000C2D04F7
:101FEC002D186144AB4405915946049101990F0495
:101FFC003F0C080C390051434243904602008C467A
:10200C00090C8B4662437C4344445C44A04503D991
:10201C008021490288464244210C884661460904C5
:10202C00090C8C4639005943434370437E430F0CD3
:10203C00F6182404BE19644442448C46B34203D9B6
:10204C0080235B0298464044029B61469846049B61
:10205C00370443449B46AB45AD416B420D04059997
:10206C002D0C8C467F196744FD18A8465D462D192A
:10207C00A542A44193466442A446C344DC448F4227
:10208C00BF4198459B4193459241A445A4415B4275
:10209C007F421F43360C52426442BF192243BF1881
:1020AC00624638184302D20D039913436A020A435D
:1020BC00501E82416146ED0D2A434E023243D90136
:1020CC0000D4B3E00126500832400243DE0732430D
:1020DC005B08224C5444002C62DD510709D00F20C0
:1020EC001040042805D0101D9042924152429B187A
:1020FC000200D90104D580241948E400034054445B
:10210C001848844200DD27E75E075B02D2081F0BEC
:10211C00630516435B0DB2E6002399460133042791
:10212C0000269B4664E60323019781460C279B46B9
:10213C005EE6012201201743002276E603230320EA
:10214C001F43434671E6C046FF07000001FCFFFF3A
:10215C00D8900108FFFF0F800DFCFFFFFF0300006C
:10216C00FFFFFFFEFE0700000023802700933F03C4
:10217C000026434B83E6019B3200A446584670E68A
:10218C00AC466EE6802701993F0339422DD03B4285
:10219C002BD11F433F033F0B00951600384B6EE6C7
:1021AC0001252D1B382D00DD66E61F2D40DC354842
:1021BC001C005044160082408440EE40501E824168
:1021CC0034431443EB40620709D00F222240042A07
:1021DC0005D02200141D9442804140421B181A0263
:1021EC003ED501230027002649E68027019B3F03AB
:1021FC001F433F033F0B0094214B40E603005A461C
:10220C00283B9A40002601926DE6584600F01AFDD4
:10221C00203057E603005246283B9A401300002218
:10222C0093E6504600F00EFD20307BE6CA4650E7A0
:10223C001F201E004042041BE640202D03D0124CF0
:10224C005444A3401A43501E8241324307260027B0
:10225C00164009D00F200023104014000428B9D1D7
:10226C0022005E075B021F0BD2081643002306E612
:10227C0080273F031F433F033F0B1600004BFEE537
:10228C00FF0700001E0400003E040000F8B557468E
:10229C004E464546DE460C000903E0B5490A460F9A
:1022AC005F0031431E03DB0F760A9B46530F33430B
:1022BC00C84E6500C000E40FD2006D0DA2468146E9
:1022CC007F0D9C469046B74200D1B9E05B46012693
:1022DC0073409B46EE1BA34500D183E0002E63DDCB
:1022EC00002F00D0B1E06346134300D123E1731EED
:1022FC00002B00D0BAE1861A6346B042804101251A
:10230C00C91A4042091A0B0200D447E149024B0A90
:10231C0098464346002B00D189E1404600F092FCE0
:10232C000300083B1F2B00DD7CE120223000D21A79
:10233C004146D040994002009E400A439D4200DD38
:10234C006AE15D1B6B1C1F2B00DD94E1202110004A
:10235C003500C91A8E40DA408840DD40711E8E412E
:10236C00110007222843002506433240002A09D0D9
:10237C000F233340042B05D0331DB342B6417642B4
:10238C0089191E000B0200D43DE26A1C914B5505C5
:10239C006D0D9A4200D119E18F4AF6080A40570791
:1023AC0052023743120B9BE0002E00D0C5E06E1C8E
:1023BC007605760D012E00DC48E16746861ACB1BAC
:1023CC00B042BF417F42B8461F004346FF1A3B0054
:1023DC00B8461B0200D55FE137439AD10022002496
:1023EC00002579E0002E00DCFAE0002F00D18DE012
:1023FC00784B9D4267D0802367461B041F43BC4625
:10240C00382E00DC52E1634613435A1E93411E18CA
:10241C0086428041404209180B0200D4BEE06D4B4D
:10242C0001359D4200D1D2E06B4A73080A4001216C
:10243C000E401E435108D30707221E43324095E736
:10244C001E00164300D045E740E7624B9D423AD050
:10245C00802367461B041F43BC46382E00DDEBE08F
:10246C001F2E00DC3AE133006746203BDF403B0087
:10247C00202E05D04027BF1B6646BE4032439046F7
:10248C004646721E96413343DAE0002B00D114E22B
:10249C006346134300D168E180234E07C008C90886
:1024AC001B030643194208D06046C008184204D1E9
:1024BC0063460100D2085E071643F3009946C90033
:1024CC00720F444D11434B46DE08424B4F073743C6
:1024DC00CA089D4200D16EE012036D05120B6D0D02
:1024EC0000211203130B0A0D12051A433B4B2D0549
:1024FC0013402B435B00E4075B08234338001900AF
:10250C003CBC90469946A246AB46F8BD6346134385
:10251C0011D0731E002B00D007E186188642804133
:10252C0061444042091801250B0237D502257BE78F
:10253C003E00614691463500C5E75C46002D00D053
:10254C00E1E00B000343F3D0731C00D1ACE1214B51
:10255C009F4200D13AE1F343382B00DD6FE11F2B92
:10256C0000DD8CE120250E00ED1AAE40B0460600D1
:10257C00AA46DE40454635432E005546D940A84074
:10258C006346451EA8415B1A9C463043161AB2425C
:10259C00924163465242991A3D00B4E607223240FA
:1025AC00002A00D0E4E60B4BF6084F073743CA0865
:1025BC009D4200D090E73B00134300D1A6E180235D
:1025CC001B031A431203120B024D89E7150000225C
:1025DC00002785E7FF070000FFFF7FFFFFFF0F804D
:1025EC00002E00D0C7E06B1C5E05760D012E00DCC2
:1025FC00F0E0C84DAB4200D1B9E085180A00854225
:10260C0089416244494251180722CE076D082E4376
:10261C00490832401D00A9E6BF49ED1A11400722B6
:10262C003240A3E6320028388240002686E630008D
:10263C0000F008FB203073E6634613435A1E9341A7
:10264C00C61AB04280414042091A5CE60E00674649
:10265C0006431743002D5ED1002E00D0F3E0002F6F
:10266C0000D11EE15C46614691462CE7A94FBE4263
:10267C007BD01E00F1E610001F3DE840202B03D05C
:10268C004021CB1A9A401643731E9E4107220643E3
:10269C0032400021002583E7161A6346B24280417E
:1026AC00591A40420B1A98465C4632E61F2E00DD42
:1026BC00ABE02027BB1B9A4663465746BB40994666
:1026CC0013004F46F3401F433B005746BA40571E7A
:1026DC00BA4113436246F240891898E62027BB1B87
:1026EC009A4663465746BB40994613004F46F34003
:1026FC001F433B005746BA40571EBA41134362462C
:10270C00F240891A9CE7834B9F425FD080252D04B1
:10271C007342294320E7002E0CD1002F00D1D0E0CA
:10272C005C46614691467B4DCDE67A4FBE421CD04D
:10273C001E0065E6002F18D0C0084E070643802007
:10274C00C9080003014208D06346DC08044204D1E6
:10275C002100DA46D2085E071643F300994601249D
:10276C005346C900720F11431C406A4DABE61D0065
:10277C0000220027B4E6002D59D10B00034300D1F1
:10278C00D6E6731C00D1B2E0624B9F421ED0F343DD
:10279C00382B6FDC1F2B00DD97E020250E00ED1A87
:1027AC00AE40B0460600AA46DE40454635432E00F4
:1027BC005546A840D940451EA8418C440643B6183E
:1027CC0096429241514261443D0025E63D006146EE
:1027DC00914678E60B000343002D00D055E6002B04
:1027EC00F5D06346134300D16DE6861886428041CE
:1027FC0061444042091800220B0200D4D0E6464B3B
:10280C0001351940B2E5B1465DE633006746203B21
:10281C00DF403B00202E05D04027BF1B6646BE4044
:10282C00324390464646721E96413343EFE5394B90
:10283C009F42CBD080252D0473422943A8E708433F
:10284C00411E8841A2E6002F00D13CE66346861A61
:10285C00CF1AB0429B415B42FB1A98461B024ED5E5
:10286C00161A6346B2429241591A5242891A5C4670
:10287C0000227BE501430E00711E8E419FE71D0077
:10288C000E00203DEE40B046202B04D04025EB1A24
:10289C0099400843814648464346411E88411843A7
:1028AC0074E60022002417E6161A6346B2429241DF
:1028BC00591A5242891A3D0025E561469146154D3B
:1028CC0001E680220024120379E61D000E00203D53
:1028DC00EE40B046202B04D04025EB1A994008431B
:1028EC0081464E464346711E8E411E4367E786184D
:1028FC0096429B4161445B42C9183D008CE54746BA
:10290C003743CED007224146324049E600273A00F1
:10291C00E6E5C046FF070000FFFF7FFF70B50C4ED9
:10292C000D031C0349005B002D0B490D240B5B0DA3
:10293C00B14208D0064900208B4203D11443200039
:10294C00441EA04170BD05430120002DFAD1F1E7D2
:10295C00FF07000030B5144D0A034B00120B5B0D42
:10296C00C90F0024AB4211DD104CA34210DC8024B3
:10297C00640322430E4CE41A1F2C0CDD0D48C31AC1
:10298C00DA4013005C42002900D11C00200030BD4D
:10299C00094BCC18FAE7094DE040AC4663449A4029
:1029AC0013000343EEE7C046FE0300001D040000C5
:1029BC003304000013040000FFFFFF7FEDFBFFFF5B
:1029CC0070B500282DD0C317C5185D40C40F280062
:1029DC0000F038F9154B1B1A5B055B0D0A2815DD49
:1029EC000B38854000222D032D0B002110002D03E8
:1029FC000A0D2D0B12052A430D4D1B052A401343BE
:102A0C005B00E4075B082343190070BD020029003A
:102A1C00153291400A000B21081AC5402D032D0BCD
:102A2C00E3E70024002300250022DEE71E0400005B
:102A3C00FFFF0F8010B5041E25D000F003F9144BD6
:102A4C001B1A5B055B0D0A2812DD0B388440002233
:102A5C002403240B0021100024030A0D240B12055F
:102A6C0022430C4C1B05224013435B00590810BD3C
:102A7C0002002100153291400A000B21081AC440B3
:102A8C002403240BE6E7002300240022E2E7C046DF
:102A9C001E040000FFFF0F804100090E4B1C70B597
:102AAC00DBB24602750AC40F012B14DDE0239B0038
:102ABC006D07360BCB1800210A0D280012051C4D92
:102ACC0032435B052A405B0813435B00E4075B0859
:102ADC002343190070BD002914D1002D1ED02800ED
:102AEC0000F0B0F80A281CDC0B232A001B1ADA4071
:102AFC00030015339D400F4B12031B1A5B05160B7D
:102B0C005B0DD8E7002D06D0320B802636036D07FF
:102B1C001643094BCFE7084B0026CCE700230026D1
:102B2C00C9E703002A000B3B9A400025E3E7C046A7
:102B3C00FFFF0F8089030000FF070000F0B54C0079
:102B4C00640D0B03621C5B0A460F5205C90F1E4332
:102B5C00C500520D012A29DD374BE718FE2F1CDC6E
:102B6C00002F3BDD8001431E98410722F3006D0FBF
:102B7C0003432B431A40002A04D00F221A40042A84
:102B8C0000D004338022D2041A4024D00137FAB288
:102B9C00FF2F02D09B01580A01E0FF2200204002C7
:102BAC00D205400AC90710430843F0BD3543002C39
:102BBC0004D1002D0AD100220020F0E7002DECD02A
:102BCC008020C0033043FF22E9E7002400235B028E
:102BDC00580AE2B2E3E7DB083C00F8E73B001733A6
:102BEC00F3DB80231B0433431E26F61B1F2E14DD40
:102BFC0002225242D71B1A00FA401700202E04D092
:102C0C000E4A94466444A3401D432B005D1EAB4109
:102C1C0007223B431A400027ADE7094A2800A218B7
:102C2C00954093406C1EA541F04007222B43034373
:102C3C001A4000279FE7C04680FCFFFFA2FCFFFF65
:102C4C0082FCFFFF1C2101231B04984201D3000CC2
:102C5C0010391B0A984201D3000A08391B09984203
:102C6C0001D30009043902A2105C40187047C04619
:102C7C000403020201010101000000000000000039
:102C8C0010B5002903D1FFF7DDFF203002E0081C4E
:102C9C00FFF7D8FF10BDC046BFF34F8F034B044A5C
:102CAC00DA60BFF34F8FC046FDE7C04600ED00E091
:102CBC000400FA050020704710B5002801D172B647
:102CCC00FEE7FFF7E9FF0000F0B5002585B0040032
:102CDC00170002950395A84201D172B6FEE702AA2D
:102CEC00012138000CF07CFE0023C3566826702BA3
:102CFC0005D1013011F04FFA2E00C3B2019303AA93
:102D0C00022138000CF06CFE11F045FA0500682E1B
:102D1C0006D10949200011F007FF002005B0F0BDD5
:102D2C00010001980AF052FC019B2A000349200083
:102D3C0011F0BEFEF1E7C046F89E01080B9F01089A
:102D4C0010B5002801D172B6FEE7044B04491A688D
:102D5C0092B211F0ADFE002010BDC046CCF7FF1FA3
:102D6C00C096010810B5002801D172B6FEE7104BD1
:102D7C0010491A780A2353435C5C002C13D10E497A
:102D8C0011F096FE80210122C9010C480FF024FBA2
:102D9C00C8200CF028FD80210022C90107480FF043
:102DAC001BFB002010BD5B18054911F081FEE9E703
:102DBC00DA110020D6100020809B01080004004886
:102DCC00949B010810B50EF03BFAC4B2200006F03B
:102DDC00C3F9200006F0EAF910BD0000F0B58DB083
:102DEC0004000E225F4908A811F05FFC002C01D1F1
:102DFC0072B6FEE75C4B3722187801235B420093D6
:102E0C005A4933330AF080FB0026731CDBB205935E
:102E1C00574B1B78B34206D85649200011F084FE5C
:102E2C0000200DB0F0BD14237343534D5A5D002A9E
:102E3C000AD00722EB181B7C5049534308AAD3181D
:102E4C002000059A11F034FE14277743EB5D0493B0
:102E5C00012B1FD0032B54D014235E43464B9E19D9
:102E6C00474DF068290006F08FF800286AD14549D3
:102E7C00200011F03DFE2000FDF748F93A4B82B2DC
:102E8C00187801235B420093210033330AF03CFB9A
:102E9C00059EBAE7EF19F878FA6805380928DBD8E7
:102EAC00FDF73CF90510DADA181818252525142336
:102EBC007343ED18AB78009222003349200011F0D7
:102ECC00F7FDC9E714237343ED18AB782F49009233
:102EDC002200F3E714237343ED18AB7801922A799F
:102EEC002B4900922200200011F0E2FDB4E71423DC
:102EFC007343ED18AB7801922A792649009222008F
:102F0C00F1E7B91D6918ED190C27042207A811F077
:102F1C00CCFBEB780798013B5F431F4BDF19FFF7A6
:102F2C00BBFD029003916B78049A013B5A4313004A
:102F3C001A4A1B49D3180093BB682200200011F0D9
:102F4C00B7FD89E722002B001649200011F0B0FDD7
:102F5C002800FDF7DBF800210200280011F0AEFB81
:102F6C007EE7C046E88F0108570A002000A101083F
:102F7C0005140020C2A10108F06B002038A1010843
:102F8C00800E0020B6A1010844A1010855A101083A
:102F9C006DA1010885A1010848000020989901083D
:102FAC009EA10108AEA1010810B5041E01D172B694
:102FBC00FEE70EF019FB124B80B2C018114908281D
:102FCC001CD8FDF7B5F8151B191B05131B1B170097
:102FDC000D4A200011F06CFD0EF000FB2200030BDB
:102FEC000A49200011F064FD002010BD084AF0E7EA
:102FFC00084AEEE7084AECE7084AEAE7084AE8E735
:10300C00C0FBFFFFAE980108A4980108F1980108D5
:10301C00C1980108CB980108D5980108DF980108E0
:10302C00E99801080023F7B50400160000930193FA
:10303C00984201D172B6FEE76A46012130000CF0CD
:10304C00CFFC534B042253490700186011F074FD58
:10305C0000285DD1009B3E1D1D1F2A004E493000EB
:10306C0011F06AFD00280DD14C4B9B79602B05D1DA
:10307C004B4A4C49200011F01BFD77E0202B0ED160
:10308C00494AF6E72A004949300011F055FD00285D
:10309C000BD1424BDB79032BEAD0012BF0D0444A05
:1030AC00002BE6D03A004349E4E72A0042493000BD
:1030BC0011F042FD002803D1384B9A683F49D9E7FB
:1030CC002A003F49300011F037FD002802D1334B64
:1030DC001A88F3E72A003B49300011F02DFD002837
:1030EC0002D12E4B5A88E9E72A003749300011F0FB
:1030FC0023FD002802D1294B1A79DFE72A00334936
:10310C00300011F019FD002832D1244B5A79D5E743
:10311C0005222F49380011F00FFD051E28D1300073
:10312C0001AA02210CF05CFC06002A4F0A2169431B
:10313C0030007918FCF7E0FF00281ED001350A2D6D
:10314C00F4D13200244995E76B1E244A5B009B5A4C
:10315C001E4205D02B0022002149200011F0A8FCB2
:10316C000135EDB21F4B1B78AB42EDD20020FEBDFA
:10317C001D49200011F0D8FCF8E732001B49200053
:10318C0011F096FC01231E00AE401D00EAE7C0467C
:10319C00141200201197010816970108786B002073
:1031AC001F970108BC910108239701082C9701086F
:1031BC00279701089C970108329701086BB2010808
:1031CC003E9701084797010857970108699701082E
:1031DC007B970108BD0E0020BA970108220F002032
:1031EC00819701081C00002089970108D5970108D8
:1031FC0010B5041E01D172B6FEE7044911F094FC1F
:10320C00200050300DF090FD002010BDC09B010837
:10321C0010B5041E01D172B6FEE7044911F084FC0E
:10322C0020005A300DF030FD002010BD249C010808
:10323C0070B5041E01D172B6FEE70F4911F074FC93
:10324C000E4D0F4B290022001B68200011F030FCA2
:10325C000C4B290022001B68200011F029FC0A4BA2
:10326C0029001B682200200011F022FC07492000D5
:10327C0011F03EFC002070BDD4B00108E2B0010892
:10328C00ACF7FF1FB0F7FF1FB4F7FF1F20A7010813
:10329C008020134A30B5D16940000143D161D36914
:1032AC0085B0034001930F4C019B0F4B002523600D
:1032BC000FF046FC0D49FCF759FF0D4B60602000E8
:1032CC00E360A56010F02CFA02A92000029503958A
:1032DC0010F041FA200010F0FCF805B030BDC046EB
:1032EC0000100240946B00200020004040420F0070
:1032FC00FFFF00008020134A30B591694002014362
:10330C009161936985B0034001930F4C019B0F4B66
:10331C00002523600FF014FCFA218900FCF726FF2E
:10332C000B4B60602000E360A56010F0F9F902A976
:10333C0020000295039510F00EFA200010F0C9F849
:10334C0005B030BD00100240C46A002000400140AE
:10335C00FFFF00000B78F0B5FF220400002B00D11A
:10336C000278084B1E78002318009E4200DCF0BD4A
:10337C00E55C954204D2CF5C002F01D12A00D8B273
:10338C000133F2E71C00002010B5064B01221C781B
:10339C000300191A8C4201DC100010BD197801339E
:1033AC000A40F6E71C000020013810B504280BD8A1
:1033BC00002302221900FCF7BBFE03080A0C0E00C6
:1033CC00064800680DF054FD10BD0548F9E70548A6
:1033DC00F7E70548F5E70548F3E7C046FC1500207C
:1033EC000016002004160020081600200C160020E1
:1033FC00F0B589B01522002102A811F05FF90EF08A
:10340C0035FE58480EF0CCFE57480EF04BFE031E0E
:10341C0004D0564BD869C0B209B0F0BD0226544C4A
:10342C002269B2432261534A1178002909D100273D
:10343C00514D524B1B78BB4242D80EF029FE002056
:10344C00EAE74F4A012012781202521892B245490B
:10345C000EF052FE44480EF025FE0028D9D101256D
:10346C002369AB432361464B1B78AB42DFD3162356
:10347C00162200276B4300936B1E5A430192414A5C
:10348C00019B9B5A002B15D000997B005B18163BB7
:10349C00D25A344B0120F11800230EF02DFE0236C7
:1034AC003148B6B20EF0FEFD0028B2D101222369DC
:1034BC009343236101370B2FE1D10135EDB2D2E7F4
:1034CC0014217943304BCB5C002B32D0FE222E00E2
:1034DC0002AB1A702C4B1422C91802AB581C11F0F9
:1034EC00E4F814360095009A02AB9B1A5A5B29003B
:1034FC00002301200EF000FE1B480EF0D3FD002827
:10350C0000D086E701222369023593432361AE4242
:10351C00E9D1142306007B430193019A1A4B9B18A3
:10352C00DB6818000093FCF7F1FD0130400886427F
:10353C0002D30137FFB27CE7009A7300D25A2900FC
:10354C00002301200EF0D8FD07480EF0ABFD00283B
:10355C0000D05EE701222369B6189343236102353C
:10356C00F6B2DAE700D8010850C300003876002024
:10357C0000200240DA11002000DC010805140020B4
:10358C001C000020580A0020F06B0020F0B500252C
:10359C0085B00190019B10000395AB4201D172B62E
:1035AC00FEE703AA01210CF01BFA10F0EEFDC4B2E9
:1035BC00002C40D0214B1B78A3423CD31423C0B227
:1035CC00013858431E4F2900C61902303580042299
:1035DC00C01911F073F83574F06810F023FEF56023
:1035EC001425164B1B78A3420BD8144A013B1370BD
:1035FC00FFF7FEFE1349019811F096FA002005B072
:10360C00F0BD2B006343FB5C002B11D0631E6B439E
:10361C00180014303A181100FB18944645C945C3DC
:10362C001A0009C909C22A000021604611F046F8A7
:10363C000134E4B2D5E70449DDE7C04605140020A7
:10364C00F06B0020449601087A96010837B50025E6
:10365C00040001951000AC4201D172B6FEE701AA3C
:10366C0001210CF0BDF910F090FDC3B2002B12D06B
:10367C000A4A12789A420ED31423C0B2013843433B
:10368C000748C0180574FFF7B3FE0649200011F077
:10369C004BFA00203EBD0449F8E7C0460514002053
:1036AC00F06B0020389B01087A960108002313B5B3
:1036BC000400019310009C4201D172B6FEE701AAEE
:1036CC0001210CF08DF910F060FDC3B2002B13D06A
:1036DC000A4A12789A420FD31423C0B201384343DA
:1036EC000748C01801230374FFF782FE0549200028
:1036FC0011F01AFA002016BD0349F8E70514002052
:10370C00F06B0020699301087A96010810B5074AFE
:10371C000021074810F0D2FF0122064B1A7000223C
:10372C00054B1A70FFF764FE10BDC0462602000060
:10373C00580A00201C000020DA110020F7B53220B6
:10374C0010F066FD0600FB20002E05D02F4C043037
:10375C0023780027FE2B1BD0FEBD23000099143BC1
:10376C000135CA540134EDB22AE02A00310010F0C0
:10377C009CFF274A002113783000013313702A0074
:10378C0010F09CFF2378FE2B3AD11437642F37D0DE
:10379C002300321B14330092227800990A5501340D
:1037AC009C42F9D11B4B711CFB181422180001937D
:1037BC0010F07BFF14220021300010F07FFF002559
:1037CC002278931CDBB2012B01D9322DC5D1731990
:1037DC00013B1B78002B01D00135EDB2280010F015
:1037EC0017FD0C4BDB19D8600028BED10100142248
:1037FC00019810F063FF300010F014FD0E20ABE7C1
:10380C00300010F00FFD0020A6E7C04600DC0108D8
:10381C0005140020F06B0020184B19481B88F0B5DC
:10382C009BB2184A1849834205D101231370002317
:10383C00FA200B70F0BD180A0AD010700B70012022
:10384C00022316251478114EA04203D90020F1E76B
:10385C000120F2E72A00190042431631163A921958
:10386C0089B2064FDF193F8802339BB217800232B0
:10387C008B42F6D10130C0B2E6E7C04600D8010851
:10388C00FFFF00001C000020DA110020580A002065
:10389C00F8B5012400250A270A4B1B78A34201D254
:1038AC002800F8BD631E084A5B00995A661C002963
:1038BC0002D0B0B205F09EFD192C00D93D00F4B237
:1038CC00EAE7C0461C0000207E0C0020F8B50E4E26
:1038DC0032220021300010F0F1FE012400250B4BA8
:1038EC001B78A34201D22800F8BD631E5B00F15A7D
:1038FC00671C002902D0B8B205F07CFD192C00D948
:10390C000A25FCB2EBE7C0467E0C00201C00002010
:10391C00F8B5012400250A27094B1B78A34201D2D4
:10392C002800F8BD631E07495B00661CC918B0B2BD
:10393C0005F036FD192C00D93D00F4B2ECE7C04679
:10394C001C0000207E0C0020F7B500252F00134B27
:10395C001B78AB4201D20020FEBD0A266E43104BF1
:10396C00F25C002A17D0F6183B003C0021331C34C3
:10397C009BB2A4B20193337871781B02C918200052
:10398C0089B205F037FD0134019BA4B202369C428A
:10399C00F1D10537BFB20135EDB2D8E71C000020DC
:1039AC00D6100020F0B585B002AB00249F1D1C235F
:1039BC003C800093144B1B78A34202D2002005B02C
:1039CC00F0BD0A2300256343104A009E9B18019307
:1039DC003000390005F0E4FC019A3B885219537011
:1039EC00019A1B0A535501360235B6B20A2DEFD196
:1039FC006543064B01345D1900236B72009BE4B2E6
:103A0C0005339BB2D5E7C0461C000020D610002021
:103A1C00F0B5002485B002AB9F1D3C80174B651C94
:103A2C001B78E1B2ADB28B421ED89934144DA4B2BE
:103A3C00002601943900019805F0B2FC3B88AA19C4
:103A4C0053701B0AAB55019B023601339BB2019399
:103A5C000A2EEFD100200B4B687205340A35A4B244
:103A6C009D42E5D105B0F0BD074BCB344900A0B267
:103A7C00591805F095FC2C00D0E7C0461C0000201E
:103A8C00BD0E0020210F0020220F0020F0B50E00EB
:103A9C0015001C0085B00AAB1F780BAB1B7881B2EC
:103AAC0000930CAB1B78E42001930DAB1B780293B5
:103ABC000EAB1B78039305F09DFC310A89B2E5200F
:103ACC0005F098FCB1B2E62005F094FC290A89B205
:103ADC00E72005F08FFCA9B2E82005F08BFC210251
:103AEC00C91989B2E92005F085FC009BEA2019026E
:103AFC00019BC91889B205F07DFC029BEB201902D1
:103B0C00039BC91889B205F075FC002005B0F0BD07
:103B1C00F7B58A2001AD2900400005F041FC384C76
:103B2C0000284CD12B88A3711B0A16202900FF30CA
:103B3C00E37105F035FC002846D12B888B20290039
:103B4C004000238005F02CFC002840D12B88182045
:103B5C002900FF30638005F023FC00283AD12B8824
:103B6C0023711B0A8C2029004000637105F018FC9E
:103B7C006B4606001A209F1D3900FF3005F010FC23
:103B8C000643B6B2002E2AD13B882A881B04134365
:103B9C008D2029004000A36005F002FC002828D1EC
:103BAC002B8823731B0A63731C202900FF3005F03C
:103BBC00F7FB002821D12B880020E376FEBD114BAA
:103BCC009A79A271DB79B0E70E4B1B88B6E70D4BE7
:103BDC005B88BCE70B4B1A7922715B79C2E70A4B05
:103BEC001B78002B02D0E1235B02D1E7054B9B68CD
:103BFC00CEE7C0235B01A381D6E7024BDB7EDBE77C
:103C0C00786B002000000020560A00208A2010B596
:103C1C001A4C4000E379A1795B01194305F0EAFBEA
:103C2C0016202188FF3005F0E5FB8B2061884000D1
:103C3C0005F0E0FB18206379217B1B021943FF3050
:103C4C0005F0D8FB8C20A368400099B205F0D2FB9C
:103C5C001A20A368FF30190C05F0CCFB8D20637B78
:103C6C0021791B021943400005F0C4FB1C20E17EA6
:103C7C00FF3005F0BFFB002010BDC046786B002064
:103C8C0070B5054C054D2368AB4204D005F042FCE1
:103C9C00002800D1256070BDF07F0020ADDEEFBEA6
:103CAC0070B5092631000D4B41438000C058FA23F2
:103CBC000B4A9B005418A5785D43A84202D18E5440
:103CCC00002070BDE5785D43A84202D10A238B54D5
:103CDC00F6E7247963439842F2D1F7E78812002083
:103CEC00FE0C002009230E4A434380008058FA2220
:103CFC000C4930B5CC18657992005543A84202D1D5
:103D0C000C225A5409E0A5795543A84201D10D2241
:103D1C00F7E7E47962439042F9D0002030BDC04609
:103D2C00AC120020FE0C00207047704770477047A3
:103D3C00704770470120704770470000F0B591B094
:103D4C0008AC0C223049200010F0AFFC09222F499E
:103D5C0005A810F0AAFC192004ABC01810F015FA35
:103D6C000025C6B209A8A57110F00FFA284FC3B2EE
:103D7C000393E570AB00D9592000FCF7BDF9013570
:103D8C00EBB2002800D102930C2DF3D10A2004AB26
:103D9C00C01810F0FAF9002504AB0090D81D65711D
:103DAC0010F0F3F9019005A8A57010F0EEF904AB32
:103DBC00DE700126029A174C5A70039A07009A700B
:103DCC0019002A0020001E700FF05CF80200A842B7
:103DDC0002D0FF2011B0F0BD0BA908721820019B76
:103DEC000F704B70009BCA608B700B4B0A61587341
:103DFC0020000EF0D1FF051EEBD12000074A310048
:103E0C000FF0F4F82800E5E74893010854930108F3
:103E1C00309A0108D06B0020786B0020F232000041
:103E2C00802370B5194D1B022A6A194C13432B625F
:103E3C007C22184BA26023600023174A2000636089
:103E4C00E26023616361A3610EF052FF0600FF2064
:103E5C00002E0ED1012120000FF0CEF80F4B98420E
:103E6C0008D0FFF76BFF802300206A6A5B041343C2
:103E7C006B6270BD6B6A1B0101D5094B1E706B6ABE
:103E8C005B01F0D50122064B1A70ECE700100240E2
:103E9C00D06B002000280040CF070000F232000059
:103EAC00E40C0020044B10B59968FCF725F943424B
:103EBC005841C0B210BDC04648000020F8B51C499E
:103ECC000500FCF719F9062406001A4F002E23D022
:103EDC0019492800FCF710F900281FD017492800B1
:103EEC00FCF70AF900281BD015492800FCF704F947
:103EFC00002817D039002800FCF7FEF8002813D052
:103F0C0010492800FCF7F8F800280FD0013CE4B267
:103F1C00002CDBD12000F8BD0120FCE70220FAE7E1
:103F2C000320F8E70420F6E70520F4E70620F2E783
:103F3C004693010842930108C7B201083D9301085A
:103F4C003F930108459301081023F0B59BB01193E2
:103F5C00802780230024012502267F025B030DA805
:103F6C000D950E95109516961893179719940EF0AB
:103F7C0049FA0723290002A8029303960494059496
:103F8C000EF088FC1A4B06A80693089409940A9420
:103F9C000EF0E6FD8021174E4905F2690A43F261E5
:103FAC00F3690B400093009B0EF022FAC02306A885
:103FBC009B00079306970EF0D3FD0EF0ADFDFA2192
:103FCC008900FCF7D3F80DF055FB04200DF06CFBC9
:103FDC000120B36922002B43B361B36921001D405A
:103FEC0001954042019B0DF007FB1BB0F0BDC04694
:103FFC00030004000010024010B52F480BF064FCC5
:10400C002E480BF061FC2E480BF05EFC2D480BF09B
:10401C005BFC2D480BF058FC2C480BF055FC2C4845
:10402C000BF052FC2B480BF04FFC2B480BF04CFCCC
:10403C002A480BF049FC2A480BF046FC29480BF0A7
:10404C0043FC29480BF040FC28480BF03DFC284869
:10405C000BF03AFC27480BF037FC27480BF034FCEC
:10406C0026480BF031FC26480BF02EFC25480BF0B3
:10407C002BFC25480BF028FC24480BF025FC24488D
:10408C000BF022FC23480BF01FFC23480BF01CFC0C
:10409C0022480BF019FC22480BF016FC21480BF0BF
:1040AC0013FC21480BF010FC1D22204B1A7005F05C
:1040BC00CBFFFFF741FE10BD809C0108149C01084A
:1040CC00B09B01082C950108B0960108309E0108A0
:1040DC00289B0108949801087CA201088899010882
:1040EC00E89E010814940108209E0108F0A0010824
:1040FC00EC970108349601087CB00108A0950108E2
:10410C00349F0108ECB0010808990108E0960108F9
:10411C006CA20108A4930108709B0108A0960108E9
:10412C0078950108C4B0010814B00108C06A0020D9
:10413C000138C3B20020042B02D8024A9B009858C5
:10414C007047C04628910108F0B50F2687B004923D
:10415C0002AAB61833701C000CAB1F7802900391A6
:10416C00BC4206D102226725514B1A55280007B0D4
:10417C00F0BD6725002CF9D0002FF7D0029B002B47
:10418C0033D12000FFF7D4FF04003800FFF7D0FF35
:10419C0001220100200005F033F8172801D1172562
:1041AC00E4E7FA21049889004843FBF7DFFF414B11
:1041BC0001000093330000223F480CF019FF04006B
:1041CC0033783E4A013B03999B0099500025AC4241
:1041DC00CCD00CF021FA01235B42020000930121A8
:1041EC002B0020000CF020FFC0E7029B012B18D104
:1041FC003800FFF79DFF05002000FFF799FF029A9A
:10420C000100280004F0FCFF1728C8D0FA210498FC
:10421C0089004843FBF7AAFF264B010000930CAB27
:10422C00C9E7029B6725022BA0D12000FFF780FF76
:10423C0004003800FFF77CFF01220100200004F08D
:10424C00DFFF1728ABD0FA21049889004843FBF70D
:10425C008DFF184B01000093002233000700164815
:10426C000CF0C6FE3478039A144D631E9B005A5111
:10427C000CAB1878FFF75CFF06002000FFF758FF27
:10428C0001220100300004F0BBFF172887D0094B36
:10429C000022009339000CAB07480CF0A9FE0CABC4
:1042AC001B78039A013B9B0004005A518EE7C046D1
:1042BC0080120020D12D00085D930108E01500202C
:1042CC00F0B50E27002587B005AC02ABFF18210016
:1042DC00E42025803D8005F063F80395A84201D1C8
:1042EC00237803932100E52005F05AF839000500E6
:1042FC00E62005F055F82843002580B2A84203D1EA
:10430C0025883B882D04ED182100E72005F048F89E
:10431C0039000600E82005F043F83043002680B24F
:10432C00B04203D126883B883604F6182100E920D8
:10433C0005F036F8254F002804D123881A0A3A7064
:10434C00234A13702100EA2005F02AF8002805D131
:10435C00238820491A0A0A701F4A13702100EB2087
:10436C0005F01EF8002805D123881C491A0A0A708A
:10437C001B4A13703B78002B09D0154A1278002A7F
:10438C0005D00092290032000398FFF7DDFE114B97
:10439C001B78002B09D0104A1278002A05D0009205
:1043AC00290032000398FFF7CFFE0C4B1B78002B33
:1043BC0009D00B4A1278002A05D00092290032004D
:1043CC000398FFF7C1FE002007B0F0BD1C130020BE
:1043DC00BA0E00201D130020BB0E00201E1300205F
:1043EC00BC0E0020F8B51D000F001600FFF7A0FE54
:1043FC001E4B069C98420CD190238022DB05920028
:10440C003B6032802B608023DB002380002318006C
:10441C00F8BD174B984207D190230422DB053B6073
:10442C0032802B600823F0E7124B984208D180228F
:10443C00114BD2003B6032802B6080231B01E4E7E0
:10444C000E4B984207D190230122DB053B60328052
:10445C002B600223D9E70A4AFF239042D7D10822C6
:10446C00054B3B6032802B601023CEE77070002030
:10447C001C740020286D002000040048A473002048
:10448C00FC6F002010B5FFF753FEE1231B024360C5
:10449C008023DB000361802304005B0183600FF049
:1044AC001BFD2023226811680B43136010BD000014
:1044BC000023F0B587B005934E4B04AE9B7B0400F4
:1044CC0033701000002C01D172B6FEE7012105AA51
:1044DC000BF086FA48490500FBF70EFE00285AD16E
:1044EC0001256427454B1A78454B9B18013B1B78DB
:1044FC000293EBB20393414BEAB21B7893423DD04B
:10450C0010F0F4F804AE30700A2301223100009749
:10451C00E8B208F0F9FFE8B2FFF70AFE0368327858
:10452C009B8CDBB29A422FD12A003649200010F026
:10453C00BFFA2000FBF7EAFD304B82B2210018785D
:10454C000A23009708F0E0FF2F49200010F0ECFA46
:10455C002000FBF7DBFD294E82B20A2330782100C4
:10456C00009708F0D1FF029B28495A1C3378013B75
:10457C009B01CB189B5C002B09D002920135062DB8
:10458C00B7D1002007B0F0BD2A002149CEE70120A9
:10459C000DF018F8E7E70023EB561E49702B24D1D9
:1045AC00681C0FF0F8FDC7B27B1E05001A49042BDE
:1045BC001BD810F09BF8642330700122310000935B
:1045CC003800323B08F0A0FF3800FFF7B1FD03685C
:1045DC0031789B8CEAB2DBB2994204D109492000B4
:1045EC0010F066FACDE70A49F9E7200010F09CFAC2
:1045FC00C7E7C046E88F01081F970108570A00203B
:10460C007A15002067AF010894AF01083A14002016
:10461C0082AF010803B00108E8AF0108F0B587B01C
:10462C006A463C4B00AF1B783B4C3B610733DB08C5
:10463C00DB00D31A9D467B6100231A003D69D9B279
:10464C008D4230D801237A690138135416221D008B
:10465C00424398403149304C5218FA60F9685A007C
:10466C008A5A002A0CD02E00591E8E403100065B4F
:10467C00D2083143015379698A180221013A117029
:10468C000133062BEAD10221002318000131C9B2F3
:10469C004A1E3A603C69DAB294420AD80028F3D137
:1046AC00BD4607B0F0BD7969CA5459000A530133AD
:1046BC00C4E77A693C68D25CA24228D116245C43D8
:1046CC00164AA2187A605A00BA60134A012494461A
:1046DC007D686200AA5A002A16D0D208013AFA6004
:1046EC00FD687A69555D002D0ED10126651EAE4020
:1046FC0032006646BD680130AD5BC0B21543BA6886
:10470C0095537A69FD6851550134062CE0D101337B
:10471C00C0E7C0461C000020B20C0020580A002044
:10472C00F0B589B003930EAB1C8803000590029181
:10473C00049213436720002B07D0059B002B06D156
:10474C0013000233DBB2012B08D909B0F0BD029B78
:10475C00002B03D0049B6720002BF6D000200BF01D
:10476C00CBFE0521079000200BF0D6FE48239B487A
:10477C00029A037012334370059B134345D1049B7B
:10478C000233DBB2012B00D914E13821013C614327
:10479C00934B03301F5D934C3A0009190FF085FFC2
:1047AC008E4C914EFD1C2A0021003000A7700FF09A
:1047BC007CFFAB101A0031008C4806930DF01AF8F0
:1047CC006055AB0707D0AB109900891901228748B7
:1047DC000CF0E7FF60553822002183480FF06EFF84
:1047EC00049B0233DBB2012B00D8BEE03A1D32230E
:1047FC007A49059808F0CCFE002007990BF08CFE46
:10480C0002227B4B00201A709FE7039B002BBCD02D
:10481C00029B002B02D1774B1B7802930026049B42
:10482C00754AC370029B86700371D37992799B0091
:10483C001343FF2203998A4292415242520013437E
:10484C00DBB243718171FF2902D90A0AC2710136A8
:10485C0062482E2C35D8F31DC018684B68491B884C
:10486C002200C9180FF021FF221DB218D7B2654BD8
:10487C001B78002B94D0644B1B78FF2B00D19EE04F
:10488C000121624A5548127894460A009A40002346
:10489C001500821906928AB2944553D2F01D001964
:1048AC004E4DC0181C192B542B2C56DC5849023772
:1048BC000A7828180132D2B2FB180A704270DFB2A3
:1048CC006EE78022524213434371524B00271C80E7
:1048DC002E24504B1D88002DC9D021002800FBF739
:1048EC0045FC83B20693002B15D02500039B049A3C
:1048FC00029900940598FFF713FF0A200AF073FF42
:10490C00444B444A1B881B1B13803C4A1388E318F6
:10491C0013802C00DDE77F223048384C437938492E
:10492C0013404371F31DC01823882A00C9180FF0D7
:10493C00BCFE069B069A2380364B1A802A1DB218A1
:10494C00D7B2E6E74A003448023A825A15420AD0F6
:10495C000133DBB21A192C2A01DD6920F5E6069A1F
:10496C00D21812199171013195E7039B002B05D1D7
:10497C00029B002B02D1194B1B7902930298FFF773
:10498C004DFE012500221B4B24491B78541C013B76
:10499C005B005B5AE0B213412B4207D03A1D322325
:1049AC000E4908F0F5FD28000CF00CFE2200052C39
:1049BC00E9D121E7039B002B00D1E6E62BE72C2C59
:1049CC00CBD8134A0549137889190133DBB20C197A
:1049DC0001371370E371FFB2E2E6C0466B100020A2
:1049EC00A3100020660D00207F150020707500209C
:1049FC00D0120020DA110020786B0020A0120020C9
:104A0C00A8100020540A00201D0000201C000020CB
:104A1C00B00C002020130020220F0020B20C00202C
:104A2C0007B502000020084B89B21870074B1A70AA
:104A3C0000910300FF2A04D10100FFF771FE002052
:104A4C000EBDFE22F8E7C046540A00201D000020CF
:104A5C0037B501251C000A4B1D700A4B1970130049
:104A6C0000940A00FF2900D0FE2201000020FFF76D
:104A7C0057FE2200002104480FF020FE00203EBD0E
:104A8C00540A00201D000020A8100020002373B53C
:104A9C000400019310009C4201D172B6FEE701AAFA
:104AAC0001210AF09DFF019E1A493200050010F009
:104ABC0043F8002810D11849184B0A0023CB23C205
:104ACC0023CB23C21B681360FFF7A0F81449200006
:104ADC0010F02AF8002076BD12493200280010F0A0
:104AEC002BF81149031EF2D1104AFF21107816221F
:104AFC00FFF7AEFF02220E4B64201A700AF073FE11
:104B0C00FEF7E4FEFEF702FE64200AF06CFE094993
:104B1C00DDE7C046B0950108786B0020000000204E
:104B2C00B7950108DE950108E4950108DA1100201B
:104B3C00540F0020F395010873B5050001240326DA
:104B4C00A54210D00B4B20001A880B4B110A5A703F
:104B5C00002219709C70110000960A23FFF7E0FDEB
:104B6C000A200AF040FE0134E4B2062CE8D1002001
:104B7C0076BDC0461E000020A810002010B5040011
:104B8C000CF0CCFB002C06D0044B1A68516A536A0B
:104B9C005B1AA342FBD90CF0CDFB10BD946B00202B
:104BAC00F0B5012700233C008BB00293049309233A
:104BBC007B430593059AA84BFDB29A180392527841
:104BCC00002A00D116E1A54A1278002A01D10599D4
:104BDC00CA540E2604ABF61807AA09AB08A900960E
:104BEC002800FFF7FFFB04AB9989002208980DF011
:104BFC00F3FB0A20FFF7C2FF318809980DF0E6FBA2
:104C0C0000280DD104AB9989220008980DF0E4FB23
:104C1C000A20FFF7B3FF318809980DF0D7FB0490F9
:104C2C0007AB1988089800220DF0D6FB039B587827
:104C3C00BB000138032809D8049AFBF779FA020261
:104C4C007076012A77D0002A00D192E0029A042AC9
:104C5C0001D0022A74D182498248CA5882426DD846
:104C6C000132CA507E4BBE009C46F1587E4B1B88CD
:104C7C0099421ED306D107207749059A50546246B3
:104C8C00591CB150794AB1588B4201D20023B35010
:104C9C00734B754AF35851888B4200D884E0F42149
:104CAC00FF318B4200D97FE0714B197800296BD111
:104CBC001C706E4B9C46F1586B4B1B88994221D350
:104CCC0006D108206449059A50546246591CB150CB
:104CDC0063497258934201D2002373506346624A6F
:104CEC009B595288934276D9F422FF32934272D860
:104CFC005F4B594A1978012966D105980431115432
:104D0C0002221A70544E059B985D0538092871D8FB
:104D1C00FBF70EFA7A876A7694B4BFCAD8E5012AF3
:104D2C0007D0002A92D102940FE0012AFBD0002A6E
:104D3C008CD1022200E0042202928CE7002290E740
:104D4C00029A032A01D0012A8CD148494548CA58F5
:104D5C00824211D801324648CA5006784549424A27
:104D6C007B5C5279022E09D193420AD80133CB5580
:104D7C0078E703220292E8E70022ECE7934200D89E
:104D8C0070E700230370F2E7022992D13949785C6D
:104D9C00117981428DD2527982428AD903221A70BA
:104DAC000023344ABB5484E7F53B334AFF3B934220
:104DBC0000D97EE72E4B1A78002A01D000221A70F7
:104DCC002800FEF76DFF74E703299BD1059803318A
:104DDC001154002295E7F53B274AFF3B934291D8AB
:104DEC002800FEF77FFF8DE72800FEF79DFF0023CC
:104DFC00059AB3540137062F00D0D8E60BB0F0BD9E
:104E0C002800FEF792FFF2E7144B1A78002AF1D132
:104E1C00039A127A2242EDD028001C70FEF786FF0E
:104E2C00E8E70E4B1A78002AE4D1039A127A92071B
:104E3C00E0D528001C70FEF77AFFDBE7074B1A78E9
:104E4C00002AD7D1039A127A5207D3D501211C70AC
:104E5C002800FEF76DFFCDE7FE0C0020B90E0020F8
:104E6C0088120020FEFF0000786B0020AC1200209E
:104E7C007F0E0020B30E00200AFE00001E4B1A7895
:104E8C00002AB7D1039A127A1207B3D51C700221EB
:104E9C00DEE7194B1A78002AACD1039A127AD206A3
:104EAC00A8D51C700321D3E7134B1A78002AA1D183
:104EBC00039A127A92069DD501211C702800FEF7E8
:104ECC0038FF97E70C4B1A78002A00D092E7039A28
:104EDC00127A520600D48DE71C700221EEE7064BC5
:104EEC001A78002A00D085E7039A127A7F2A00D814
:104EFC0080E71C700321E1E7B90E002010B5040017
:104F0C000CF00CFA002C06D0044B1A68516A536A48
:104F1C005B1AA342FBD90CF00DFA10BDC46A002039
:104F2C008020384B80025969F0B5014359615A69A8
:104F3C0093B0024080200992099A5969C00201433A
:104F4C0059615A691224024080200A920A9A5969BE
:104F5C0000030143596180215A69490302400B92B5
:104F6C000B9A5A6900260A435A615B6901270B4068
:104F7C000C930C9B0E2303AD6B446C4400932A00E2
:104F8C0006AB05A90120FFF72DFA04AA08AB07A967
:104F9C0000940520FFF726FA2B880DA905980D9390
:104FAC000E970F960DF058F902230F9323880DA935
:104FBC0008980D930E960DF04FF92988320005983C
:104FCC000DF00AFA0520FFF799FF218808980DF0DB
:104FDC00FDF9B04206D0012200200B4B52421A6060
:104FEC0013B0F0BD29883A0005980DF0F5F90520AD
:104FFC00FFF784FF218808980DF0E8F90128EAD121
:10500C00EEE7C04600100240F07F00200E23F0B502
:10501C001225002401278FB003AE6B446D4400931E
:10502C00320006AB05A90120FFF7DCF904AA08AB96
:10503C0007A900950220FFF7D5F9338809A905982F
:10504C0009930A970B940DF007F902230B932B8805
:10505C0009A9089809930A940DF0FEF831882200EA
:10506C0005980DF0B9F90520FFF748FF2988089835
:10507C000DF0ACF9A0420FD131883A0005980DF033
:10508C00ABF90520FFF73AFF298808980DF09EF937
:10509C00013844424441E4B220000FB0F0BD00009E
:1050AC0070B504000D00002816D0012915D104F0AC
:1050BC00F5FF802109020A0001380241114B124D03
:1050CC001B786163013B5B00585B02435A53082316
:1050DC00636220000EF000FF70BD0029FCD104F0CB
:1050EC00DDFF8021013809020141064B064E1B7879
:1050FC006563013B5B009A5B8A439A5308236362A6
:10510C00E7E7C046DA1100207E0C0020F0B593B022
:10511C0004000D003222002105A80FF0CFFA19224D
:10512C00002147480FF0CAFA002301204549621EAE
:10513C008B5445498B5416335343444A9B18019363
:10514C00AAB201994300CB5A002B0CD0DB08934236
:10515C0009D101223B4BC0B25B19013B1A70384B91
:10516C001D7013B0F0BD01300728EAD10022384B76
:10517C00FF26197894460123334F99422ADA0024EA
:10518C00304E05AF3800FEF7FFF8002807D1390084
:10519C002C48FEF7DFF80130C4B2AC4224D1002217
:1051AC002949274E0B19013B187800283FD10123C0
:1051BC00244A5519013D01995A00895A00293BD0BE
:1051CC002A781F4CC908A218013A12788A4233D1A6
:1051DC00D8B2C6E79C4205D01A485A1E865460467F
:1051EC00BA1810700133C8E7162201230121601E82
:1051FC0042433B54154B0397D3180293029A4B002E
:10520C00D35A002B0FD0DB08DBB2039A013BD25CE4
:10521C00002A08D1325CF75C0132D2B2974202D933
:10522C00F254094AD45401310729E7D1A9E7531C98
:10523C00B454DAB20400B5E70133072BBBD190E7C5
:10524C00D1120020EA12002003130020580A00207B
:10525C001C00002073B500240A4B05001C70382379
:10526C00421E5343084A9E5C084B31001878FFF7E6
:10527C004DFF0095320023002100FFF751FA20006A
:10528C0076BDC046540A0020660D0020DA110020BD
:10529C00F7B50E4F04000E0015003878FF2C0FD018
:1052AC002100FFF733FF3978220000953300FFF718
:1052BC0037FA2A00002106480FF000FA0020FEBD44
:1052CC0013000A002100FFF7C3FBF7E7DA110020F7
:1052DC00A8100020F0B54F4D85B04F4904002800B0
:1052EC000FF022FC01262800FAF710FF764282B25A
:1052FC00009632232900200008F006F901273A0015
:10530C00464928000FF0D4FB2800FAF7FFFE0137BE
:10531C0082B2009632232900200008F0F5F8062FFF
:10532C00EDD10096322303223D49200008F0ECF821
:10533C0000273C4B1B78BB420AD801235B420093ED
:10534C00012233333849200008F0DEF805B0F0BDF7
:10535C00304D7A1C354928000FF0AAFB2800FAF7CB
:10536C00D5FE01235B4282B2290000932000333327
:10537C0008F0CAF8162206217A432D4E0392935B4D
:10538C00280059432B4B0522C9180FF0E6FB0123CB
:10539C005B422900009305223333200008F0B4F857
:1053AC00012301255B420093012233332249200063
:1053BC0008F0AAF8039B9B190393039A6B00D25A2B
:1053CC00144E002A1ED11D4930000FF071FB300025
:1053DC00FAF79CFE01235B4282B200933100333317
:1053EC002000013508F090F8062DE6D101235B4230
:1053FC0000930222333312492000013708F084F85D
:10540C00FFB296E707230F4913403000D2080FF084
:10541C004FFBDCE7301200201393010825930108A1
:10542C009FB501081C00002021A701082A93010840
:10543C00580A0020AA9901082393010839930108FE
:10544C00A0B5010836930108F0B5274C85B0274963
:10545C00060020000FF068FB01272000FAF756FE2B
:10546C0001257F4282B2009732232100300008F0E0
:10547C004BF803971E4B1B78AB4211D21D492000F1
:10548C000FF052FB2000FAF741FE01235B4282B27F
:10549C00009321003333300008F036F805B0F0BD2E
:1054AC0000236A1E520002920299134A5F1C8A5A08
:1054BC00802109021941114210D03B002A000F49EA
:1054CC0020000FF0F5FA2000FAF720FE039B82B2C1
:1054DC00009321003223300008F016F83B000A2F0D
:1054EC00E2D10135EDB2C5E730120020C5920108BA
:1054FC001C000020F39201087E0C0020E1920108B0
:10550C00F0B585B003900AF067FA04006D490FF00E
:10551C000BFB6D4D6D4B6E491A7828000FF0C8FAD5
:10552C00290020000FF0E4FA6A4B6B491A78280026
:10553C000FF0BEFA290020000FF0DAFA0323002244
:10554C0000936649013B28000FF0B2FA29002000B5
:10555C000FF0CEFA624A634928000FF0A9FA29002D
:10556C0020000FF0C5FA604A604928000FF0A0FA3D
:10557C00290020000FF0BCFA5D4928000FF0D4FA86
:10558C00290020000FF0B4FA0126320059492800F6
:10559C000FF08EFA290020000FF0AAFA564BF05C9F
:1055AC00042808D8FAF7C4FD0372747678005349BE
:1055BC0028000FF0B9FA2900200001360FF098FAF4
:1055CC00062EE2D14E4928000FF0AEFA2900200039
:1055DC000FF08EFA012538236B434A4A9B181A00A8
:1055EC00383A1268002A59D1374E2A004649300001
:1055FC000FF05EFA3100200001350FF079FA072D1B
:10560C00E9D1424920000FF073FA414920000FF014
:10561C006FFA2000FAF77AFD002205002B4B3D496A
:10562C001B78561C013B5B005B5A8021090211411F
:10563C00194209D0244F3849320038000FF038FA9B
:10564C00390020000FF054FA3200052EE6D120006C
:10565C00FAF75CFDADB2A84203D1304920000FF03F
:10566C0047FA2A4920000FF043FA039B002B0BD07A
:10567C002000FAF74BFD01235B4282B2009321001C
:10568C003333039807F040FF05B0F0BD24498FE792
:10569C0024498DE724498BE7244989E7143B186892
:1056AC0004F0FCFC224AAB00043B0700D05804F089
:1056BC00F5FC054E00903B002A001E4930000FF00F
:1056CC00F7F997E72493010830120020DA11002033
:1056DC003C910108570A0020589101087491010867
:1056EC00489301089191010854930108A89101086D
:1056FC00C1910108D491010880120020DA910108AF
:10570C003B920108F01A002053920108A0B5010841
:10571C009E9201087E0C0020BB920108C0920108E9
:10572C00E1910108F6910108029201081C9201080E
:10573C00CC1500206E92010810B5002801D172B66C
:10574C00FEE70020FFF7DCFE002010BDF7B528496E
:10575C000500FAF7D1FC002803D1264B1C78200059
:10576C00FEBD25492800FAF7C7FCFF240028F6D017
:10577C002F78232F16D00026204B1B780193019BEA
:10578C00F4B29C4220D300240A261D4F3100614301
:10579C0028007918FAF7B0FC002824D12002FE2446
:1057AC0004431CE0681C0EF0F6FCC0B2002805D0C7
:1057BC00124B1B78834201D304B2D0E70D4B662405
:1057CC001B788342F8D0CAE70A2171430D4B28009D
:1057DC00C918FAF791FC002803D1002F01D024B28C
:1057EC00BDE70136CBE701340A2CCFD15A34B6E7EA
:1057FC000DAA0108DA1100201F9701081C000020D7
:10580C00BD0E0020D6100020F7B50C000025294E47
:10581C000190A90071182000FAF76EFC002842D004
:10582C000135042DF5D10A27234B244E1B78033D5B
:10583C000093009BAB421EDC00250A27204E39004A
:10584C00694320007118FAF757FC00282DD0013558
:10585C000A2DF4D11B4E1C4B33603568002D14D12E
:10586C000A20019B21005843144BC0180FF05CF91F
:10587C00FEF76AF8FEBD3900694320008919FAF772
:10588C003BFC002811D00135D3E72B681F6838008A
:10589C00FAF73CFC3900020020000FF04DF900280B
:1058AC0005D06B68D8E70620E4E70720E2E708207C
:1058BC00E0E7C046189101081C000020D61000201B
:1058CC00BD0E0020A41200207C00002070B5040046
:1058DC001000002C01D172B6FEE7164E01213200E9
:1058EC000AF07EF8144D336801002860092B01DDA5
:1058FC0000234372114E3078FFF786FF002807D142
:10590C0032782B680E4920000FF0D2F8002070BDC1
:10591C00062805D12A680B4920000FF0C9F8F5E7D5
:10592C00072802D12A680849F6E70828EED12A6828
:10593C000649F1E72C13002008120020DA11002090
:10594C00609A0108789A0108B59A0108E89A01084A
:10595C00F7B50D0000240A26009031006143344B4A
:10596C0028005918FAF7C8FB002809D10121A140D9
:10597C00009B304D013B5B005A5B0A435A53FEBD02
:10598C0001340A2CE9D100242B4EA10071182800F7
:10599C00FAF7B2FB002844D00134042CF5D10A27C5
:1059AC00264B274E1B78033C0193019BA3421CDC26
:1059BC00244E254B33603468002C20D10A23180068
:1059CC0060431B4A125C002A27D1194B2900181876
:1059DC000FF0AAF80121A140009B1648013B5B0087
:1059EC001A5A0A431A520020C9E7390061432800A9
:1059FC008919FAF781FB002815D00134D5E7236803
:105A0C001F683800FAF782FB3900020028000FF0FB
:105A1C0093F8002809D06368CCE701340A2CCED166
:105A2C00D8E70620ABE70720A9E70820A7E7C04680
:105A3C00BD0E0020220F0020189101081C00002030
:105A4C00D6100020A81200207C000020F0B591B0E8
:105A5C0006AD040000211700280027220EF02EFEB0
:105A6C000A22002103A80EF029FE002C01D172B6E7
:105A7C00FEE7424E01213200380009F0B1FF3268D6
:105A8C00010003A80FF069F800260A2171433C4B72
:105A9C0003A85918FAF730FB002822D001360A2E39
:105AAC00F3D1012301930226364B374920001E7097
:105ABC000FF03AF83100354A380009F091FF344BB9
:105ACC001860334B196800290DD108002D4B1B7839
